:1000000000308A0081280000FF00030E8301A10058
:100010000A08A0008A010408A2007708A300780853
:10002000A4007908A5007A08A6007B08A70083131E
:1000300083128C308400801D1F288C1932282208DE
:1000400084002308F7002408F8002508F900260892
:10005000FA002708FB0020088A00210E8300FF0E0B
:100060007F0E09008A110A124228130831089300F2
:1000700014168C11831614183B28F80183128A1168
:100080000A1267288316941A4A288312AD0113189E
:10009000AD17831683122D08AD0AB00030087F3CDF
:1000A000031C5E288316141C532883121308AF0008
:1000B0002F08053C031D5E280130A9003008803C54
:1000C000031D6828290B68282A08B1003528A901D2
:1000D0008C118A110A121F282E3084008313000805
:1000E000031980280130F800F701F70B7528F80B89
:1000F00074284A30F700F70B7B287E28800B722883
:100100000034840183131F308305A8152808831643
:10011000870083122816280883168700B0309300C2
:1001200036308312940083161F149F141F159F11DD
:1001300007309C00FF308312A800A9010330AD00F6
:10014000C0308B0483168C151F109F141F159F152C
:100150001F1383121F179F1783169F1383121F14D9
:1001600083168601831286010030F8001F08C73904
:1001700078049F000130AE006C201F151F19BE28A7
:100180001E08AA000130AE006C208316860183127F
:080190002A088600B428630070
:02400E00313F40
:00000001FF
;PIC16F877A
