:0400000017EF06F000
:08000800046ED8CF05F0E0CF33
:1000100006F00001E9CF0CF0EACF07F0E1CF08F0DD
:10002000E2CF09F0D9CF0AF0DACF0BF0F3CF12F01C
:10003000F4CF13F0FACF14F000C00EF001C00FF0AF
:1000400002C010F003C011F09DA02AEF00F09EB096
:1000500066EF00F09DAA30EF00F09EBA80EF00F04E
:100060009DA636EF00F09EB655EF03F00EC000F0EF
:100070000FC001F010C002F011C003F00CC0E9FF86
:1000800007C0EAFF078E08C0E1FF09C0E2FF0AC00F
:10009000D9FF0BC0DAFF12C0F3FF13C0F4FF14C086
:1000A000FAFF045006C0E0FF05C0D8FF1000F2CFF1
:1000B0000DF0F29EF76AC80FF66E000EF7220900E7
:1000C000F5500DBEF28E1200280C0106929689762C
:1000D0000101495303E1485109080BE2496B486BA0
:1000E0004B5303E14A51000804E24A51D8B44B078C
:1000F0004A07482BD8B4492B9E90000136EF00F0F8
:100100009D909D969D9AF29CF29EF2BEFDD79EAA6E
:10011000FED7AECF16F09292898216504008D8A42E
:10012000BDD016C017F00101476B010E466F475155
:100130000108D8A0B2D004E146512C08D8A0ADD017
:100140009EAAFED7AECF16F0170E4625E96E000E1A
:100150004721EA6E16C0EFFF1650240840E1030E57
:10016000465D06011E6F000E0101475906011F6F13
:10017000170E1E25E96E000E1F21EA6E300EEF5C91
:10018000640DF3CF1EF6020E0101465D06011F6FDE
:10019000000E010147590601206F170E1F25E96E59
:1001A000000E2021EA6E300EEF5C0A0DF3501E2780
:1001B000010E0101465D06011F6F000E0101475946
:1001C0000601206F170E1F25E96E000E2021EA6E32
:1001D000300EEF5C1E2501014E6F4F6B5AD016504A
:1001E00026082BE1020E465D06011E6F000E01017E
:1001F000475906011F6F170E1E25E96E000E1F21BD
:10020000EA6E300EEF5C0A0DF3CF1EF6010E01010F
:10021000465D06011F6F000E010147590601206F60
:10022000170E1F25E96E000E2021EA6E300EEF5CDE
:100230001E2501014C6F4D6B2CD016503F0813E169
:10024000010E465D06011E6F000E010147590601B1
:100250001F6F170E1E25E96E000E1F21EA6EEFCFED
:1002600043F1010116D01650230813E1010E465D3B
:1002700006011E6F000E0101475906011F6F170E80
:100280001E25E96E000E1F21EA6EEFCF44F1010139
:1002900004D0462BD8B4472B4AD700019D809D86B9
:1002A0009D8AC00EF2129E9A36EF00F08E0E006EFE
:1002B00023C601F022C602F0036A015209E102C01E
:1002C00001F0026A080E005E015202E1006A08D0E5
:1002D000D89001BE04D0023601360006F9D7019E3F
:1002E00095EF03F0C95020C6C9FFC6889E96C7B0D7
:1002F000FED7016AC6B8012A000C9EA8FED7AD6ED3
:10030000000C06013151D8B471D0006E3551D8B40B
:100310006DD0002604E3810E002668E204D07F0E33
:10032000005E64E363E032C639F63651391B328F22
:10033000368F34513803F4CF3BF633513703F4CFC3
:1003400003F0F3CF3AF63803F3503B27F4503A2347
:10035000000E032234513703F3503B27F4503A2365
:10036000000E026A0322022232513803F3503A2768
:10037000F4500322000E022232513703F3500326B9
:10038000F4500222000E016A012234513603F35068
:100390003A27F4500322000E022201223351360381
:1003A000F3500326F4500222000E0122325136038C
:1003B000F3500226F4500122002A01BE05D03A373C
:1003C0000336023601360006000E3AAF0AD0032A81
:1003D00002220122015005E1025003E1035001E134
:1003E000002A39BF018E39AF019E04D0006A016A2C
:1003F000026A036A000175EF02F006013151B60886
:10040000316F036A32C635F6328FD89032333333C8
:1004100034330332023201320032312FF6D735AF96
:100420000BD0001E011E021E031E002AD8B4012A92
:10043000D8B4022AD8B4032A00018AEF02F0006A75
:10044000016A026A036A0601396B3A6B3B6B3C6BCB
:1004500038513711361135112CE0200E3D6FD890F0
:10046000313732373337343739373A373B373C3720
:1004700038513C5D08E137513B5D05E136513A5D4D
:1004800002E13551395D0FE33551395F3651D8A05E
:10049000363D3A5F3751D8A0373D3B5F3851D8A041
:1004A000383D3C5FD88000360136023603363D2F9A
:1004B000D6D7060EEA6E390EE96E0001000CE9503F
:1004C0000601296F28512B6F1BE027C634F626C67C
:1004D00033F625C632F624C631F6386B376B200E5C
:1004E000366F820E356F00010CD703C027F602C0AD
:1004F00026F601C025F600C024F606012B2FE5D70D
:1005000027C634F626C633F625C632F624C631F69B
:10051000000173D703C027F602C026F601C025F6F6
:1005200000C024F6060127AF0DD02907298B241F10
:10053000251F261F271F242BD8B4252BD8B4262BE4
:10054000D8B4272B3B0E306F9A0E2F6FCA0E2E6F2A
:100550002D6B0A0E2B6F2851D8B4292B27C634F6E1
:1005600026C633F625C632F624C631F630C638F62E
:100570002FC637F62EC636F62DC635F600015FDFDC
:100580000150EFCF24F6ECCF25F6ECCF26F6ECCFDA
:1005900027F6005213E1060128292B5DD8A402D0CA
:1005A00000010CD029510DE00F0B2B5D01E03CE266
:1005B00029BF3AD029BD05D0200E31D0200E06012A
:1005C000291729AB0DD0299B2851D8A42907005001
:1005D000296F2D0E9EA8FED7AD6E2951006E296B96
:1005E00028512B5D0BE10050296F2E0E9EA8FED7DF
:1005F000AD6E2951006E200E2917000E300E29AB6A
:100600000ED0299B2851D8A429070050296F2D0E00
:100610009EA8FED7AD6E2951006E296B300E0026C4
:1006200000509EA8FED7AD6E30C634F62FC633F606
:100630002EC632F62DC631F6386B376B366B0A0E86
:10064000356F0001FCDE03C030F602C02FF601C09A
:100650002EF600C02DF606012B2F80D7000134EFB7
:1006600004F0016A026A006A036A0601235102E18A
:10067000225118E0100E246FD89020372137003611
:1006800003362351035C02E12251005C07E322514F
:10069000005ED8A003062351035ED88001360236DF
:1006A000242FEAD700013EEF04F09D909D969D9A7D
:1006B000F29CF29EF2BEFDD7C7BA04D006010A6BC7
:1006C000C7B40A8F06010A510A2B1F6F92908980C6
:1006D0001F517F08D8A068D0C69C9EA6FED7C950DF
:1006E000C6881E6F1E51A00830E00101542D07D0AE
:1006F0001EC645F106011E6B0101546B25D0582D15
:1007000023D05035026E5135036E02360336FC0E8F
:10071000021602505A0FE96E010E0320EA6E06011E
:10072000236B1EC622F60001C1D500C0EFFF01C039
:10073000ECFF02C0ECFF03C0ECFF06011E6B0101E1
:10074000502BD8B4512B586B06011E51050805E1FA
:10075000010E0101546F27D006011E51060805E164
:10076000010E0101556F1FD006011E51070805E15A
:10077000010E0101566F17D006011E51080805E150
:10078000010E0101576F0FD006011E51090805E146
:10079000010E0101586F07D006011E51030804E144
:1007A000010E0101596F06011F518008D8A498D08D
:1007B0000101552D07D04EC120F6000193DD010146
:1007C000556B8DD0562D07D043C120F600018ADD30
:1007D0000101566B84D0572D0CD044C120F6000186
:1007E00081DD460E0101446F516B010E506F576B56
:1007F00076D0592D74D09D909D969D9AF29CF29E34
:10080000F2BEFDD7400E000178DD0101476B010EFD
:10081000466F4751000847E3200E00016EDD0101DD
:100820004635026E4735036E02360336FC0E02165D
:1008300002505A0FE96E010E0320EA6EEFCF20F648
:10084000ECCF21F6ECCF22F6ECCF23F6410EE96E89
:1008500023C627F622C626F621C625F620C624F68C
:100860000601286B00012BD647C121F646C120F6B0
:100870000601236B060E226F0001F3D600C052F171
:10088000010103C053F152530AE1535308E14653A7
:1008900002E1475304E02C0E00012FDD0101462B3D
:1008A000D8B4472BB6D7230E000127DD01015151E3
:1008B000000808E2FF0A03E15051000803E2516B0F
:1008C000010E506F596B440E436F43C120F6000177
:1008D00009DD9D809D869D8AC00EF21201010601F0
:1008E0009D809D869D8AC00EF2129E96000136EF75
:1008F00000F00C004155544F52004E4F4D425245AE
:1009000000000C00422F413D2563205469656D7045
:100910006F3D256C6400060EEA6E150EE96EEF5011
:100920000DE0060E016E006A002EFED7012EFBD7E9
:100930007B0E006E002EFED7EF2EF3D7000C0601C3
:100940001C39F00B006E0F0E8C1400108C6E000022
:100950008C80030E006E002EFED78C900001000CE0
:100960008350006E00380F0B016E000C0F0E9514B3
:10097000F009956E8C8400008C800000F1DF01C0CE
:100980001CF68C9000008C8000D000D00000E8DFC6
:1009900001C01BF68C900F0E9514956E06011C3944
:1009A000006EF00E001600501B11016E0001DBEF0F
:1009B00004F08C92DBD701C01BF6060101AE02D019
:1009C0000001F8D78C9219B18C8200008C94000041
:1009D0008C901A391B6F0F0E1B171BC61CF60001DB
:1009E000AEDF06011A510F0B1B6F1C6F0001A7DF52
:1009F000000C0F0E9514956E9590959295948C928F
:100A00008C948C900F0E0601156F000184DF010E8F
:100A100006010B6F0B5103080CE3030E1C6F000162
:100A20008EDF050E0601156F000175DF06010B2B29
:100A3000F1D7020E1C6F000182DF06010B6B0B5118
:100A4000030813E3036A0B51F2CF0CF6F29E000188
:100A500057EC00F006010CBFF28E0C6F196B1A6F89
:100A60000001A7DF06010B2BEAD700014CEF06F0CF
:100A70000601162D01D003D0400E176F01D0176B61
:100A8000010E155D172717518009186F196B1A6F22
:100A900000018FDF000C060114510C0A000105E073
:100AA000060A0FE0020A15E01BD00601196B010EC1
:100AB0001A6F00017EDF020E0601156F00012BDFA9
:100AC00017D0010E0601156F020E166F0001D0DF60
:100AD0000FD00601196B100E1A6F00016ADF08D0E3
:100AE000010E0601196F14C61AF6000162DF00D06C
:100AF000000C0900F5520CE0F6CF0BF6F7CF0CF620
:100B0000F5CF14F6C8DF0BC6F6FF0CC6F7FFF1D71A
:100B1000000C0900F6CF0CF6F7CF0DF6F5CF14F662
:100B2000BADF0CC6F6FF0DC6F7FF06010B2F01D08A
:100B300002D00001EED70001000CEACF13F6E9CF96
:100B400012F606010CAF08D0128F12A9122B0B1F40
:100B50000C1F0B2BD8B40C2B0C39F0090E6F0E2781
:100B6000E20F0F6F320F116F0C510F0B0F270F2772
:100B70001127E90F106F102710270B390F0B1027C3
:100B8000112710371137111F11370B510F0B112778
:100B90000E37070E0D6F0A0E10071127FDE30F0722
:100BA0001027FDE30E070F27FDE30D070E27FDE3DA
:100BB000060EEA6E0D0EE96E070E1215129DE9067D
:100BC000121507E112B9E92A12B903D0200E006EFE
:100BD0001CD0E926110EE95CD8B4128DEF50006EDE
:100BE00008E112BD06D012B91DD012B702D0200EF6
:100BF0000BD012AF06D02D0E006EED50129D129F3D
:100C000004D012871299300E0026EACF0CF6E9CFF5
:100C10000BF600C014F600013EDF0CC6EAFF0BC65F
:100C2000E9FF0601EE5012ADD5D70001000CF86ABD
:100C3000D09E078EEA6AE96AB886080EAF6E020E89
:100C4000B06EA60EAC6E900EAB6E93829380A00E2B
:100C5000C86E360EC66E440E0101436F460E446FD9
:100C6000420E456F496B486B4B6B4A6B4D6B4C6B3F
:100C70004F6B4E6B516B010E506F536B526BC150EB
:100C8000C00B0F09C16E070EB46E030E06010A6F8A
:100C9000000E926E0001ADD69D869D809D8AC00E8D
:100CA000F212B50ECD6EF20EF66E080EF76E21DF63
:100CB000010E0601156F166F0001DADEF40EF66EF6
:100CC000080EF76E16DF010E0601156F020E166F85
:100CD0000001CEDEFA0EF66E080EF76E0ADF040E85
:100CE00006010B6FFA0E156F000115DE06010B2FC2
:100CF000F9D792908990020EF66E090EF76E0001F8
:100D0000F8DE010E0601156F166F0001B1DE040E4C
:100D1000F66E090EF76E040E06010B6F0001F9DE88
:100D200045C114F6B8DE0A0EF66E090EF76E080E0F
:100D300006010B6F0001EDDE100EE96E4BC10CF6E3
:100D40004AC10BF6FADE010E0601156F020E166F90
:100D500000018EDE500E0601146F00019CDE3D0E78
:100D60000601146F000197DE100EE96E4FC10CF6FC
:100D70004EC10BF6E2DE200E0601146F00018BDE81
:100D8000540E0601146F000186DE3D0E0601146F3D
:100D9000000181DE100EE96E4DC10CF64CC10BF660
:100DA000CCDE200E0601146F000175DE430E060135
:100DB000146F000170DE3D0E0601146F00016BDE42
:100DC00043C114F668DE200E0601146F000163DED5
:100DD000620E0601146F00015EDE3D0E0601146F07
:100DE000000159DE44C114F656DE320E0601156FBD
:100DF000000191DD01014551420807E14A5305E137
:100E00004B5303E19294899413D04551420807E172
:100E10004A5302E14B5303E09294898409D045512F
:100E2000410806E1929489844DC14BF14CC14AF1CD
:060E300006015FD703007C
:020000040030CA
:0E00000027CC191E008581000FC00FE00F40B5
:00000001FF
;PIC18F4550
;CRC=7C4D  CREATED="29-mar-16 23:53"
