:04000000BBEF0AF058
:08000800046ED8CF05F0E0CF33
:1000100006F00001E9CF0CF0EACF07F0E1CF08F0DD
:10002000E2CF09F0D9CF0AF0DACF0BF0F3CF12F01C
:10003000F4CF13F0FACF14F000C00EF001C00FF0AF
:1000400002C010F003C011F09DAA2AEF00F09EBA82
:100050009FEF09F00EC000F00FC001F010C002F0D9
:1000600011C003F00CC0E9FF07C0EAFF078E08C00B
:10007000E1FF09C0E2FF0AC0D9FF0BC0DAFF12C0DE
:10008000F3FF13C0F4FF14C0FAFF045006C0E0FFF2
:1000900005C0D8FF1000F2CF0DF0F29EF76AB00F46
:1000A000F66E000EF7220900F5500DBEF28E12001A
:1000B000280C0106F2CF0DF0F29ECC0FF66E000E6A
:1000C000F7220900F5500DBEF28E12006C79786EA1
:1000D00077838785838C8D7E7B858B837A7C838EEB
:1000E00094918A8D8C918A7B7A85857B7D7B7675D0
:1000F000818B8687898E938B8987837D7E7E837FA4
:100100007372737268606B6E6F6966747871737CFA
:100110006E64666F7266666E6B625A575855676595
:10012000635D594636000A0030E5C4D34B00180021
:100130005DFEF7FA72200016738D906A4E2019103A
:10014000072A6A566137432F4B38110A003B4A8F02
:100150009E9DAB8BEC8C46100011496C274C1643CE
:100160008042395160797B64817C4C5C8CFEFED38B
:10017000570B0007001DF7D3F0C12D0000172CB757
:10018000FED0AE22010041C2C6FEF6FEFBFEFDFE21
:10019000FDFEFBFE5A2E0C000700040002000001C9
:1001A0000006005FF1F6FEFAFEFAFEFAFEF8FEF433
:1001B000FEAF000700030002000200061388A82516
:1001C000070003000300030026C0F2FEFCFEFCFE55
:1001D000FBFEF8FEF2FE9E0008000101020D001C6D
:1001E0000A80FEFDE7070001000200040005000A86
:1001F000007DFEF4FEF9FEFAFEF9FEF8FEE40F00C3
:10020000050006000D00120078FEFBFBFEC6000490
:1002100000010000020003006BF4FEFCFEFCFEFA8D
:10022000FEF8FEF1FE7100080001020B1AF0FEF963
:10023000FEF8FEF2FE65000C0008000B009AFEF5C9
:10024000FEFAFEFCFEFEFEFEFEFEFDFEE2150000D6
:100250000200060041FEF9FEFAFEF8FE4300060029
:10026000010100070042FEF7FEFBFEFCFEFBFEFA6A
:10027000FEF6FEE594290002030025F9FDFEFEFDD1
:10028000FEFDFEF82400060003000204D8FEFBFE7B
:10029000FCFEFDFEFEFDFEFCFEF9FED903000100A2
:1002A0000400CFFEF9FEFEFCFEF5FE69000D00081D
:1002B000000800C7FEF6FEFAFEFCFEFDFEFEFDFE97
:1002C000FBFEE50C0003000600D0FEFAFEFEFAFE7F
:1002D000F3FE97000A0004000203DAFEF8FEFAFEBD
:1002E000FBFEFBFEFBFEFAFEF5FE55000E000E00C7
:1002F000B2FEF8FEFEFAFEF2FE97000800000300D0
:1003000026FBFEFEFEFDFEFCFEFCFEFBFEF9FEF4FF
:10031000FE5F0010001100A9FEF7FEFDFEFEFBFED1
:10032000E60C000200000200C2FEF4FEF8FEF9FE38
:10033000FAFEF9FEF8FEF2FE5C000900010DF0FE87
:10034000FEFCFEFBFEF7FED7070006000D006BFE6D
:10035000F5FEFBFEFDFEFAFEFEFEFDFEFCFEF8FED7
:10036000560009000429E4FEFEFDFEF9FEF1FE81BF
:100370000008000005003BFEF8FEFCFEFDFEFDFE51
:10038000FCFEFBFEF7FEBE0009000C0079FEF0FE4D
:10039000F5FEF6FEF5FED501010003000800A7FEFC
:1003A000EDFEF7FEFDE5EFFEF6FEF6FEF1FE760051
:1003B0000F000D00A3FEF2FEF6FEF6FEF3FEC200F5
:1003C000050003000400080053FEF4FEFB63ABF9D4
:1003D000F4FEF2FEEEFEB1000004000A003CFEE274
:1003E000FBFEF9FEF5FED403000200030004000644
:1003F00000CFFEF7FE4D005DFEF8FEF9FEF4FE5E56
:10040000000A00010300A5FEF6FEFEFCFEF4AE7B32
:100410000007000006001200BB67ACFEF6DE00001D
:10042000A6FEEDFEF2FEEFFE5B000900040042BBFB
:10043000FEFCFDFEF9FEF6BF84000006000E001A69
:1004400000B8B283FEEAE1080075FEEFFEF4FEF2AA
:10045000FEB500080005001F75F3FEF8FEF8FEFA71
:10046000F0A10A00090008001F001AC263EEFEE2B4
:10047000160000ACFEEBFEF0FEEEFE72000F000F69
:100480000057FEF6FEF9FEF8FEF3FE6300060000DC
:100490000700100045AEB3FEB76C04003AFEFEFC48
:1004A000FEF8FEF1FE5F000B000800D1FEF8FEFB37
:1004B000FEFBFEFAFE30000800050008000A00B14D
:1004C000FEFDDB00100061FEF9FEFEFBFEF6FED92C
:1004D0000D000A00174548FEFAFEFEFDFEFBFE2E4B
:1004E000000800070008000D0058FBFE97000D00F3
:1004F0000CDAFEF8FEFCFDFEF5FE76000800005C5E
:10050000132B74D7FEEBFEEAFE7F000A0005000401
:1005100000040003BEFEBF08000C006BFEF5FEF8F1
:10052000FEF8FEF3FEC2000201000400070029FDF0
:10053000FBFEF7FE57000D00070005000300020058
:100540000A00040005001ED6FEFAFEF9FEF7FEF1D1
:10055000FEAC000800040004000600CAFEFEE00134
:1005600006006CFE96000700111D0003000100014B
:1005700000000000000001000100010028D9FEFE7B
:10058000F9FEBD41ADFEF5FEB20008006C84090025
:100590000001000100000000000000000000000059
:1005A0000000000000000000000000010002003315
:1005B000AFF1FEF6FEB5B5FEFEF7FEB8000600038D
:1005C000000200020002000200030009D7FEA50A93
:1005D000000300020001000000000100030005000C
:1005E0005EFEF5FEF7FEF3FE9F001000340E0001E4
:1005F00000001AFEB8002FACFEEC19000600040043
:1006000003000200020002000200030004000A00CE
:1006100088FEEFFEF3FEEEFE7F000A0004000100FC
:10062000000DEBFEFEFBF3F7FEC800050002000024
:10063000000001000100010002000400090080FE2A
:10064000F3FEF9FEFCFEFD2B000700020000070090
:1006500087FEEEFEF3FEF2FEC4000200000100027F
:100660000002000300050008001E002EFEF7FEF940
:10067000FEF7FEF1FE91000B00050004000600CC21
:10068000FEEDFEF6FEF7FEA92B00090E00020002A9
:10069000000200063F0700030002000036CDFEFD09
:1006A000FEFEFDFEFDFEF113000003000600169E97
:1006B0005C91B0D478EC522D313A9E5A38000A0041
:1006C0000500030001000000000000000000000021
:1006D00000000000000000010001000100052523CA
:1006E0002E0E0002000100010001000000000000C9
:1006F00000000000000000000000000000000000FA
:1007000000000000000000000000000000000000E9
:1007100000000000000000000000000000000000D9
:1007200000000000000000000000000000000000C9
:1007300000000000000000000000000000000000B9
:1007400000000000000000000000000000000000A9
:100750000000000000000000000000000000000099
:100760000000000000000000000000000000000089
:100770000000000000000000000000000000000079
:100780000000000000000000000000000000000069
:100790000000000000000000000000000000000059
:1007A0000000000000000000000000000000000049
:1007B0000000000000000000000000000000000039
:1007C0000000000000000000000000000000000029
:1007D0000000000000000000000000000000000019
:1007E0000000000000000000000000000000000009
:1007F00000000000000000000000000000000000F9
:1008000000000000000000000000000000000000E8
:1008100000000000000000000000000000000000D8
:1008200000000000000000000000000000000000C8
:1008300000000000000000000000000000000000B8
:1008400000000000000000000000000000000000A8
:100850000000000000000000000000000000000098
:100860000000000000000000000000000000000088
:10087000000001000206000100000000000000006E
:100880000000000000000000000000000000000068
:100890000000000000000000000000000000000058
:1008A0000000000000000000000000000000000048
:1008B0000000000000000000000000000000000038
:1008C0000000000000000000000000000000000028
:1008D0000000000000000000000000000000000018
:1008E0000000000000000000000000000000000008
:1008F00000000000000000000000000000000000F8
:1009000000000000000000000000000000000000E7
:1009100000000000000000000000000000000000D7
:1009200000000000000000000000000002140400AD
:1009300001000100000000000000000000000000B5
:1009400000000000000000000000000000000000A7
:1009500000000100010002071C1F0105000000004B
:100960000000000000000000000000000000010086
:100970000100020003000500265B2D09000D3F3B2E
:100980000B001B3A290300000000000000000000DB
:100990000000000000000000000000000000000057
:1009A0000000000000000000000001091008000124
:1009B00000050100000000020C010401000000001D
:1009C0000000000000000000000000000000000027
:1009D00000000100070E00000000000000010001FF
:1009E000000A0C0B2A3822222A090300000000000A
:1009F00000000000000000000000000000051925B4
:100A00003033262C301A0C000300030004000405C8
:100A1000224D21364868284C193747004B683C0066
:100A2000291B1C452147000C445F3F116700625E93
:100A300068773703000700284F6A5B5F7A51987721
:100A4000235F607E696251868882607B935413774E
:100A500068ACA685C6B6FEF5FEFEF7FE56B976086A
:100A60001E000A00050001010006001E5E6688CF18
:100A7000FEEFFEF4FEF7FEF93AB427000F000B007C
:100A800008000FE6FEF7FDFED02209000200000478
:100A9000001C3EADFEEFFEEEFEE3FE4F6472001161
:100AA00000020C5F00DAFEF9FEFAFEF8FE340009DF
:100AB0000008000B004BFEF3FEF5FEF3FEEDFE9783
:100AC000009D0006000E00A175BDFEEBFEF6FEFEC9
:100AD000D90006000101000800B8FEF8FEFEFBFE8A
:100AE000F6FEEDFE930555000C000B00C3EADFFE99
:100AF000F1FEF6FEEC38000C00090008001DF1FEC6
:100B0000FEFCFEF8FEF2FEE5FE4344AA00021205DA
:100B10002ADF7AFEFAFDFEF6FE3C00040000040027
:100B20000A0048FEF8FEFCFEFCFEFAFEF7F6009016
:100B3000810000232021E6A6FEEBFEEEFEAE0009BA
:100B400000060006000B00B0FEF5FEFEFBFEF7FE01
:100B5000F1FEB600F427000084056EE6B6FEDBFE6B
:100B6000D9FE2F8ACC0013000C000A03FE9B81FEE5
:100B7000F3FEFEF6FEE7FE4258D400090C5400DAFC
:100B8000BFF0FEF9FEFEED23FE5400050000090053
:100B900063FE4DE8FEF8FEFBFEFEFAFE00BE7A00A4
:100BA0001100002CFABEFEE8FEE3FE8368FE000E94
:100BB000000E001400D6CF60FEF3FEFEF9FEEFFE3D
:100BC000A10BF41001000B008BF6D1FEEBFEEBFE47
:100BD00048F58A000F0007000215FE51BFFEF5FE22
:100BE000FEF8FEEAFE6639C40017001300BBDAE81F
:100BF000FEF6FEFCF796FE36000004000A0045FEF5
:100C000056F8FEFEFBFEF6FEE9FE3468B70017005C
:100C10000D00DDCEF6FEF9FEFBFEE7FE1A00000831
:100C20000011004EDF63FEF2FEF5FEF1FEE6FE333C
:100C300067CC0013000900D594F1FEF6FEF6FEF530
:100C4000FE1C000006000C00259A6CFEF0FEF4FE6F
:100C5000F1FEE7FE6858F90011000F00ADFEF2FE4C
:100C6000F6FEF6FEF2FE46000600000200072048EF
:100C7000FEF4FEF5FEF1FEE6FE6A56FA0010000FE5
:100C800000AEFEEBFEF4FEF5FEF2FE4D00080002A3
:100C9000000005008BFEEDFEF0FEEEFEE5FE935C2F
:100CA000F6000D000D0096FEF1FEF6FEF6FEF3FED8
:100CB00061000D000900090018E7FEF6FEF8FEF9D4
:100CC000FEFBFEF82BF54B0005040051F78BFEEE02
:100CD000FEF4FEF5FED20001000003000A009FFEB4
:100CE000F5FEFDFCFEF6FEEAFE5FAAEA001800191A
:100CF00000DB889CFEE7FEEFFEEFFE53000A0005D6
:100D00000002000FFE7692FEEBFEF8FEFEF2FE58A9
:100D1000DDA00015000A03FE40BCFEEEFEF2FEF070
:100D2000FE4D0009000300000305FE5982FEEDFEA2
:100D3000FCFAFEEBFE88A2D40015000F00F84E92DC
:100D4000FEE4FEEAFEE7FE7A000F03000B00170048
:100D5000B1C31AFEF7FEFEFCFEFBFEF34DFE46009D
:100D6000000C0087AC1AFEE8FEF4FEFBFDFE272413
:100D70001F000600000A00C83567FEE7FEF3FEF814
:100D8000FEFAFEA0FE1F00000F0067A70FFEF0FE98
:100D9000FAFDFEF3FE306C2E000600000C003C76DF
:100DA00030FEEFFEF6FEF6FEF0FE88F3A200120023
:100DB0000A00D40580FEE7FEEAFEE3FE89594B00F7
:100DC0000F00080005000600CCFEF6FEF9FEF8FE56
:100DD000F4FE92FE60000700001EA400D2FEF6FEA4
:100DE000F6FEF1FE56010D00040000030009004468
:100DF0000C6EFEF1FEFCFDFEF5FECFFCAC000E001D
:100E00000B0099047EFEE7FEECFEE9FE960315005A
:100E100002000001000200074E00ADFEF7FEFEFBDF
:100E2000FEF2FEC0CDE20011001300902D27FEE877
:100E3000FEECFEE8FE97114C0009000300010000E3
:100E400000270E00BEFEFAFEFEFCFEF9FEEFFEBC21
:100E5000000C000A002E003EFEF3FEF5FEF1FE6CD3
:100E6000000A0004000100000100001A070015FE3E
:100E700095B8FEEFFEFAFDFE8EF58B00140009001A
:100E800003010075FEF2FEF6FEE215000400030009
:100E900003000300030003000300020007CDFEF877
:100EA000FEFEFBFE65FEA8000F0006000004002504
:100EB000C5F0FEFEF7FE2B107100080003000100D4
:100EC0000001000300050008069AFEFEF6FEE8FE9B
:100ED000908CF50009000200000002009AEEF4DB9D
:100EE000F4FEF01D0B17000A0006000500030003C6
:100EF0000002000200020014D0FEFDFEFEFDFEF026
:100F0000E0FE3C00090005000500050092FEB4E883
:100F1000FE9D45401200000000000000000000009F
:100F2000010003000700A7FEF5FEF9FEFBFEFBFE35
:100F3000F8FE430008000300000100030015062925
:100F4000A6200003000200020002000200020002CC
:100F5000000200010000020095C0F7FEF8FEF8FE56
:100F6000F6FEAC8C46000600020001000001000104
:100F700000050F000100000000000000010001005A
:100F80000200020003000300022C171E06321A8C16
:100F9000DEFEFEFBFEEDFE4C061700040002000123
:100FA000000100010000000000000000000000003F
:100FB0000000000100010001000200020001000029
:100FC000314C47521A0A9B577982D6E48C638B9234
:100FD00035290607000300020001000000000000A0
:100FE0000000000000000000000000000000000001
:100FF0000000000200230E0F2211090824665A8304
:1010000046916A39080D2E186A3E000005134F08F4
:10101000000B5B101F562100103E08000400070162
:101020000200040031401C1B0002000206002F5287
:101030002C000005460C4065371E56593F1D455B88
:10104000144C0B2D001E5A1E0044725380541C1C5D
:101050005E150023203D1339001627150B0B432383
:10106000836A73565B3C504A4F6C55160D16000749
:10107000004C35382B22436350594950532D394F7A
:101080002B235D4F04547D5C4879465F2B2D5231F4
:101090002D357D6995508D254D5E5351556C3834F5
:1010A000043667584147547D62797237685F44322D
:1010B000286B3423262C5C104787664F723F4E887E
:1010C0005C4A4F62814825415E5035636C8A69767F
:1010D0006183748A577B78635C553B6041379D4FD1
:1010E0008759684E4D4F474D0C09225F101154230C
:1010F0003E7C6A495B521C232C3F7F415E8D589396
:101100005C78785E70416D7660776D1550631E6017
:101110004957154F565F716E876B846769675275C3
:10112000705D5545535B4A4184836A544B3F3C5242
:1011300055638E4B746872657A2F5634567F71886A
:10114000626A5B757A83657B6749926F2D63602461
:10115000341628344C716C7E52916A7A323A4F3D83
:1011600043047977406F52666970816F625D974A78
:101170002549846C626630876A69786F99803D651D
:1011800035316E6C6B766C5576575C807D6B456443
:101190004272995C6F61374565746D826B4A57592D
:1011A000887661817277794C44386956817A7F817B
:1011B0006D846878636FAE5B5B9A6D6F8374637CDC
:1011C0006E677B7F6F6D7E65546A633A997159676C
:1011D0007762528E66757284547F82677166655A33
:1011E000475B706F7B5E5D77826CA0757C7252830B
:1011F0007B846F756D6758746F718F705D802D483B
:101200007A646C736F6FA2844E9491984A7C2649DD
:10121000546180676B5B617D997896906F5D938A6E
:101220003D375F5047347E74444E10565C786D688D
:101230009D5F7A4B774C6C7B657164625F586A8BFB
:101240008B43768E638B67507A8F555D656A7F61BD
:101250005F505B676C666A6A60739C607B84627DCA
:101260004C76735666628388817D736C6F3F446EE3
:10127000323E896372497D4E5860508A51776D6461
:1012800041605758648D8E568544647A7A555B79EF
:10129000714B4E5E7D7962826461391D3A72777559
:1012A000817075597375715E75666769466A1D5FF1
:1012B00006395E544E628D6B83597C5B542B82677A
:1012C0007494596E994E6761348B4F72527C82537D
:1012D000481D945D4F6E48A0697C9074456185619E
:1012E0005866585A46745C724B7187586674887099
:1012F000477A6861544E5D6E6D5F6D847985805963
:101300008B777764748C1E3F0B5865814E36945CE6
:101310005E5CA54B827A6D6E845F51787D708443EC
:101320007366586F7D76698D56836F5654857985BF
:1013300068486356834C5778A77776716C00939E04
:101340008A8E010E196E9EAAFED7AECF18F01850E5
:10135000400806E1010E1C6E640E1A6E18C01DF0E6
:101360001C2C18D0010E1B6E1B501A5C13E39EAA96
:10137000FED7AECF18F0036A1B501D0FE96E000EAA
:101380000320EA6E18C0EFFF1850230801E11A6A23
:101390001B2AEAD71C6A9E9A2AEF00F04155544F47
:1013A00052004A41494D45204449415A0000446198
:1013B000746F20526563696269646F200000EA6A95
:1013C000840EE96EEF500DE0060E016E006A002EED
:1013D000FED7012EFBD77B0E006E002EFED7EF2E20
:1013E000F3D7000C8B39F00B006E0F0E8C1400102D
:1013F0008C6E00008C80030E006E002EFED78C9049
:10140000000C8350006E00380F0B016E000C0F0EA5
:101410009514F009956E8C8400008C800000F1DF3B
:1014200001C08BF08C9000008C8000D000D00000B8
:10143000E8DF01C08AF08C900F0E9514956E8B3901
:10144000006EF00E001600508A11016E2AEF0AF0AD
:101450008C92DDD701C08AF001BEFBD78C9288B197
:101460008C8200008C9400008C9089398A6F0F0E5A
:101470008A178AC08BF0B6DF89510F0B8A6F8B6F8A
:10148000B1DF000C0F0E9514956E95909592959482
:101490008C928C948C900F0E846F91DF010E816F73
:1014A0008151030808E3030E8B6F9CDF050E846FE8
:1014B00086DF812BF5D7020E8B6F94DF816B815114
:1014C00003080FE3036A8151F2CF82F0F29E4BECE6
:1014D00000F082BFF28E826F886B896FB9DF812B3B
:1014E000EED73AEF0BF0852D01D003D0400E866F7A
:1014F00001D0866B010E845D862786518009876F37
:10150000886B896FA5DF000C83510C0A05E0060A81
:101510000BE0020A0FE013D0886B010E896F98DF91
:10152000020E846F4CDF11D0010E846F020E856FA6
:10153000DADF0BD0886B100E896F8ADF06D0010EC0
:10154000886F83C089F084DF00D0000C0900F55259
:101550000CE0F6CF81F0F7CF82F0F5CF83F0D4DF47
:1015600081C0F6FF82C0F7FFF1D7000C9EA8FED71E
:10157000AD6E8BEF0BF0F86AD09E078EEA6AE96ACF
:10158000B886080EAF6E020EB06EA60EAC6E900E50
:10159000AB6E196A1A6A1B6A1C6AC150C00B0F092C
:1015A000C16E070EB46E1D6A1E6A1F6A206A216A28
:1015B000226A236A246A256A266A276A286A296AAF
:1015C0002A6A2B6A2C6A2D6A2E6A2F6A306A316A5F
:1015D000326A336A346A356A366A376A386A396A0F
:1015E0003A6A3B6A3C6A3D6A3E6A3F6A406A416ABF
:1015F000426A436A446A456A466A476A486A496A6F
:101600004A6A4B6A4C6A4D6A4E6A4F6A506A516A1E
:10161000526A536A546A556A566A576A586A596ACE
:101620005A6A5B6A5C6A5D6A5E6A5F6A606B616B7C
:10163000626B636B646B656B666B676B686B696B26
:101640006A6B6B6B6C6B6D6B6E6B6F6B706B716BD6
:10165000726B736B746B756B766B776B786B796B86
:101660007A6B7B6B7C6B7D6B7E6B7F6B806BFF0E15
:10167000936E08D79C0EF66E130EF76E67DF010EA1
:10168000846F020E856F2FDFA20EF66E130EF76EBB
:101690005DDF040E816FFA0E846F91DE812FFBD720
:1016A0000C0E836F31DF9D8AC00EF21294948B94DE
:1016B000969C0C0EBD6EB76AB66A000E0409CA6E1F
:1016C000FF0ECB6E192C41D0939E8A9E1D50400870
:1016D0003BE1640E1A6E0C0E836F16DF010E846FF1
:1016E000856F01DFAE0EF66E130EF76E2FDF010E63
:1016F000846F020E856FF7DE1B6A1B501A5C24E3B1
:10170000036A1B501D0FE96E000E0320EA6EEFCF37
:1017100081F081512BD7036A1B501D0FE96E000E1B
:101720000320EA6EEFCF81F081C083F0EDDE036A23
:101730001B501D0FE96E000E0320EA6EEF502308C8
:1017400001E11A6A1B2AD9D7196A1E50650832E1CD
:10175000176A166A175012081AE303E11650700848
:1017600016E317C003F01650F2CF81F0F29E17C0B7
:10177000F7FF5AEC00F081BFF28EBE6ED80E006EFD
:10178000002EFED70000162AD8B4172AE3D7BE6A67
:10179000939E8A8E020E816FFA0E846F10DE812F67
:1017A000FBD7939E8A9E020E816FFA0E846F07DE2E
:0A17B000812FFBD7BE6A86D7030025
:020000040030CA
:0E00000027CC3E1E008781000FC00FE00F408E
:00000001FF
;PIC18F4550
;CRC=792A  CREATED="19-oct-15 22:52"
