:020000040000FA
:100000003EEF01F0F76A140FF66E000EF7220900BA
:10001000F5501200280C0106F76A280FF66E000E44
:10002000F7220900F55012000909206D696775650E
:100030006C20706572657A200A00F76A4A0FF66EC6
:10004000000EF7220900F550120020636F6E7472E3
:100050006F6C61646F7220256C752000EA6A120E65
:10006000E96EEF500EE0010E016E006A002EFED721
:10007000012EFBD74A0E006E002EFED700D0EF2EC9
:10008000F2D7000C1938F00B006E0F0E831400101D
:10009000836E0000838000D08390000CF00E956E7C
:1000A000838400008380000083380F0B196E8390D7
:1000B00000008380000083380F0B186E8390000EC1
:1000C000956E1938006EF00E001600501810016E73
:1000D0006CEF00F08392E2D701C018F001BEFBD7AD
:1000E00016A0839216B08382000083940000839050
:1000F0001738186E0F0E181618C019F0C3DF1750F6
:100100000F0B186E196EBEDF000C000E956E8392F9
:10011000839483900F0E126EA1DF010E076E0750BD
:10012000030808E3030E196EADDF050E126E96DFAD
:10013000072AF5D7020E196EA5DF076A07500308D4
:100140000EE3036A0750F2CF08F0F29E5BDF08BEB1
:10015000F28E096E166A176EBDDF072AEFD74BEFD6
:1001600001F0132C01D003D0400E146E01D0146A9C
:10017000010E125C142614508009156E166A176E53
:10018000A9DF000C11500C0A05E0060A0BE0020A78
:100190000FE013D0166A010E176E9CDF020E126E6E
:1001A0005DDF11D0010E126E020E136EDADF0BD07E
:1001B000166A100E176E8EDF06D0010E166E11C075
:1001C00017F088DF00D0000CEACF10F0E9CF0FF075
:1001D0000938F0090B6E0B26E20F0C6E320F0E6E13
:1001E00009500F0B0C260C260E26E90F0D6E0D265E
:1001F0000D2608380F0B0D260E260D360E360E1E58
:100200000E3608500F0B0E260B36070E0A6E0A0E1E
:100210000D060E26FDE30C060D26FDE30B060C264F
:10022000FDE30A060B26FDE3EA6A0A0EE96E070EF5
:100230000F140F9CE9260E0EE95CD8B40F8CEF501A
:10024000006E08E10FBC06D00FB813D00FB602D075
:10025000200E03D00F860F98300E0026EACF09F04B
:10026000E9CF08F000C011F08DDF09C0EAFF08C037
:10027000E9FFEE500FACDFD771EF01F0F86AD09EC6
:10028000EA6AE96AC150C00B0F09C16E070EB46E6D
:10029000056A066A3AD7076A0750BEDE000904E01D
:1002A000072A116E6FDFF8D7040E076EFA0E126E72
:1002B000D5DE072EFBD7066A056A0650030820E341
:1002C000076A0750BADE072A006E116E5BDF0D0E5B
:1002D000075CF7E1100EE96E06C009F005C008F0F2
:1002E00073D7200E116E4EDF010E126E020E136ECA
:1002F00038DF640E126EB2DE052AD8B4062ADDD7C6
:04030000DAD7030045
:020000040030CA
:0E000000200C1F1F008181000FC00FE00F4079
:00000001FF
;PIC18F4550
