:04000000B3EF01F069
:08000800046ED8CF05F0E0CF33
:1000100006F00001E9CF0CF0EACF07F0E1CF08F0DD
:10002000E2CF09F0D9CF0AF0DACF0BF0F3CF12F01C
:10003000F4CF13F0FACF14F000C00EF001C00FF0AF
:1000400002C010F003C011F09DA62AEF00F09EB68A
:1000500066EF00F00EC000F00FC001F010C002F01B
:1000600011C003F00CC0E9FF07C0EAFF078E08C00B
:10007000E1FF09C0E2FF0AC0D9FF0BC0DAFF12C0DE
:10008000F3FF13C0F4FF14C0FAFF045006C0E0FFF2
:1000900005C0D8FF1000F2CF0DF0F29EF76AB00F46
:1000A000F66E000EF7220900F5500DBEF28E12001A
:1000B000280C0106C95029C0C9FFC6889E96C7B042
:1000C000FED7016AC6B8012A84EF00F0C7BA03D090
:1000D0001A6AC7B41A8E1A501A2A286E28507F0836
:1000E0000BE3C69C9EA6FED7C950C688276E275034
:1000F000050802E1010E166E2850800806E1162C54
:1001000004D017C029F0D6D7166A9E962AEF00F0C1
:100110000C004155544F52004A55414E00000C000E
:100120004461746F206573203D00EA6A1E0EE96E1B
:10013000EF500DE0060E016E006A002EFED7012E74
:10014000FBD77B0E006E002EFED7EF2EF3D7000CF0
:100150002538F00B006E0F0E8C1400108C6E000012
:100160008C80030E006E002EFED78C90000C835006
:10017000006E00380F0B016E000C0F0E9514F00985
:10018000956E8C8400008C800000F1DF01C025F0AA
:100190008C9000008C8000D000D00000E8DF01C00F
:1001A00024F08C900F0E9514956E2538006EF00E8D
:1001B000001600502410016EE0EF00F08C92DDD7A5
:1001C00001C024F001BEFBD78C9222B08C820000CB
:1001D0008C9400008C902338246E0F0E241624C0BB
:1001E00025F0B6DF23500F0B246E256EB1DF000C17
:1001F0000F0E9514956E9590959295948C928C9483
:100200008C900F0E1E6E91DF010E1B6E1B500308AB
:1002100008E3030E256E9CDF050E1E6E86DF1B2A8B
:10022000F5D7020E256E94DF1B6A1B5003080EE300
:10023000036A1B50F2CF1CF0F29E2DDF1CBEF28E23
:100240001C6E226A236EBADF1B2AEFD7CDEF01F0B6
:100250001F2C01D003D0400E206E01D0206A010E69
:100260001E5C202620508009216E226A236EA6DFA4
:10027000000C1D500C0A05E0060A0BE0020A0FE014
:1002800013D0226A010E236E99DF020E1E6E4DDF1F
:1002900011D0010E1E6E020E1F6EDADF0BD0226A25
:1002A000100E236E8BDF06D0010E226E1DC023F0D0
:1002B00085DF00D0000C0900F5520CE0F6CF1BF0F2
:1002C000F7CF1CF0F5CF1DF0D4DF1BC0F6FF1CC02C
:1002D000F7FFF1D7000C1E50016A1D5C03E21DC040
:1002E00000F00CD0006A080E1F6E1D3600361E503E
:1002F000005CD8B0006E01361F2EF7D7000C0150FD
:100300001BC01DF0640E1E6EE6DF00C01BF0015026
:10031000300E07E11CA20CD01CB60AD01CB8200E6F
:1003200003D01C961C981C80012601C01DF0A1DF83
:100330001BC01DF00A0E1E6ECEDF00C01BF0015068
:10034000300E06E11CB608D01CA006D01CB8200E4A
:10035000012601C01DF08DDF300E1B261BC01DF0D5
:1003600088DF20EF02F0F86AD09E078EEA6AE96A19
:1003700093829380B00EC86E360EC66E166AC15058
:10038000C00B0F09C16E070EB46E030E1A6EFF0E7E
:10039000936EC00EF2129D862BD7100EF66E010ED4
:1003A000F76E89DF010E1E6E1F6E52DF120EF66EA3
:1003B000010EF76E80DF010E1E6E020E1F6E48DF0B
:1003C000180EF66E010EF76E76DF040E1B6EFA0E37
:1003D0001E6EABDE1B2EFBD7C150C00B0E09C16ECB
:1003E000C080C082C084C09EC280000E016EC25018
:1003F000C30B0110C26E100E006E002EFED700005F
:10040000C282C2B2FED7C4CF17F0010E1E6E8DDEBF
:100410001E0EF66E010EF76E4EDF010E1E6E1F6E83
:1004200017DF200EF66E010EF76E45DF010E1E6E11
:10043000020E1F6E0DDF17C01BF01B0E1C6E5FD768
:0A0440000A0E1E6E72DEDCD7030008
:020000040030CA
:0E00000027CC191E008581000FC00FE00F40B5
:00000001FF
;PIC18F4550
;CRC=CCE6  CREATED="22-oct-15 09:01"
