:10000000A1EF01F0F76A140FF66E000EF722090057
:10001000F5501200280C01060C004155544F5200B7
:100020004A55414E00000C004461746F20657320F6
:100030003D00EA6A080EE96EEF500DE0060E016E13
:10004000006A002EFED7012EFBD77B0E006E002E1D
:10005000FED7EF2EF3D7000C0F38F00B006E0F0E0B
:100060008C1400108C6E00008C80030E006E002E2D
:10007000FED78C90000C8350006E00380F0B016E81
:10008000000C0F0E9514F009956E8C8400008C8086
:100090000000F1DF01C00FF08C9000008C8000D0D8
:1000A00000D00000E8DF01C00EF08C900F0E951418
:1000B000956E0F38006EF00E001600500E10016E97
:1000C00064EF00F08C92DDD701C00EF001BEFBD7CB
:1000D0008C920CB08C8200008C9400008C900D38B7
:1000E0000E6E0F0E0E160EC00FF0B6DF0D500F0B7A
:1000F0000E6E0F6EB1DF000C0F0E9514956E95907D
:10010000959295948C928C948C900F0E086E91DF42
:10011000010E056E0550030808E3030E0F6E9CDF09
:10012000050E086E86DF052AF5D7020E0F6E94DFE6
:10013000056A055003080EE3036A0550F2CF06F086
:10014000F29E60DF06BEF28E066E0C6A0D6EBADF9E
:10015000052AEFD7B0EF01F0092C01D003D0400EF3
:100160000A6E01D00A6A010E085C0A260A5080094C
:100170000B6E0C6A0D6EA6DF000C07500C0A05E032
:10018000060A0BE0020A0FE013D00C6A010E0D6E96
:1001900099DF020E086E4DDF11D0010E086E020EBF
:1001A000096EDADF0BD00C6A100E0D6E8BDF06D0F5
:1001B000010E0C6E07C00DF085DF00D0000C0900A9
:1001C000F5520CE0F6CF05F0F7CF06F0F5CF07F0CB
:1001D000D4DF05C0F6FF06C0F7FFF1D7000C080E0C
:1001E000016E050E006E002EFED78A929392060EC7
:1001F000006E002EFED705368A90D8B09380D8A026
:100200009390938281A2FED7012EEBD7050E006E4C
:10021000002EFED78A92939200009380060E006E05
:10022000002EFED7060E006E002EFED7938281A20E
:10023000FED7016A060E006E002EFED781B0018047
:100240008A9293928A909390000C080E066E00C0DA
:1002500007F09380060E006E002EFED7938281A2D7
:10026000FED781B0D88081A0D8900136050E006EEF
:10027000002EFED793928A92062EEBD79380060E1D
:10028000006E002EFED78A900750D8A493900000ED
:10029000938281A2FED7050E006E002EFED78A92B1
:1002A0009392060E006E002EFED78A90939003EF75
:1002B00002F00850016A075C03E207C000F00CD0AE
:1002C000006A080E096E073600360850005CD8B088
:1002D000006E0136092EF7D7000C015005C007F05B
:1002E000640E086EE6DF00C005F00150300E07E135
:1002F00006A20CD006B60AD006B8200E03D0069689
:1003000006980680012601C007F037DF05C007F018
:100310000A0E086ECEDF00C005F00150300E06E177
:1003200006B608D006A006D006B8200E012601C0E9
:1003300007F023DF300E052605C007F01EDF3CEF77
:1003400002F0F86AD09EEA6AE96A0C0E046EC150A7
:10035000C00B0F09C16E070EB46E0F0E926ECCD695
:10036000180EF66E000EF76E2ADF010E086E096E8B
:10037000F3DE1A0EF66E000EF76E21DF010E086E28
:10038000020E096EE9DE200EF66E000EF76E17DF24
:10039000040E056EFA0E086E4CDE052EFBD7928019
:1003A00080A050D09380050E006E002EFED7938261
:1003B000060E006E002EFED78A909390050E006EFA
:1003C000002EFED78A929392B00E056E08DF050EBE
:1003D000056E05DF9380050E006E002EFED793821A
:1003E000060E006E002EFED781A2FED78A90939053
:1003F000050E006E002EFED78A929392B10E056E06
:10040000EEDE006A22D701C004F0939000009382D0
:1004100081A2FED7050E006E002EFED700D0000090
:100420009380050E006E002EFED7929A898A040EE4
:10043000056EFA0E086EFDDD052EFBD7928080A0BA
:1004400001D0FCD7929A899A260EF66E000EF76EAE
:10045000B6DE010E086E096E7FDE280EF66E000E07
:10046000F76EADDE010E086E020E096E75DE04C079
:1004700005F01B0E066E31D70A0E086EDADD8FD737
:02048000030077
:020000040030CA
:0E00000027CC191E008581000FC00FE00F40B5
:00000001FF
;PIC18F4550
;CRC=46ED  CREATED="22-oct-15 09:01"
