:1000000015EF00F0EA6A130EE96EEF500DE0060EF0
:10001000016E006A002EFED7012EFBD77B0E006E0C
:10002000002EFED7EF2EF3D7000CF86AD09EEA6AB6
:10003000E96A0E6A0F6A106A116AC150C00B0F0993
:10004000C16E070EB46EC00E046EF90E056EA40EDE
:10005000066EB00E076E990E086E920E096E820E35
:100060000A6EF80E0B6E800E0C6E980E0D6EFF0E63
:10007000936E000E956EFF0E926E958483A40CD045
:10008000105204E1116A010E106E02D0116A106A5A
:10009000958483A401D0FCD7958683A60CD01152F9
:1000A00004E1010E116E106A02D0116A106A958681
:1000B00083A601D0FCD7112C0BD00F2A0F500A08B1
:1000C00002E10F6A0E2A0E500A0801E10E6A0ED0F4
:1000D000102C0CD00F060F50FF0803E1090E0F6E15
:1000E0000E060E50FF0802E1090E0E6E126A125043
:1000F000770828E392908980036A0F50040FE96E15
:10010000000E0320EA6EEFCF13F0936A13C08AFF4C
:10011000010E136E77DF9290899092928982036A22
:100120000E50040FE96E000E0320EA6EEFCF13F0BD
:10013000936A13C08AFF010E136E64DF9292899254
:08014000122AD5D79AD703005B
:020000040030CA
:0E0000003FCC3E1E008781000FC00FE00F4076
:00000001FF
;PIC18F4550
;CRC=F4B8  CREATED="19-ago.-15 01:14"
