:0400000085EF02F096
:08000800046ED8CF05F0E0CF33
:1000100006F00001E9CF0CF0EACF07F0E1CF08F0DD
:10002000E2CF09F0D9CF0AF0DACF0BF0F3CF12F01C
:10003000F4CF13F0FACF14F000C00EF001C00FF0AF
:1000400002C010F003C011F0F2AA2AEF00F0F2B4DF
:1000500017EF02F0F2A830EF00F0F2B205EF01F076
:100060000EC000F00FC001F010C002F011C003F08C
:100070000CC0E9FF07C0EAFF078E08C0E1FF09C016
:10008000E2FF0AC0D9FF0BC0DAFF12C0F3FF13C0B2
:10009000F4FF14C0FAFF045006C0E0FF05C0D8FF0B
:1000A0001000F2CF0DF0F29EF76ABC0FF66E000E54
:1000B000F7220900F5500DBEF28E1200280C010641
:1000C0008350006E00380F0B016E000C0F0E95145C
:1000D000F009956E8C8400008C800000F1DF01C077
:1000E00039F08C9000008C8000D000D00000E8DF58
:1000F00001C038F08C900F0E9514956E3938006E53
:10010000F00E001600503810016E000C3938F00B5C
:10011000006E0F0E8C1400108C6E00008C80030E8D
:10012000006E002EFED78C90000C8C92CFDF01C0A9
:1001300038F001BEFBD78C9236B08C8200008C94D4
:1001400000008C903738386E0F0E381638C039F0F2
:10015000DDDF37500F0B386E396ED8DF000C332CD3
:1001600001D003D0400E346E01D0346A010E325CEF
:10017000342634508009356E366A376ED6DF000C6F
:10018000EA6A320EE96EEF500DE0060E016E006A6B
:10019000002EFED7012EFBD77B0E006E002EFED761
:1001A000EF2EF3D7000C31500C0A05E0060A0BE0E5
:1001B000020A0FE013D0366A010E376EB6DF020E68
:1001C000326EDEDF11D0010E326E020E336EC7DFEB
:1001D0000BD0366A100E376EA8DF06D0010E366ED1
:1001E00031C037F0A2DF00D0000C0900F5520CE05E
:1001F000F6CF2FF0F7CF30F0F5CF31F0D4DF2FC0AE
:10020000F6FF30C0F7FFF1D7000CF29AF298F29C9B
:10021000F29EF2BEFDD7939E8A9E938081A0BAD0B3
:10022000938081A069D01B52D8A466D0938881A8FE
:1002300009D01A2A1A50040801E11A6A938881A881
:1002400001D0FCD71A5214E1010E326E336E87DFF3
:10025000A20EF66E030EF76EC8DF010E326E020EAE
:10026000336E7DDFAC0EF66E030EF76EBEDF43D04D
:100270001A2C14D0010E326E336E71DFB80EF66E8A
:10028000030EF76EB2DF010E326E020E336E67DFC1
:10029000C20EF66E030EF76EA8DF2DD01A500208BC
:1002A00014E1010E326E336E5ADFCE0EF66E030E7F
:1002B000F76E9BDF010E326E020E336E50DFD80EEA
:1002C000F66E030EF76E91DF16D01A50030813E195
:1002D000010E326E336E43DFE20EF66E030EF76EE2
:1002E00084DF010E326E020E336E39DFEC0EF66ED5
:1002F000030EF76E7ADF3ED0010E326E336E2FDFC3
:10030000F80EF66E030EF76E70DF1A520BE1010E57
:10031000326E020E336E23DF040EF66E040EF76E9D
:1003200064DF28D01A2C0BD0010E326E020E336E11
:1003300016DF0E0EF66E040EF76E57DF1BD01A5046
:1003400002080BE1010E326E020E336E08DF1A0E48
:10035000F66E040EF76E49DF0DD01A5003080AE15D
:10036000010E326E020E336EFADE240EF66E040EAD
:10037000F76E3BDF320E326E03DF0C0E316E13DF91
:10038000938681A606D0010E1B6E938681A601D0AE
:10039000FCD743D7F28AF288C00EF212F29230EF05
:1003A00000F040202020314B20485A0020202032ED
:1003B0002E354B20487A0000202020314B20487AEF
:1003C000000040202020322E354B20487A0040206B
:1003D0002020344B20487A0020202031304B204808
:1003E0007A00202020344B20487A00004020202032
:1003F00031304B20487A000053656C656363696F48
:100400006EF32000202020314B20485A000020208D
:1004100020322E354B20487A0000202020344B20FB
:10042000487A000020202031304B20487A00939EEB
:100430008A7E195209E1010E196E939A8A8A20C0A8
:10044000D7FF1FC0D6FF07D0196A939A8A9A22C095
:10045000D7FF21C0D6FFF29430EF00F04155544F42
:1004600052004A41494D45204449415A00000F0E6F
:100470009514956E9590959295948C928C948C9001
:10048000166AF2BE168EF29E0F0E326E79DE16BE20
:10049000F28E010E236E2350030814E3166AF2BE97
:1004A000168EF29E030E396E31DE16BEF28E166A7D
:1004B000F2BE168EF29E050E326E62DE16BEF28E11
:1004C000232AE9D7166AF2BE168EF29E020E396E04
:1004D0001DDE16BEF28E236A2350030814E3036A5E
:1004E0002350F2CF24F0F29EDCDD24BEF28E246E87
:1004F000166AF2BE168EF29E366A376E16DE16BE8B
:10050000F28E232AE9D7A3EF02F0F86AD09E078E75
:10051000EA6AE96A186A196A1A6A1B6A1C6A1E6A18
:10052000FF0E1D6E206A1F6A226A216AC150C00B2D
:100530000F09C16E070EB46EFF0E926E0F0E936E12
:10054000000E956E94D75C0EF66E040EF76E166A6A
:10055000F2BE168EF29E49DE16BEF28E166AF2BE0C
:10056000168EF29E010E326E020E336EF8DD16BE4E
:10057000F28E620EF66E040EF76E166AF2BE168EDC
:10058000F29E33DE16BEF28E040E236E166AF2BEA3
:10059000168EF29EFA0E326EF3DD16BEF28E232E0A
:1005A000F5D7166AF2BE168EF29E0C0E316EFBDD8A
:1005B00016BEF28EF28AF288C00EF212D56EC0809C
:1005C000C092C094C09EC280C150C00B0E09C16EC3
:1005D000000E016EC250C30B0110C26E100E006EF1
:1005E000002EFED70000C282C2B2FED7C4CF17F0E1
:1005F00017C018F0939C8A8C1B6A1A500308D8A461
:1006000078D01850190807E3206AFF0E1F6E226A7F
:100610004C0E216E6ED0185032080AE3185019089B
:1006200007E2206ADC0E1F6E226A5E0E216E61D028
:1006300018504B080AE31850320807E2206AC80E27
:100640001F6E226A730E216E54D0185064080AE39C
:1006500018504B0807E2206AB40E1F6E226A860EFD
:10066000216E47D018507D080AE31850640807E24D
:10067000206AA00E1F6E226A9A0E216E3AD0185080
:1006800096080AE318507D0807E2206A860E1F6E5E
:10069000226AB40E216E2DD01850AF080AE318500C
:1006A000960807E2206A730E1F6E226AC80E216E3A
:1006B00020D01850C8080AE31850AF0807E2206A93
:1006C0005E0E1F6E226ADC0E216E13D01850C80811
:1006D00007E2206A4C0E1F6E226AFF0E216E09D0BF
:1006E0001850E10806E2206A4C0E1F6E226AFF0EC7
:0606F000216E79D7030022
:020000040030CA
:0E00000024CC380E0087A1000FC00FE00F4087
:00000001FF
;PIC18F4550
;CRC=9E44  CREATED="16-sep-15 11:29"
