:1000000002EF00F0F86AD09EEA6AE96A066A056AB9
:10001000C150C00B0F09C16E070EB46E000E936E77
:1000200094948B940C0EBD6EB76AB66A000E0609E6
:10003000CA6E1E0ECB6EC080C082C084C09EC280BD
:10004000C150C00B0E09C16E000E016EC250C30B31
:100050000110C26E100E006E002EFED70000C2828C
:10006000C2B2FED7C4CF04F0D890066A0430056E41
:1000700006C002F005C001F0023201320232013244
:10008000023201C0BEFF02320230300B006EBD50A2
:0A009000CF0B0010BD6EE3D7030094
:020000040030CA
:0E0000003CCC390E0087A1000FC00FE00F406E
:00000001FF
;PIC18F4550
;CRC=924D  CREATED="06-sep-15 22:16"
