:04000000ABEF04F06E
:08000800046ED8CF05F0E0CF33
:1000100006F00001E9CF0CF0EACF07F0E1CF08F0DD
:10002000E2CF09F0D9CF0AF0DACF0BF0F3CF12F01C
:10003000F4CF13F0FACF14F0F5CF15F0F6CF16F099
:10004000F7CF17F000C00EF001C00FF002C010F0A3
:1000500003C011F09DA230EF00F09EB261EF00F0FE
:100060000EC000F00FC001F010C002F011C003F08C
:100070000CC0E9FF07C0EAFF078E08C0E1FF09C016
:10008000E2FF0AC0D9FF0BC0DAFF12C0F3FF13C0B2
:10009000F4FF14C0FAFF15C0F5FF16C0F6FF17C035
:1000A000F7FF045006C0E0FF05C0D8FF1000F76A54
:1000B000BE0FF66E000EF7220900F5501200280C54
:1000C000010693908A700B0ECC6E9E9230EF00F07A
:1000D00076616463203D20257500766F6C74203D49
:1000E00020256700EA6A2C0EE96EEF500DE0060E3F
:1000F000016E006A002EFED7012EFBD77B0E006E2C
:10010000002EFED7EF2EF3D7000C3338F00B006E25
:100110000F0E8C1400108C6E00008C80030E006E8D
:10012000002EFED78C90000C8350006E00380F0B11
:10013000016E000C0F0E9514F009956E8C84000072
:100140008C800000F1DF01C033F08C9000008C80C7
:1001500000D000D00000E8DF01C032F08C900F0E1C
:100160009514956E3338006EF00E00160050321064
:10017000016EC0EF00F09590959295948C92DAD72D
:1001800001C032F001BEFBD78C9230B08C820000EF
:100190008C9400008C903138326E0F0E321632C0C3
:1001A00033F0B3DF31500F0B326E336EAEDF000C25
:1001B0000F0E9514956E9590959295948C928C94C3
:1001C0008C900F0E2C6E8EDF010E1E6E1E500308DB
:1001D0000AE3030E336E99DF336A97DF050E2C6E48
:1001E00081DF1E2AF3D7020E336E8FDF336A8DDF75
:1001F000050E2C6E77DF1E6A1E50030809E3036AA2
:100200001E5055DF1F6E306A316EB5DF1E2AF4D7DF
:10021000C3EF04F02D2C01D003D0400E2E6E01D080
:100220002E6A010E2C5C2E262E5080092F6E306A0D
:10023000316EA1DF000C2B50070A07E00B0A0AE021
:10024000060A10E0020A14E018D0010E2C6E2D6E82
:10025000E1DF19D0306A010E316E8DDF020E2C6E97
:1002600041DF11D0010E2C6E020E2D6ED3DF0BD0AC
:10027000306A100E316E7FDF06D0010E306E2BC05B
:1002800031F079DF00D0000C0900F6CF1FF0F7CF76
:1002900020F0F5CF2BF0CFDF1FC0F6FF20C0F7FF17
:1002A0001E2EF2D7000C2150016A205C03E220C010
:1002B00000F00CD0006A080E226E20360036215065
:1002C000005CD8B0006E0136222EF7D7000C01502A
:1002D0001EC020F0640E216EE6DF00C01EF001504B
:1002E000300E07E11FA20CD01FB60AD01FB8200E97
:1002F00003D01F961F981F80012601C02BF09BDFA3
:100300001EC020F00A0E216ECEDF00C01EF001508C
:10031000300E06E11FB608D01FA006D01FB8200E71
:10032000012601C02BF087DF300E1E261EC02BF0E9
:1003300082DFEFEF04F08E0E006E1FC001F01EC0D2
:1003400002F0036A015209E102C001F0026A080EDC
:10035000005E015202E1006A08D0D89001BE04D0CC
:10036000023601360006F9D7019EFAEF04F02B5051
:10037000D8B471D0006E2F50D8B46DD0002604E3ED
:10038000810E002668E204D07F0E005E64E363E025
:100390002CC033F03050331A2C8E308E2E50320257
:1003A000F4CF35F02D503102F4CF03F0F3CF34F019
:1003B0003202F3503526F4503422000E03222E5020
:1003C0003102F3503526F4503422000E026A032223
:1003D00002222C503202F3503426F4500322000E35
:1003E00002222C503102F3500326F4500222000E58
:1003F000016A01222E503002F3503426F4500322B9
:10040000000E022201222D503002F3500326F45038
:100410000222000E01222C503002F3500226F4502A
:100420000122002A01BE05D03436033602360136D9
:100430000006000E34AE0AD0032A02220122015027
:1004400005E1025003E1035001E1002A33BE018EB1
:1004500033AE019E04D0006A016A026A036AE2EFC9
:1004600003F0800ED8B2301A356A366A2CC034F0E8
:100470003050341A2B50D8B4DCD0336E006E2F506D
:10048000D8B4E0D0335ED8B481D03DE330C039F089
:10049000398E31C038F032C037F0366AD8903932F0
:1004A000383237323632332EF8D734AE03D0358077
:1004B000DDD0359033903588EA6A2E0EE96EE9D0AA
:1004C000359834BE0AD033A013D03932383237329F
:1004D0003632002AD8B4C5D00BD039BE0CD0D89053
:1004E00036363736383639360006D8B4BAD0F5D76E
:1004F000358C6BD0359C2CC034F02CAE02D0398EAC
:10050000A9D0399EA7D02FC033F02FC000F02B50B8
:10051000335E2CC039F0398E2DC038F02EC037F044
:10052000366AD8903932383237323632332EF8D7ED
:1005300034AE03D035829AD035923390358AEA6A48
:10054000320EE96EA6D0359A34BE0AD033A013D04D
:100550003932383237323632002AD8B482D00BD012
:1005600039BE0CD0D8903636373638363936000694
:10057000D8B477D0F5D7358E28D0359E30C034F03A
:1005800030AE02D0398E66D0399E64D030C039F09A
:10059000398E31C038F032C037F034AE04D0399ED5
:1005A000358464D03594366A3390EA6A2E0EE96E4B
:1005B00070D034BE1CD02CC034F033A006D03932F9
:1005C000383237323632002A4CE036AE0BD0372A7A
:1005D00009E1382A07E1392A05E139323832373260
:1005E000002A3FE035BC86D735BEC7D71CD0800E69
:1005F000391A39AE04D03AD030C034F00AD02CC009
:1006000034F0395206E1385204E1375202E1006A0F
:1006100021D039BE08D0D8903636373638363936FC
:10062000002EF7D71ED034AE02D0398E13D0399EAB
:1006300011D02FC000F030C039F031C038F032C0D6
:1006400037F008D02BC000F02CC039F02DC038F0A6
:100650002EC037F039C001F038C002F037C003F0C7
:1006600034D0006A016A026A036A2FD0366A371EE4
:10067000381E391E361E362A05E1372A03E1382A8C
:1006800001E1392A35B015D735B256D735B48AD7F6
:10069000B3D7EF50372605E3382A03E1392AD8B417
:1006A0003380ED52EF50382603E3392AD8B4338033
:1006B000ED52EF50EFBE01D0800A3926D8B033801A
:1006C00035B8FED635BA3FD774D704EF04F02B50B7
:1006D000B6082B6E036A2CC02FF02C8ED8902C32CB
:1006E0002D322E3203320232013200322B2EF6D757
:1006F0002FAE0BD0001E011E021E031E002AD8B40E
:10070000012AD8B4022AD8B4032A15EF04F0D8B2CB
:1007100003D0EA6A330EE96E006A016A026A036A6C
:10072000336A346A356A366A3250311030102F100D
:100730002CE0200E376ED8902B362C362D362E36E8
:1007400033363436353636363250365C08E1315081
:10075000355C05E13050345C02E12F50335C0FE32F
:100760002F50335E3050D8A0303C345E3150D8A08A
:10077000313C355E3250D8A0323C365ED8800036EF
:10078000013602360336372ED6D733C0EFFF34C0DA
:10079000ECFF35C0ECFF36C0ECFF000CE950236ED7
:1007A0002250256E19E021C02EF020C02DF01FC070
:1007B0002CF01EC02BF0326A316A200E306E820E91
:1007C0002F6ED5D503C021F002C020F001C01FF06C
:1007D00000C01EF0252EE7D77E0E006E016A1FBEF8
:1007E000018E026A036AD89221C02EF020C02DF03B
:1007F0001FC02CF01EC02BF003C032F002C031F03D
:1008000001C030F02F6E2DD603C021F002C020F0C1
:1008100001C01FF000C01EF021C02EF020C02DF03E
:100820001FC02CF01EC02BF052D703C021F002C015
:1008300020F001C01FF000C01EF021AE0DD0230635
:10084000238A1E1E1F1E201E211E1E2AD8B41F2AE8
:10085000D8B4202AD8B4212A3B0E2A6E9A0E296ECB
:10086000CA0E286E276A0A0E256E2250D8B4232A93
:10087000D882EA6A1E0EE96E21C02EF020C02DF04B
:100880001FC02CF01EC02BF02AC032F029C031F05E
:1008900028C030F027C02FF03ADF015000520FE19E
:1008A0002228255C0CE023500CE00F0B255C01E0B6
:1008B00037E223BE35D023BC04D0200E2DD0200E2D
:1008C000231623AA0CD0239A2250D8A42306005022
:1008D000236E2D0E2B6EAFDC2350006E236A225048
:1008E000255C0AE10050236E2E0E2B6EA4DC2350F3
:1008F000006E200E2316000E300E23AA0DD0239A70
:100900002250D8A423060050236E2D0E2B6E93DCAC
:100910002350006E236A300E002600C02BF08BDCC3
:10092000D8922AC02EF029C02DF028C02CF027C064
:100930002BF0326A316A306A0A0E2F6EE8DE03C08D
:100940002AF002C029F001C028F000C027F0252EAF
:100950008FD71BEF05F0F86AD09E078EEA6AE96A26
:10096000C150C00B0F09C16E070EB46E000E936E1E
:10097000FF0E926E000E0509CA6EFF0ECB6E9D82B1
:10098000C00EF21215D4C090C082C094C09EC28026
:10099000C150C00B0E09C16E000E016EC250C30BD8
:1009A0000110C26E100E006E002EFED70000C28233
:1009B000C2B2FED7C4CF19F00A0E2C6E72EC00F052
:1009C0000C0E2B6E38DCD00EF66E000EF76E070E96
:1009D0001E6E5ADC19C01EF01B0E1F6E78D4195201
:1009E00002E18A9201D08A829392196A1F6A19C021
:1009F0001EF0A1D403C01DF002C01CF001C01BF00A
:100A000000C01AF0010E2C6E020E2D6E03DCDA0E01
:100A1000F66E000EF76E070E1E6E36DC890EE96E5E
:100A20001DC021F01CC020F01BC01FF01AC01EF01A
:100A3000020E226EB3D6040E1E6EFA0E2C6E72ECEF
:0A0A400000F01E2EFAD7B3D7030012
:020000040030CA
:0E0000003CCC390E0087A1000FC00FE00F406E
:00000001FF
;PIC18F4550
;CRC=AF8E  CREATED="03-sep-15 23:27"
