:1000000016EF00F0EA6A060EE96EEF500EE0010E00
:10001000016E006A002EFED7012EFBD74A0E006E3D
:10002000002EFED700D0EF2EF2D7000CF86AD09E3B
:10003000EA6AE96AC150C00B0F09C16E070EB46EBF
:10004000F19E010E936E8A9281A406D081A002D007
:100050008A9201D08A82F8D781B40DD08A82020EAA
:10006000056EFA0E066ECEDF052EFBD78A92C80EFD
:0A007000066EC8DFF1D7E8D70300E1
:020000040030CA
:0E00000038C0390E0087A1000FC00FE00F407E
:00000001FF
;PIC18F4550
;CRC=E2E5  CREATED="19-ago-15 21:21"
