:04000000FEEF00F01F
:08000800046ED8CF05F0E0CF33
:1000100006F00001E9CF0CF0EACF07F0E1CF08F0DD
:10002000E2CF09F0D9CF0AF0DACF0BF0F3CF12F01C
:10003000F4CF13F0FACF14F0F5CF15F0F6CF16F099
:10004000F7CF17F000C00EF001C00FF002C010F0A3
:1000500003C011F0F2A830EF00F0F2B284EF00F02C
:10006000F0A636EF00F0F0B0EAEF00F00EC000F0BE
:100070000FC001F010C002F011C003F00CC0E9FF86
:1000800007C0EAFF078E08C0E1FF09C0E2FF0AC00F
:10009000D9FF0BC0DAFF12C0F3FF13C0F4FF14C086
:1000A000FAFF15C0F5FF16C0F6FF17C0F7FF0450A2
:1000B00006C0E0FF05C0D8FF10002F50016A2E5C7B
:1000C00003E22EC000F00CD0006A080E306E2E360F
:1000D00000362F50005CD8B0006E0136302EF7D7B6
:1000E000000CEA6A2E0EE96EEF500DE0060E016E6E
:1000F000006A002EFED7012EFBD77B0E006E002E6D
:10010000FED7EF2EF3D7000C938081A060D02A5049
:10011000295C04E1246A276A296A2A6A938681A6EF
:100120000AD02A2A2A50640801E12A6A938681A605
:1001300001D0FCD70DD0938881A80AD02A062A5076
:10014000FF0802E1630E2A6E938881A801D0FCD7D4
:100150002AC02EF00A0E2F6EB0DF01C024F02AC094
:100160002EF00A0E2F6EA9DF00C027F09296898626
:1001700092948994929A899A929089809292899283
:10018000036A24501A0FE96E000E0320EA6EEFCFC7
:100190002EF0956A2EC08CFF010E2E6EA2DF92907B
:1001A000899092928982036A27501A0FE96E000E95
:1001B0000320EA6EEFCF2EF0956A2EC08CFF010E61
:1001C0002E6E8FDF92908990929289929DD7F292B3
:1001D00036EF00F0282A2A50295C02E1286A05D06F
:1001E0002850020802E1292A286A929A898A92965E
:1001F000899692948994F09036EF00F0F86AD09E38
:10020000078EEA6AE96A246A256A266A276A286AE2
:10021000296A2A6AC150C00B0F09C16E070EB46E5D
:10022000C00E1A6EF90E1B6EA40E1C6EB00E1D6E63
:10023000990E1E6E920E1F6E820E206EF80E216EAB
:10024000800E226E980E236EFF0E936E000E956E3A
:10025000FF0E926EF288F086C00EF2122A50295CD0
:1002600012E19294898492968986929A898A939AC5
:100270008A9A196AF2BE198EF29E640E2E6E31DFD2
:1002800019BEF28E0BD02A50295C08E09294898422
:1002900092968996929A899A939A8A8A196AF2BE54
:1002A000198EF29E29C02EF00A0E2F6E06DF19BE9F
:1002B000F28E01C025F0196AF2BE198EF29E29C095
:1002C0002EF00A0E2F6EF9DE19BEF28E00C026F057
:1002D0009290898092928992036A25501A0FE96E52
:1002E000000E0320EA6EEFCF2BF0956A2BC08CFF37
:1002F000196AF2BE198EF29E010E2E6EF2DE19BE42
:10030000F28E9290899092928982036A26501A0FF7
:10031000E96E000E0320EA6EEFCF2BF0956A2BC03A
:100320008CFF196AF2BE198EF29E010E2E6ED9DE76
:1003300019BEF28E92908990929289928FD7030083
:020000040030CA
:0E0000003CCC380E0087A1000FC00FE00F406F
:00000001FF
;PIC18F4550
;CRC=4E7D  CREATED="24-ago-15 21:36"
