:040000008FEF00F08E
:08000800046ED8CF05F0E0CF33
:1000100006F00001E9CF0CF0EACF07F0E1CF08F0DD
:10002000E2CF09F0D9CF0AF0DACF0BF0F3CF12F01C
:10003000F4CF13F0FACF14F000C00EF001C00FF0AF
:1000400002C010F003C011F09DA62AEF00F09EB68A
:1000500057EF00F00EC000F00FC001F010C002F02A
:1000600011C003F00CC0E9FF07C0EAFF078E08C00B
:10007000E1FF09C0E2FF0AC0D9FF0BC0DAFF12C0DE
:10008000F3FF13C0F4FF14C0FAFF045006C0E0FFF2
:1000900005C0D8FF1000C9501EC0C9FFC6889E9673
:1000A000C7B0FED7016AC6B8012A77EF00F0C7BA19
:1000B00003D01A6AC7B41A8E1A501A2A1D6E1D5020
:1000C0007F080DE3C69C9EA6FED7C950C6881C6E4D
:1000D0001C50060804E1010E166E929A898A1D5082
:1000E000800806E1162C04D017C01EF0D4D7166A7B
:1000F0009E962AEF00F0EA6A1B0EE96EEF500DE0C3
:10010000060E016E006A002EFED7012EFBD77B0E75
:10011000006E002EFED7EF2EF3D7C8EF00F0F86A7E
:10012000D09E078EEA6AE96A93829380A00EC86E19
:10013000360EC66E166AC150C00B0F09C16E070E8F
:10014000B46E030E1A6EFF0E936E0F0E926EC00EFB
:10015000F2129D86C150C00B0E09C16EC080C082D4
:10016000C084C09EC280000E016EC250C30B01103D
:10017000C26E100E006E002EFED70000929A899A71
:10018000C282C2B2FED7C4CF17F0010E1B6EB3D726
:04019000F5D703009C
:020000040030CA
:0E00000027CC191E008581000FC00FE00F40B5
:00000001FF
;PIC18F4550
;CRC=2C26  CREATED="22-oct-15 09:03"
