:0400000086EF00F097
:08000800046ED8CF05F0E0CF33
:1000100006F00001E9CF0CF0EACF07F0E1CF08F0DD
:10002000E2CF09F0D9CF0AF0DACF0BF0F3CF12F01C
:10003000F4CF13F0FACF14F000C00EF001C00FF0AF
:1000400002C010F003C011F09DAA2AEF00F09EBA82
:100050004BEF00F00EC000F00FC001F010C002F036
:1000600011C003F00CC0E9FF07C0EAFF078E08C00B
:10007000E1FF09C0E2FF0AC0D9FF0BC0DAFF12C0DE
:10008000F3FF13C0F4FF14C0FAFF045006C0E0FFF2
:1000900005C0D8FF100093908A809EAAFED7AECFED
:1000A0001CF01C5040081CE1640E186E1CC01DF0B2
:1000B000010E196E1950185C13E39EAAFED7AECF3D
:1000C0001CF0036A19501D0FE96E000E0320EA6E42
:1000D0001CC0EFFF1C50230801E1186A192AEAD757
:1000E0009E9A2AEF00F0EA6A1E0EE96EEF500DE0CC
:1000F000060E016E006A002EFED7012EFBD77B0E86
:10010000006E002EFED7EF2EF3D7000CF86AD09EBB
:10011000078EEA6AE96AB886080EAF6E020EB06E04
:10012000A60EAC6E900EAB6E186A196A010E1A6EAE
:100130001B6AC150C00B0F09C16E070EB46E166A60
:10014000176A1E6A1D6AFF0E926E000E936E9D8ADC
:10015000C00EF21293908A70938A81AA3BD0010E4E
:100160001A6E010E195C1A5C31E2036A1A501D0FF7
:10017000E96E000E0320EA6EEF2C0CD01B520AE150
:1001800093928A8293948A94010E1B6E0A0E1E6EBD
:10019000AADF1AD0036A1A501D0FE96E000E032061
:1001A000EA6EEF2C0AD01B2C08D093928A9293947B
:1001B0008A840A0E1E6E97DF07D093928A929394D8
:1001C0008A940A0E1E6E8FDF1A2ACBD7938A81AAD1
:0801D00001D0FCD7BFD70300EA
:020000040030CA
:0E00000027CC191E008581000FC00FE00F40B5
:00000001FF
;PIC18F4550
;CRC=542C  CREATED="26-sep-16 17:49"
