:0400000080EF04F099
:08000800046ED8CF05F0E0CF33
:1000100006F00001E9CF0CF0EACF07F0E1CF08F0DD
:10002000E2CF09F0D9CF0AF0DACF0BF0F3CF12F01C
:10003000F4CF13F0FACF14F000C00EF001C00FF0AF
:1000400002C010F003C011F09DAA2AEF00F09EBA82
:100050004BEF00F00EC000F00FC001F010C002F036
:1000600011C003F00CC0E9FF07C0EAFF078E08C00B
:10007000E1FF09C0E2FF0AC0D9FF0BC0DAFF12C0DE
:10008000F3FF13C0F4FF14C0FAFF045006C0E0FFF2
:1000900005C0D8FF10009EAAFED7AECF65F09E9A8D
:1000A0002AEF00F06261736564206F6E2044533163
:1000B0003330372044616C6C6173204D6178696D19
:1000C0002048617264776172650D0A0A000041760A
:1000D00061696C61626C6520525332333220636F08
:1000E0006D6D616E64733A0D0A0020205B6F5D20B8
:1000F00044756D70204461746520262054696D65D7
:10010000204F4E0D0A0020205B665D2044756D7007
:10011000204461746520262054696D65204F464651
:100120000D0A0A00496E696369616C697A616E64DF
:100130006F20445331333037202E2E2E0D0A0A0003
:100140004665636861207920486F7261206163743D
:1001500075616C20656E20656C20445331333037F7
:100160000D0A0A0054657374206465206C61204E8A
:100170005652414D20696E7465726E612028577227
:1001800069746520616E64207265616429202E2E79
:100190002E0D0A0A00005365742044756D70204FBF
:1001A0004E0D0A0A00000D0A5365742044756D70E7
:1001B000204F46460D0A0A000900F5520DE0F6CF21
:1001C00078F0F7CF79F0F5509EA8FED7AD6E78C0E5
:1001D000F6FF79C0F7FFF0D7000CEA6A790EE96EF6
:1001E000EF500DE0060E016E006A002EFED7012EC4
:1001F000FBD77B0E006E002EFED7EF2EF3D7000C40
:10020000080E016E050E006E002EFED78A929392A4
:10021000060E006E002EFED782378A90D8B09380EB
:10022000D8A09390938281A2FED7012EEBD7050E22
:10023000006E002EFED78A92939200009380060EE5
:10024000006E002EFED7060E006E002EFED79382A3
:1002500081A2FED7016A060E006E002EFED781B085
:1002600001808A9293928A909390000C080E836F7B
:1002700000C084F09380060E006E002EFED793829D
:1002800081A2FED781B0D88081A0D8900136050E1A
:10029000006E002EFED793928A92832FEBD7938025
:1002A000060E006E002EFED78A908451D8A493903B
:1002B0000000938281A2FED7050E006E002EFED7AD
:1002C0008A929392060E006E002EFED78A9093902B
:1002D000000C83C084F0D8908433780E8417843166
:1002E000006E00323F0E001600508425856F83514A
:1002F0000F0B8525016E000C7AC07BF07C6B7B5167
:10030000090805E20A0E7B5F100E7C2703D07B51A3
:100310007C2701D0F4D77CC001F0F8EF01F0796BB5
:10032000F29CF29EF2BEFDD79380050E006E002E69
:10033000FED79382060E006E002EFED78A90939011
:10034000050E006E002EFED78A929392D00E826F19
:1003500057DF826B55DF9380050E006E002EFED7AF
:100360009382060E006E002EFED781A2FED78A90E1
:100370009390050E006E002EFED78A929392D10EB6
:10038000826F3EDF006A72DF01C07AF001C083F045
:10039000A0DF01C079F093900000938281A2FED784
:1003A000050E006E002EFED700D000009380050ED3
:1003B000006E002EFED7799F00D000009380050EBE
:1003C000006E002EFED79382060E006E002EFED722
:1003D0008A909390050E006E002EFED78A9293921B
:1003E000D00E826F0DDF826B0BDF79C07AF084D77D
:1003F00001C07AF001C082F003DF9380050E006E29
:10040000002EFED79382060E006E002EFED781A22C
:10041000FED78A909390050E006E002EFED78A922A
:100420009392D00E826FECDE070E826FE9DE78C009
:1004300082F0E6DE93900000938281A2FED7050E43
:10044000006E002EFED700D000009380050E006ED7
:10045000002EFED7C00EF2124EEF05F064C0EAFF88
:1004600063C0E9FF82C0EFFFE92AD8B4EA2AEF6A45
:10047000632BD8B4642B46EF02F0EF520FE0EACFC3
:1004800081F0E9CF80F0EFCF82F0E8D781C0EAFFBA
:1004900080C0E9FFE92AD8B4EA2AEFD7D1EF02F009
:1004A000F29CF29EF2BEFDD79380050E006E002EE8
:1004B000FED79382060E006E002EFED78A90939090
:1004C000050E006E002EFED78A929392D00E826F98
:1004D00097DE030E826F94DE9380050E006E002E71
:1004E000FED79382060E006E002EFED781A2FED7A5
:1004F0008A909390050E006E002EFED78A929392FA
:10050000D10E826F7DDE010E006EB0DE01507F0BDA
:100510007E6F836FDEDE01C07DF0010E006EA6DE11
:1005200001503F0B7E6F836FD4DE01C07AF0010E65
:10053000006E9CDE01501F0B7E6F836FCADE01C010
:100540007BF0006A93DE01C07EF001C083F0C1DE63
:1005500001C07CF093900000938281A2FED7050E2B
:10056000006E002EFED700D000009380050E006EB6
:10057000002EFED7C00EF2127D510B0DF350036A10
:10058000160F016E000E032201C07EF003C07FF043
:1005900079C064F078C063F003C0EAFF01C0E9FFEE
:1005A0006CD767EF03F0EF5210E0EACF79F0E9CFB4
:1005B00078F0EF509EA8FED7AD6E79C0EAFF78C004
:1005C000E9FFE92AD8B4EA2AEED738EF04F07F51E0
:1005D000016A7E5D03E27EC000F00CD0006A080E66
:1005E000806F7E3700367F51005CD8B0006E0136D8
:1005F000802FF7D7000C200E79A9300E7A6F78C0C3
:1006000000F078AF07D0001E002A00C078F02D0E51
:100610007A6F798F015078C07EF0640E7F6FD7DFDC
:1006200000C078F0300E01247B6F78C07EF00A0E97
:100630007F6FCDDF300E00247D6F300E01247C6F84
:100640007AC000F079A702D079AF799579B90BD04B
:1006500079AF22D079B520D000C07BF079B31CD01F
:1006600000C07CF019D0300E7B5D16E100C07BF03D
:10067000200E7A6F79A704D07995798379AF799331
:10068000300E7C5D09E100C07CF0200E7B6F79A705
:10069000F7D7799379AF799179A504D07A519EA84B
:1006A000FED7AD6E79A304D07B519EA8FED7AD6E68
:1006B00079A104D07C519EA8FED7AD6E7D519EA835
:1006C000FED7AD6E000C796B6D0E786FE9D6F29C9B
:1006D000F29EF2BEFDD79380050E006E002EFED76F
:1006E0009382060E006E002EFED78A909390050E20
:1006F000006E002EFED78A929392D00E826F80DD1C
:10070000030E826F7DDD9380050E006E002EFED7F6
:100710009382060E006E002EFED781A2FED78A902D
:100720009390050E006E002EFED78A929392D10E02
:10073000826F66DD010E006E99DD01507F0B7E6FCA
:10074000836FC7DD01C06CF0010E006E8FDD0150BC
:100750003F0B7E6F836FBDDD01C069F0010E006E3F
:1007600085DD01501F0B7E6F836FB3DD01C06AF022
:10077000006A7CDD01C07EF001C083F0AADD01C00B
:100780006BF093900000938281A2FED7050E006E5D
:10079000002EFED700D000009380050E006E002EC4
:1007A000FED7C00EF212F29CF29EF2BEFDD79380ED
:1007B000050E006E002EFED79382060E006E002EF0
:1007C000FED78A909390050E006E002EFED78A9277
:1007D0009392D00E826F14DD826B12DD9380050E32
:1007E000006E002EFED79382060E006E002EFED7FE
:1007F00081A2FED78A909390050E006E002EFED740
:100800008A929392D10E826FFBDC010E006E2EDD78
:1008100001507F0B786F836F5CDD01C066F0010EC5
:10082000006E24DD01507F0B786F836F52DD01C0B5
:1008300067F0006A1BDD01503F0B786F836F49DD65
:1008400001C068F093900000938281A2FED7050E4C
:10085000006E002EFED700D000009380050E006EC3
:10086000002EFED7C00EF212EA6A6D0EE96E9BD61C
:10087000200E9EA8FED7AD6E69C078F0010E796F8C
:10088000BADE2F0E9EA8FED7AD6E6AC078F0010EBC
:10089000796FB1DE2F0E9EA8FED7AD6E6BC078F0DB
:1008A000010E796FA8DE200E9EA8FED7AD6E68C03F
:1008B00078F0010E796F9FDE3A0E9EA8FED7AD6EDE
:1008C00067C078F0010E796F96DE3A0E9EA8FED7CB
:1008D000AD6E66C078F0010E796F8DDE3A0E9EA87F
:1008E000FED7AD6E6CC078F0010E796F84DE0D0E10
:1008F0009EA8FED7AD6E0A0E9EA8FED7AD6E000C68
:10090000F86AD09E078EEA6AE96AB886080EAF6E6A
:10091000020EB06EA60EAC6E900EAB6E660E656FDC
:10092000C150C00B0F09C16E070EB46E4C0E166E8F
:10093000750E176E6E0E186E650E196E730E1A6EAA
:100940001B6A1C6A1D6A1E6A1F6A206A4D0E216E90
:10095000610E226E720E236E740E246E650E256E6D
:10096000730E266E276A286A296A2A6A2B6A4D0E38
:100970002C6E690E2D6EE90E2E6E720E2F6E630EAA
:10098000306E6F0E316E6C0E326E650E336E730EFE
:10099000346E356A366A4A0E376E750E386E650EDD
:1009A000396E760E3A6E650E3B6E730E3C6E3D6A86
:1009B0003E6A3F6A406A416A560E426E690E436E55
:1009C000650E446E720E456E6E0E466E650E476E77
:1009D000730E486E496A4A6A4B6A4C6A530E4D6EF2
:1009E000E10E4E6E620E4F6E610E506E640E516ED1
:1009F0006F0E526E536A546A556A566A576A440EAD
:100A0000586E6F0E596E6D0E5A6E690E5B6E6E0EDD
:100A10005C6E670E5D6E6F0E5E6E5F6A606B636B21
:100A2000646B070E936E100E966E966A8D6A800E3A
:100A3000946E0D0E9EA8FED7AD6E0A0E9EA8FED730
:100A4000AD6EA40EF66E000EF76EDCEC00F0CE0E6E
:100A5000F66E000EF76EDCEC00F0EA0EF66E000E9D
:100A6000F76EDCEC00F0060EF66E010EF76EDCECB5
:100A700000F0F0889D8AC00EF212240EF66E010E70
:100A8000F76EDCEC00F0040E786FFA0E796FEDEC87
:100A900000F0782FFAD7900E786F41D4400EF66EA2
:100AA000010EF76EDCEC00F00EDE0D0E9EA8FED7F8
:100AB000AD6E0A0E9EA8FED7AD6E0A0E9EA8FED79A
:100AC000AD6E640EF66E010EF76EDCEC00F0655153
:100AD0006F0810E1960EF66E010EF76EDCEC00F07A
:100AE000F2DD040E786FFA0E796FEDEC00F0782FDE
:100AF000FAD70BD06551660808E1A60EF66E010E16
:0E0B0000F76EDCEC00F0020E656FE1D703002B
:020000040030CA
:0E0000003FCC191E008581000FC00FE00F409D
:00000001FF
;PIC18F4550
;CRC=6A7D  CREATED="23-oct-15 01:58"
