:1000000028EF05F0F76A140FF66E000EF7220900CC
:10001000F5501200280C01060C20496E69636961D5
:100020006E646F2E00000C20496E696369616E6416
:100030006F2E2E000C20496E696369616E646F2E0D
:100040002E2E00004155544F52455300504F5251EF
:100050005545204E4F53204F4449413F00004C65C9
:1000600063747572612053656E736F7265730000FF
:100070004C753D2530332E3266204C633D253033A0
:100080002E326600EA6A240EE96EEF500DE0060E8D
:10009000016E006A002EFED7012EFBD77B0E006E8C
:1000A000002EFED7EF2EF3D7000C2B38F00B006E8E
:1000B0000F0E8C1400108C6E00008C80030E006EEE
:1000C000002EFED78C90000C8350006E00380F0B72
:1000D000016E000C0F0E9514F009956E8C840000D3
:1000E0008C800000F1DF01C02BF08C9000008C8030
:1000F00000D000D00000E8DF01C02AF08C900F0E85
:100100009514956E2B38006EF00E001600502A10D4
:10011000016E8DEF00F08C92DDD701C02AF001BE98
:10012000FBD78C9228B08C8200008C9400008C90BD
:1001300029382A6E0F0E2A162AC02BF0B6DF295056
:100140000F0B2A6E2B6EB1DF000C0F0E9514956EFF
:100150009590959295948C928C948C900F0E246E21
:1001600091DF010E166E1650030808E3030E2B6E86
:100170009CDF050E246E86DF162AF5D7020E2B6E45
:1001800094DF166A165003080EE3036A1650F2CF86
:1001900017F0F29E37DF17BEF28E176E286A296EAF
:1001A000BADF162AEFD73FEF05F0252C01D003D098
:1001B000400E266E01D0266A010E245C26262650AB
:1001C0008009276E286A296EA6DF000C23500C0ACE
:1001D00005E0060A0BE0020A0FE013D0286A010EC0
:1001E000296E99DF020E246E4DDF11D0010E246EB0
:1001F000020E256EDADF0BD0286A100E296E8BDF17
:1002000006D0010E286E23C029F085DF00D0000C37
:100210000900F5520CE0F6CF16F0F7CF17F0F5CF46
:1002200023F0D4DF16C0F6FF17C0F7FFF1D7000C9C
:1002300016501802F3CF01F0F4CF00F01902F3507A
:10024000002617501802F3500020026EBCEF05F094
:10025000016A026A006A036A1B5002E11A5018E040
:10026000100E1C6ED89018361936003603361B5007
:10027000035C02E11A50005C07E31A50005ED8A04C
:1002800003061B50035ED880013602361C2EEAD7C7
:10029000CAEF05F08E0E006E17C001F016C002F016
:1002A000036A015209E102C001F0026A080E005E11
:1002B000015202E1006A08D0D89001BE04D0023693
:1002C00001360006F9D7019E000C1A50D8B4A5D00B
:1002D000266E1E50D8B4A1D0265E05E37F0E2626DA
:1002E000D8B09BD006D0810E265ED8A096D0D8B4C8
:1002F00094D026C000F0016A026A036A256A1BC016
:1003000024F0248E1CC023F01DC022F0190E266E8E
:100310002150225E0DE2010E235E0AE2245E08E215
:10032000255E06E2252A242A232A2150222628D0C7
:100330002050235E12E2010E245E0FE2255E0DE2E4
:10034000252A242A205023262150222619E3232A55
:1003500017E1242A15E1252A13D01F508009245EB5
:100360000EE2010E255E0BE2252A1F50800924268D
:1003700020502326E9E3242AE7E1252AE5D7038054
:10038000262E01D00BD0D89022362336243625369F
:10039000D8900336023601362736BAD727A006D0C2
:1003A000D890013202320332273202D0000635E003
:1003B00027BE1ED0D890223623362436253621502B
:1003C000225E07E2010E235E04E2245E02E2255E65
:1003D0001AE32050235E05E2010E245E02E2255E50
:1003E00012E31F508009245E03E2010E255E0BE339
:1003F000032A09E1022A07E1012A05E1002A0DE0AA
:100400000132023203321BC026F01F50261A26AEDC
:1004100002D0018E06D0019E04D0006A016A026AF1
:10042000036A000C800ED8B21B1A206A216A17C01A
:100430001FF01B501F1A1650D8B4DCD01E6E006E71
:100440001A50D8B4E0D01E5ED8B481D03DE31BC0B2
:1004500024F0248E1CC023F01DC022F0216AD89005
:1004600024322332223221321E2EF8D71FAE03D07F
:100470002080DDD020901E902088EA6A190EE96E57
:10048000E9D020981FBE0AD01EA013D024322332F8
:1004900022322132002AD8B4C5D00BD024BE0CD0D1
:1004A000D89021362236233624360006D8B4BAD066
:1004B000F5D7208C6BD0209C17C01FF017AE02D050
:1004C000248EA9D0249EA7D01AC01EF01AC000F016
:1004D00016501E5E17C024F0248E18C023F019C0D9
:1004E00022F0216AD89024322332223221321E2E69
:1004F000F8D71FAE03D020829AD020921E90208A77
:10050000EA6A1D0EE96EA6D0209A1FBE0AD01EA070
:1005100013D02432233222322132002AD8B482D09E
:100520000BD024BE0CD0D890213622362336243668
:100530000006D8B477D0F5D7208E28D0209E1BC0D7
:100540001FF01BAE02D0248E66D0249E64D01BC048
:1005500024F0248E1CC023F01DC022F01FAE04D056
:10056000249E208464D02094216A1E90EA6A190E89
:10057000E96E70D01FBE1CD017C01FF01EA006D0A1
:100580002432233222322132002A4CE021AE0BD019
:10059000222A09E1232A07E1242A05E12432233211
:1005A0002232002A3FE020BC86D720BEC7D71CD00D
:1005B000800E241A24AE04D03AD01BC01FF00AD0FB
:1005C00017C01FF0245206E1235204E1225202E137
:1005D000006A21D024BE08D0D89021362236233696
:1005E0002436002EF7D71ED01FAE02D0248E13D093
:1005F000249E11D01AC000F01BC024F01CC023F0B0
:100600001DC022F008D016C000F017C024F018C09A
:1006100023F019C022F024C001F023C002F022C050
:1006200003F034D0006A016A026A036A2FD0216A9B
:10063000221E231E241E211E212A05E1222A03E157
:10064000232A01E1242A20B015D720B256D720B49E
:100650008AD7B3D7EF50222605E3232A03E1242AC1
:10066000D8B41E80ED52EF50232603E3242AD8B4D9
:100670001E80ED52EF50EFBE01D0800A2426D8B084
:100680001E8020B8FED620BA3FD774D7000C235066
:10069000D8B471D0006E2750D8B46DD0002604E3D2
:1006A000810E002668E204D07F0E005E64E363E002
:1006B00024C02BF028502B1A248E288E26502A0274
:1006C000F4CF2DF025502902F4CF03F0F3CF2CF016
:1006D0002A02F3502D26F4502C22000E032226501D
:1006E0002902F3502D26F4502C22000E026A032218
:1006F000022224502A02F3502C26F4500322000E2A
:10070000022224502902F3500326F4500222000E44
:10071000016A012226502802F3502C26F4500322AD
:10072000000E0222012225502802F3500326F45025
:100730000222000E012224502802F3500226F45017
:100740000122002A01BE05D02C36033602360136BE
:100750000006000E2CAE0AD0032A0222012201500C
:1007600005E1025003E1035001E1002A2BBE018E96
:100770002BAE019E04D0006A016A026A036A000C73
:100780002350B608236E036A24C027F0248ED89025
:100790002432253226320332023201320032232E35
:1007A000F6D727AE0BD0001E011E021E031E002A24
:1007B000D8B4012AD8B4022AD8B4032A44EF04F0EA
:1007C000006A016A026A036A2B6A2C6A2D6A2E6A21
:1007D0002A502910281027102CE0200E2F6ED890B8
:1007E00023362436253626362B362C362D362E3615
:1007F0002A502E5C08E129502D5C05E128502C5C24
:1008000002E127502B5C0FE327502B5E2850D8A025
:10081000283C2C5E2950D8A0293C2D5E2A50D8A017
:100820002A3C2E5ED88000360136023603362F2E43
:10083000D6D7EA6A2B0EE96E000CE9501B6E1A50EF
:100840001D6E19E019C026F018C025F017C024F05D
:1008500016C023F02A6A296A200E286E820E276E9F
:1008600016DF03C019F002C018F001C017F000C075
:1008700016F01D2EE7D719C026F018C025F017C0B6
:1008800024F016C023F07CD703C019F002C018F082
:1008900001C017F000C016F019AE0DD01B061B8A60
:1008A000161E171E181E191E162AD8B4172AD8B4D9
:1008B000182AD8B4192A3B0E226E9A0E216ECA0E3F
:1008C000206E1F6A0A0E1D6E1A50D8B41B2A19C05A
:1008D00026F018C025F017C024F016C023F022C05F
:1008E0002AF021C029F020C028F01FC027F068DFBF
:1008F0000150EFCF16F0ECCF17F0ECCF18F0ECCFA3
:1009000019F000520FE11A281D5C0CE01B500CE09E
:100910000F0B1D5C01E037E21BBE35D01BBC04D0C1
:10092000200E2DD0200E1B161BAA0CD01B9A1A507D
:10093000D8A41B0600501B6E2D0E236E47DC1B50E7
:10094000006E1B6A1A501D5C0AE100501B6E2E0ED1
:10095000236E3CDC1B50006E200E1B16000E300E6A
:100960001BAA0DD01B9A1A50D8A41B0600501B6E50
:100970002D0E236E2BDC1B50006E1B6A300E0026E2
:1009800000C023F023DC22C026F021C025F020C0C7
:1009900024F01FC023F02A6A296A286A0A0E276EEB
:1009A0000FDF03C022F002C021F001C020F000C020
:1009B0001FF01D2E8CD7000C0900F6CF17F0F7CFD3
:1009C00018F0F5CF23F002DC17C0F6FF18C0F7FFD0
:1009D000162EF2D7A4EF06F017C01EF01B501E1AF9
:1009E0001EAE05D0D894D89017BED8802FD017C08F
:1009F0001EF01AC01FF016501F5E06E01EAE26D075
:100A0000D850010AD86E22D01BC01FF017501F5EAD
:100A100006E01EAE1BD0D850010AD86E17D01CC0FD
:100A20001FF018501F5E06E01EAE10D0D850010A0D
:100A3000D86E0CD01DC01FF019501F5E06E01EAE10
:100A400005D0D850010AD86E01D0D890C8EF06F072
:100A5000F86AD09EEA6AE96A0F6A0E6A0D6A0C6A41
:100A6000136A126A116A106AC150C00B0F09C16E75
:100A7000070EB46EFF0E926E936EA5EF00F0180E87
:100A8000F66E000EF76E08EC01F0020E166EFA0E0E
:100A9000246E42EC00F0162EFAD7260EF66E000EEB
:100AA000F76E08EC01F0020E166EFA0E246E42ECA0
:100AB00000F0162EFAD7340EF66E000EF76E08EC24
:100AC00001F0020E166EFA0E246E42EC00F0162EA5
:100AD000FAD7B50ECD6E440EF66E000EF76E08EC2A
:100AE00001F0010E246E020E256ED5EC00F04C0EC6
:100AF000F66E000EF76E08EC01F0040E166EFA0E9C
:100B0000246E42EC00F0162EFAD70C0E236EE6ECA3
:100B100000F0C080C092C094C08EC280C150C00B93
:100B20000E09C16E000E016EC250C30B0110C26EE1
:100B3000100E006E002EFED7000092948984210EC4
:100B4000006E002EFED792948994928680B601D0D2
:100B5000FCD7CF6ACE6A928680A601D0FCD7CE5051
:100B6000146ECFCF15F015C017F014C016F0196A27
:100B70000A0E186E18EF01F002C017F001C016F04F
:100B800002C019F001C018F0010E1B6E680E1A6E3B
:100B900028EF01F002C003F001C016F002C017F008
:100BA0004AEC01F003C007F002C006F001C005F0F6
:100BB00000C004F007C01DF006C01CF005C01BF00B
:100BC00004C01AF0216A206A400E1F6E810E1E6E4C
:100BD00065EC01F0D882196A186A600E176E800EF3
:100BE000166E03C01DF002C01CF001C01BF000C057
:100BF0001AF018DC03C00BF002C00AF001C009F0C3
:100C000000C008F0C282C2B2FED7C4CF03F0C3CF87
:100C100016F0C4CF17F04AEC01F003C00FF002C089
:100C20000EF001C00DF000C00CF0320E246E42EC4C
:100C300000F00FC026F00EC025F00DC024F00CC04F
:100C400023F02A6A296A200E286E810E276E1FDD86
:100C500000C016F001C017F002C018F003C019F070
:100C600003C01DF002C01CF001C01BF000C01AF050
:100C7000216A206A1F6A890E1E6E65EC01F003C0AE
:100C80000FF002C00EF001C00DF000C00CF0D882D1
:100C9000196A186A200E176E810E166E0FC01DF0AD
:100CA0000EC01CF00DC01BF00CC01AF012EC02F0CC
:100CB00000C016F001C017F002C018F003C019F010
:100CC00003C026F002C025F001C024F000C023F0CC
:100CD000330E2A6E296E130E286E800E276ED7DC17
:100CE00003C013F002C012F001C011F000C010F0F8
:100CF0005E0EF66E000EF76E08EC01F0010E246E2B
:100D0000020E256ED5EC00F04C0E236EE6EC00F0E2
:100D1000750E236EE6EC00F03D0E236EE6EC00F05F
:100D2000420EE96E0BC019F00AC018F009C017F0A6
:100D300008C016F0020E1A6E80DD790EF66E000EF7
:100D4000F76E040E166E38D6420EE96E13C019F017
:100D500012C018F011C017F010C016F0020E1A6E73
:100D60006CDDC80E246E42EC00F00C0E236EE6EC37
:100D700000F0196A186A200E176E820E166E07C0F0
:100D80001DF006C01CF005C01BF004C01AF024D6EC
:100D900005E393908A8093928A9204D093908A90EC
:080DA00093928A82CAD6030077
:020000040030CA
:0E00000027CC191E008581000FC00FE00F40B5
:00000001FF
;PIC18F4550
;CRC=4522  CREATED="24-oct-16 19:41"
