:1000000072EF01F0F76A140FF66E000EF722090086
:10001000F5501200280C0106484F4C410000515584
:10002000452054414C004348414F000056454D4F38
:1000300053004275656E617320546172646573206C
:10004000000070726F6665204A6163696E746F00AC
:100050004C61626F7261746F72696F2023340000AB
:10006000432E204469676974616C657320494900B7
:10007000312A20484F4C4100322A20515545205406
:10008000414C3F00332A204348414F00342A205638
:10009000454D4F530000EA6A100EE96EEF500DE037
:1000A000060E016E006A002EFED7012EFBD77B0ED6
:1000B000006E002EFED7EF2EF3D7000C1738F00B92
:1000C000006E0F0E8C1400108C6E00008C80030EDE
:1000D000006E002EFED78C90000C8350006E00380E
:1000E0000F0B016E000C0F0E9514F009956E8C84A9
:1000F00000008C800000F1DF01C017F08C90000040
:100100008C8000D000D00000E8DF01C016F08C9099
:100110000F0E9514956E1738006EF00E00160050F5
:100120001610016E96EF00F08C92DDD701C016F02C
:1001300001BEFBD78C9214B08C8200008C9400001E
:100140008C901538166E0F0E161616C017F0B6DF07
:1001500015500F0B166E176EB1DF000C0F0E9514B5
:10016000956E9590959295948C928C948C900F0EA0
:10017000106E91DF010E0C6E0C50030808E3030EA5
:10018000176E9CDF050E106E86DF0C2AF5D7020E67
:10019000176E94DF0C6A0C5003080EE3036A0C50D0
:1001A000F2CF0DF0F29E2EDF0DBEF28E0D6E146AB0
:1001B000156EBADF0C2AEFD77FEF01F0112C01D0BA
:1001C00003D0400E126E01D0126A010E105C12268E
:1001D00012508009136E146A156EA6DF000C0F50C2
:1001E0000C0A05E0060A0BE0020A0FE013D0146ABD
:1001F000010E156E99DF020E106E4DDF11D0010E4B
:10020000106E020E116EDADF0BD0146A100E156E2E
:100210008BDF06D0010E146E0FC015F085DF00D005
:10022000000C0900F5520CE0F6CF0DF0F7CF0EF000
:10023000F5CF0FF0D4DF0DC0F6FF0EC0F7FFF1D7FA
:10024000000C010E106E020E116EB8DF180EF66E65
:10025000000EF76EE6DF5FEF01F0010E106E020E8A
:10026000116EACDF1E0EF66E000EF76EDADF5FEF7A
:1002700001F0010E106E020E116EA0DF260EF66E5A
:10028000000EF76ECEDF5FEF01F0010E106E020E72
:10029000116E94DF2C0EF66E000EF76EC2DF5FEF6C
:1002A00001F00C50FC0F0BE2040F61EF01F0C9D715
:1002B00006D0D3D704D0DDD702D0E7D700D0FCEFEB
:1002C00001F0E824F76AF736DD0FF66E020EF7222A
:1002D0000A00F550FA6E0800F550F96EAE02B2024F
:1002E000B602BA02F86AD09EEA6AE96AC150C00B47
:1002F0000F09C16E070EB46E040E0B6E2FD7320EAF
:10030000F66E000EF76E8DDF010E106E020E116E8E
:1003100055DF420EF66E000EF76E83DF080E0C6E90
:10032000FA0E106EB8DE0C2EFBD70C0E0F6E57DFD8
:10033000500EF66E000EF76E74DF010E106E020E98
:10034000116E3CDF600EF66E000EF76E6ADF080E6F
:100350000C6EFA0E106E9FDE0C2EFBD70C0E0F6E7D
:100360003EDF928080A00BD00A2A020E0C6E960E01
:10037000106E91DE0C2EFBD70C0E0F6E30DF010ECF
:100380000B5C0A5C02E001E30A6A0A50FC0F2BE2F4
:10039000040FFEEF01F0010E106E116E0FDF700EF4
:1003A000F66E000EF76E3DDF1ED0010E106E116E60
:1003B00005DF780EF66E000EF76E33DF14D0010EF7
:1003C000106E116EFBDE840EF66E000EF76E29DFE6
:1003D0000AD0010E106E116EF1DE8C0EF66E000E5C
:1003E000F76E1FDF00D0928280A206D0C80E106E7A
:1003F00052DE0AC00CF055D7B4D70300E824F76AE0
:10040000F736170FF66E040EF7220A00F550FA6E53
:0E0410000800F550F96E9603AA03BE03D2034E
:020000040030CA
:0E0000003FCC3E1E008781000FC00FE00F4076
:00000001FF
;PIC18F4550
;CRC=F0FF  CREATED="06-oct-15 01:02"
