:0400000045EF09F0CF
:08000800046ED8CF05F0E0CF33
:1000100006F00001E9CF0CF0EACF07F0E1CF08F0DD
:10002000E2CF09F0D9CF0AF0DACF0BF0F3CF12F01C
:10003000F4CF13F0FACF14F000C00EF001C00FF0AF
:1000400002C010F003C011F09DAA2AEF00F09EBA82
:1000500048EF07F00EC000F00FC001F010C002F032
:1000600011C003F00CC0E9FF07C0EAFF078E08C00B
:10007000E1FF09C0E2FF0AC0D9FF0BC0DAFF12C0DE
:10008000F3FF13C0F4FF14C0FAFF045006C0E0FFF2
:1000900005C0D8FF1000F2CF0DF0F29EF76AB00F46
:1000A000F66E000EF7220900F5500DBEF28E12001A
:1000B000280C0106F2CF0DF0F29ECC0FF66E000E6A
:1000C000F7220900F5500DBEF28E12007D86939A3C
:1000D000A1A09B9084776C696A737E8890959399B0
:1000E0009B9B978878624D41404B60768A99A3AA82
:1000F000AAA3917D6C605D647285949D9A9EA7A968
:10010000A5957F624836313D54728B9EA7ABACA457
:10011000927C6A605F67758391999AA5ADADA59150
:1001200075543A2D31466787A0ACACA79E8E7B698B
:1001300061616873828F9C9DAAB4B4A68C6D4B34A8
:100140002833517496ABAEA296897F736B696A703F
:100150007A869299A2B4BEB9A2805938272C4163FD
:1001600087A2ADA6978A7F756E6B6B6D747F8D9A33
:10017000A0B7C1BDA6815C3B2B2D426488A3AAA178
:1001800091857F7A736C67676D7A8A9DAABEC6C2B5
:10019000A9835B3A282B4061849FA7A0928A878518
:1001A000796B62606674879EADBAC5BFA8835E42F4
:1001B0003436455E778A95999A9B9C947F6556560E
:1001C00062728497A6B3C6C9BA966B47342F3A4C6D
:1001D000657F93A4ADAAA3937C60535763717F8C12
:1001E0009CAAC6D2C4A075513C32323D516F90AC2E
:1001F000B8B09F8F7E6A5B5A636E7A8694A3BBD237
:10020000CAB08462473B2F32436387A6B5AF9D8F48
:100210008479645D62707A848C9A9BB3C1B59C7C4E
:100220006751453C40506B8499A29F958E887F769C
:100230007277787576777D8392AAB1B2B0A1856A1C
:100240004C3D3B404F60748494A2AAADA9A08F7727
:100250006152515B6E839DB5C2C9BDA17F573E30CF
:10026000313B4B637B90A4B1B9B9AD997F635048E2
:100270004F617B90ABBDC7C7B596714C372E3340ED
:10028000556D8397A7B2B8B5A68F755C4C4B586C6B
:100290008499B0BDC2BDAA8D6A4A373137455B72B9
:1002A0008699A6B1B6B2A48D735B4E4E5B708599EC
:1002B000ADB9BFBAA88D6B4B372E34435C75899CA2
:1002C000A8B3B6B4A890755A4B49566C8599ADBA87
:1002D000C0BDAF957450362A2D3D5671889BA6AD92
:1002E000B0B0A8988066524950637B92A6B5BCBB5B
:1002F000AF9C82654A383035445F7992A4AEB2AF84
:10030000A99D8D7A64565057687F94A5B1B4B1A861
:1003100097826952423B3C455A72899EABB2B0A962
:100320009D8E7F6E615959627181929EA3A49D96A4
:100330008D817566595150555F6F7F8F9BA3A4A027
:10034000978E847C756F6B686B7079838C949896AC
:10035000918A817D797674706D6B6B6E747C838904
:100360008E8D8D8A8784807F7F7F7F7F807F7E7D5B
:100370007A7C7B7D7E81857E8181848384827F7E81
:100380007977746F7474797E818687898A8A888682
:10039000837F7E7D7B7F7D787D7C827E897E7F7280
:1003A00077787D7F7E8587877F7F8083858B8B882D
:1003B0007F786F6E6D73787F8284828A8A88807B73
:1003C000747170767A82838E8A9AB0B0A37D5E4310
:1003D000424F6F86938D7F6F6E7B9BAAA68165527D
:1003E000586881919B979CC1C6B883512A2944754E
:1003F0009AA48E705556709ABABD9765464B628224
:10040000949F919FBBC2B08355323147779AA38B9B
:100410006C565A769BBCBC9A66474A607F9299910B
:1004200089AFCAC6985F3023396D9EB29E74514918
:100430006590BBC9AD7649405473919B97849CC12C
:10044000D2B97C411D1E4682AFB59267484D72A459
:10045000C9C99D623D405C7F97A0938BACC4C49E8C
:10046000683A212C568CADAD8E684F5575A1C2BF30
:10047000956344455D7F97A4989FB5BAAC865F3E6F
:100480002A2E5381A3AB997D68647898ACA38468C5
:10049000677383929A94867C72727479838B90903E
:1004A0008B80726156545A687C8E9BA1A19F9A944E
:1004B000897F73635A575E6D7F919BA1A19F9B9526
:1004C0008B7A665448434C61788D9CA7ABA8A09664
:1004D0008B7F7368605B5C647483939DA7AAACA7F1
:1004E0009E8C7458423838465D7A91A3ADAFACA665
:1004F0009C8F7B67554C515E748999AAB8BFBFB376
:100500009A764E32282F405B788D9EA8AFB2AFA36B
:100510008E72584747556E8599ADBCC6C3B4946B6F
:10052000422A232C43627F96A5B1B8B9B19B7D5D69
:1005300046424B647E97B1C3CFC8B58F643D251F3B
:100540002E4869859AAAB5BBB9AA8C6C5345485BFD
:10055000708DACC4CEC4AB845C3D2D2D3B567793DF
:10056000A9B8BEB6A180624A42485C7292B9D4DD95
:10057000CDAC7F5130212438597F9DB3C3C4B79986
:100580007655403B465C7EAACEE3DDC397673D22AD
:100590001C28456A8FACC4CCC5AB856042363B5045
:1005A000739FC5DFE0CBA27042251C27416689A955
:1005B000C0CAC2A98561463C43597EA7C8DCD7BFE3
:1005C00093653D251F2D486D8FADC1C8BB9F7C58DD
:1005D000413C486794BDD9E0D0AA7B4C2C1C203705
:1005E000597EA1BECBC7AF8B66483C415A83AED182
:1005F000DED6B78A5A36201E2F4E7497B7C9C9B6B1
:10060000956E4E3F40537CA6CADDD9BE92633A2216
:100610001D2C496D91B1C5CBBB9D75523F3D4C72B0
:100620009FC6DCDBC49A6B40261D2743688BACC495
:10063000CBC0A37D59423D476894BDD9DCCBA6769B
:10064000482A1D233C5F82A6BFCBC3AC8762473ECE
:10065000445D85AECEDCD3B5885935212132517742
:100660009AB8C8C8B5946F4F3E3F4E709BC2DBDD51
:10067000C9A272432719233F658BABC1CBC2A986A0
:1006800061463C40557AA5C9DEDBC49A6A3F211811
:1006900026446E94B1C3C8BEA48360453B405675E2
:1006A0009DC2DADCCAA7784926181D39628BADBF16
:1006B000C6C0AC8F6E5040404C6784A9C8DAD8C021
:1006C0009A6C40211925446E95B3C0C0B7A2896BBE
:1006D000524444506A87A1C0D3D6C3A0764A2A1C8C
:1006E000223E658CABBBBBAFA2907B6454505A6D6D
:1006F0008196A4A7ACA79E8F7D69574B495162751F
:100700008692999A99938E887F7A747273767C8098
:10071000868888848585858684817C76706D6C6DFD
:1007200071777D848A8E91908D89847F7C7A7775AC
:100730007476797E818688878988888884807A73B0
:100740006D6B6C6F757B81868A8D8D8B8883807FC6
:100750007C7C7C7D7D7E7E7F7F7F7F7F7F7F8080B6
:100760008182828282807F7B78757576777B7E80BE
:1007700083868787878685827F7F7D7C7C7D7F7F60
:100780007F7F7D7C7A7C7C7C7F8083838483838174
:10079000807E7E7D7E7E807F7B7C7B7C7D7F7F817B
:1007A0008082818282838681807978757A7C7F835A
:1007B000858B837F727C767C737C7C84858987863D
:1007C0008985827E7B7A7A878C8C7E7062606A777C
:1007D000858C8C847F7A8188939494847669696F00
:1007E0007A81817F8489908E89827B77919D9476AE
:1007F0005143476A849B9586756E798A9B9B907E50
:100800007375859A927C625F6D7E85878886838901
:10081000918F887E6F7391837E5F4C5E688B918D24
:1008200088757C7F8B988E887A7B84888D85809173
:10083000746B68667F797F7F7E8D91938F817A76E6
:1008400074737283A287715C5175889093776E7709
:100850008299998B84787C8488897F74777B948F44
:100860006C6D6973857F7C85858C8B8286847C79B1
:1008700078787977777C9C9A796A5D66898F8681AA
:100880007173888E92907E777B7F888A7F78777964
:10089000859A84666A6E7C887C7780828D94878353
:1008A00082787A7E787D7E74777D7F98A07B68677A
:1008B0006178928A827F737B91918A8679747F8531
:1008C00083837D747E8F816E70727A857F77808856
:1008D0008A8E887F827F78787D7D7C7A74767E8729
:1008E00099967A6766687D938F827E797B898F8AF5
:1008F000847E7579818382817C86866E68787A7D34
:10090000847F808B8A8689857D7F7E797D7B787CDC
:100910007C787D808790847270757880837C7C84FD
:10092000898B8A847F7F7F7E7E7E7C80807D7F7EB8
:100930007F7F7F807F7E7F7F7E807F7F807F7F7FC6
:10094000807F7D7F7F7E7F7F7F7F7F7F80817E7FB7
:100950007F807E7F7E807F7F7F7F7F7E7F7E807CAB
:100960007F7F7F7F8080807F817E7F7E7E7F7F7E96
:100970007F7F7F7F7F7F7F80807F7F7F7F807E7F85
:10098000827F7F7F7E807E7E7F7F7F7F7E807F8075
:10099000817E7F7F7F7F80807F7F7D7F7E7F807F66
:1009A0007F7F807F7F807F7F7E7E7F807F7E807F56
:1009B0007F7F7F7E807F7F7F7B7E818082807D7E48
:1009C0007E8181807F7E7D7F7E807F7E807F7F8035
:1009D0007F7F7F807F7F7E7E7F7F7F7E807F807F27
:1009E000807F7E7F7F7F7F7F807C7F817F7E808016
:1009F000807F7F7E7E7E7E807F7F807F7F7C7F7E0C
:100A00007F8080807F7F817F7F7E7E7E81817F80EF
:100A10007F807F7E7D7C7E7F807F7F7F81818080E5
:100A20007F7F807F7E7E7C7B7D7F818282807E7BDC
:100A30007C7C7D8180818082838383817F7F7D7ABE
:100A400074737274777C80878A8F9193989692865C
:100A5000776558545765798C98998C7F736E6D7B48
:100A6000838D9FACB4B0A185674D3F3E4A5D7A92BD
:100A7000A6AA9F8A73656267758199AEBDBDAC9168
:100A800071543F363D516E90AAB6AB947962585D71
:100A9000697D9BB4C2C2B394704E38303A517192A2
:100AA000AEBBB198795F5254617599B4C5C2B49622
:100AB00075533E353C51708FACB9B19B7D64545336
:100AC0005D7292AFC3C6B99A76543C353E526F8E72
:100AD000AAB9B29E80665450596E8CABC3C8BC9FF5
:100AE0007C573E33384C6786A8BCBAA7886B554EF6
:100AF000546284A5BFCAC3AB8763423432425C7D73
:100B00009CB4BDB095755B4F535F7799B4C7C8B9B6
:100B10009B7651392E344A6A8CA9BBBBA88A6B5785
:100B20004F54657F9EB8C8C5B495704D3429314B7C
:100B30006F92AFC0C1AB8A68504A54677D9AB4C502
:100B4000C8BA9F7B553A2B2F436485A2B7BFB59D8A
:100B50007D5E52525C6F7F97ACBCC0B69F7F5B409E
:100B600031334765869FAEB3AF9E856D5D585B6838
:100B70007A8B99A8B1B3AB997F62493C3E4B6580B3
:100B800095A2A4A1988C80766D6A6C747E868E91F5
:100B9000989A9A948879675951556376858D919082
:100BA0008C898986827E7A7A7B7B7D7F8182858A29
:100BB0008C8E8C867C7066646970777E83868A8B67
:100BC0008C8C8A85807B777474777B808488898A13
:100BD0008784817F7E7C7A76757576797B7D7F8050
:100BE0008284848484838180807F7F7F7F7F7F7EF7
:100BF0007F7F81817F7F7D7B7B7D7E7F8080808109
:100C0000807F7F7D7C7C7B7C7C7E7F8182838384F4
:100C10008381807F7E7D7D7E7E7E7E7F7F7F7F7FE6
:100C20007F7F7F7F7F7F7F7E7F7F7F7F7F7F7F7FD5
:100C30007F7F7F7F7F7F7F7F7F7F7F7F7F7F7F7EC5
:100C40007E7F7F7F7F7F7F7F7F7F7F7F7E7F7F7FB6
:100C50007F7F7F7F7F7F807F7E7C7D7F81818281A0
:100C6000807E7D7F7F7F7F7E7F7E7F7F807F7E7D9A
:100C70007B7B7E7F8384827F7F7F8082807F7E7D7F
:100C80007F878C887A6B64657382919088807E8080
:100C900084807F7C79777C8289898986848184823B
:100CA00098A28C6242415D819187746C768B9D9A8B
:100CB000867A7C94A88E6A596F8384777A858E8D24
:100CC0008680828B7FA6A37A44365A848E725E6DAC
:100CD0008FA3907B73859C9982737D8DA2866260C1
:100CE0007C8A786B778489898F978D7678826F87F5
:100CF0009A73535B8289796273919A7D6C7C979722
:100D0000837B869084767F838D8D67637A87746515
:100D1000768990888991887B81807A6F729E9360B2
:100D20005376907D6572939077748C9583758593D7
:100D300087737A8A8677759B8A5A688E825E748EEC
:100D40008A798B998A76848377707A738D996B63AD
:100D50007F8D71677E907D708193877D878D847B89
:100D600080847F768183888C686F847F6676897FB4
:100D70007E8A93858388827D77757978859178736B
:100D80007C8375717E82797C888B818087887F7D6A
:100D900080837E7F82827C9E69628387656D8D837E
:100DA000758998847F8A8677797F78767B7C838B38
:100DB0007B737F8275717E807D8188878583848344
:100DC000817D8281817D817D9677637D856D6C8457
:100DD0008279869188828487857B757F8475757F0B
:100DE0007A768484777B817B747A818181868B8714
:100DF0008483827F7E7F807F7F8E7E72777C74701B
:100E00007E807D818C8D807F84877F7E7D847F75D1
:100E1000797D78727C81847F7E7F7F7B797F808102
:100E20008587878382817F807F8387807B7A7976BD
:100E300074787B7F82848785868181857F7F7D82B0
:100E40007F76797F77757C7F797B85867D80807FD3
:100E50007E7E8182818486858281807E7E7C7D7A91
:100E60007B7D7D7C7D817F8382868382817F7F798C
:100E7000797D7C7A7C7E827E7C7D807D7B7E827F9C
:100E80008385818184827D7E817F7E7F807D7E7F60
:100E90009EAAFED7AECF00F60601929A898A00512B
:100EA000400816E100C601F61F6A010E1E6E1F52B1
:100EB0000FE11E5064080CE39EAAFED7AECF00F6E9
:100EC0000051230801E104D01E2AD8B41F2AEFD70D
:100ED0009E9A00012AEF00F00C004155544F520039
:100EE0004A41494D45204449415A31000C006E7534
:100EF0006D65726F3D256C6420256C6400000C00EC
:100F00004C4953544F204441544F204F4B004755B8
:100F100041524441444F20454550524F4D00060E2A
:100F2000EA6E0C0EE96EEF500DE0060E016E006ADF
:100F3000002EFED7012EFBD77B0E006E002EFED7B3
:100F4000EF2EF3D7000C06011339F00B006E0F0ED5
:100F50008C1400108C6E00008C80030E006E002E2E
:100F6000FED78C900001000C8350006E00380F0BF0
:100F7000016E000C0F0E9514F009956E8C84000024
:100F80008C800000F1DF01C013F68C9000008C8093
:100F900000D000D00000E8DF01C012F68C900F0EE8
:100FA0009514956E06011339006EF00E0016005070
:100FB0001211016E0001DFEF07F08C92DBD701C048
:100FC00012F6060101AE02D00001F8D78C9210B1E2
:100FD0008C8200008C9400008C901139126F0F0EDF
:100FE000121712C613F60001AEDF060111510F0BE6
:100FF000126F136F0001A7DF000C0F0E9514956E92
:101000009590959295948C928C948C900F0E0601ED
:101010000C6F000184DF010E0601026F025103080C
:101020000CE3030E136F00018EDF050E06010C6F3B
:10103000000175DF0601022BF1D7020E136F0001CC
:1010400082DF0601026B0251030813E3036A0251B7
:10105000F2CF03F6F29E00014BEC00F0060103BF55
:10106000F28E036F106B116F0001A7DF0601022BD8
:10107000EAD7000151EF0FF006010D2D01D003D08A
:10108000400E0E6F01D00E6B010E0C5D0E270E513F
:1010900080090F6F106B116F00018FDF000C0601CC
:1010A0000B510C0A000105E0060A0FE0020A15E0E8
:1010B0001BD00601106B010E116F00017EDF020EC6
:1010C00006010C6F00012BDF17D0010E06010C6F1B
:1010D000020E0D6F0001D0DF0FD00601106B100E55
:1010E000116F00016ADF08D0010E0601106F0BC6F8
:1010F00011F6000162DF00D0000C0900F5520CE08F
:10110000F6CF02F6F7CF03F6F5CF0BF6C8DF02C62F
:10111000F6FF03C6F7FFF1D7000C080E016E0000C2
:101120008A9293920000060103378A90D8B0938088
:10113000D8A09390938281A2FED7012E01D002D035
:101140000001EDD700008A92939200009380000086
:101150000000938281A2FED7016A000081B0018065
:101160008A9293928A9093900001000C0900F6CF26
:1011700003F6F7CF04F6F5CF0BF691DF03C6F6FFC3
:1011800004C6F7FF0601022F01D002D00001EED7FE
:101190000001F5EF0FF0EACF0AF6E9CF09F60601F4
:1011A00003AF08D0098F09A9092B021F031F022BC7
:1011B000D8B4032B0339F009056F0527E20F066F3A
:1011C000320F086F03510F0B062706270827E90F78
:1011D000076F0727072702390F0B0727082707374D
:1011E0000837081F083702510F0B08270537070E6D
:1011F000046F0A0E07070827FDE306070727FDE32C
:1012000005070627FDE304070527FDE3060EEA6E42
:10121000040EE96E070E0915099DE906091507E197
:1012200009B9E92A09B903D0200E006E1CD0E926BD
:10123000080EE95CD8B4098DEF50006E08E109BDD5
:1012400006D009B91DD009B702D0200E0BD009AFC6
:1012500006D02D0E006EED50099D099F04D0098720
:101260000999300E0026EACF03F6E9CF02F600C056
:101270000BF6000114DF03C6EAFF02C6E9FF060110
:10128000EE5009ADD5D70001000CF86AD09E078E4C
:10129000EA6AE96AB886080EAF6E020EB06EA60E54
:1012A000AC6E900EAB6E166A176A186A196A1A6AE3
:1012B000880E1B6E0D0E1D6EC20E1C6E1F6A180E60
:1012C0001E6E216A206E236A226EC150C00B0F0968
:1012D000C16E070EB46E246A256A266A276A286AD8
:1012E000296A2A6A2B6A2C6A2D6A2E6A2F6A306A4A
:1012F000316A326A336A346A356A366A376A386AFA
:10130000396A3A6A3B6A3C6A3D6A3E6A3F6A406AA9
:10131000416A426A436A446A456A466A476A486A59
:10132000496A4A6A4B6A4C6A4D6A4E6A4F6A506A09
:10133000516A526A536A546A556A566A576A586AB9
:10134000596A5A6A5B6A5C6A5D6A5E6A5F6A606B68
:10135000616B626B636B646B656B666B676B686B11
:10136000696B6A6B6B6B6C6B6D6B6E6B6F6B706BC1
:10137000716B726B736B746B756B766B776B786B71
:10138000796B7A6B7B6B7C6B7D6B7E6B7F6B806B21
:10139000816B826B836B846B856B866B876B886BD1
:1013A000896B8A6B8B6B8C6B8D6B8E6B8F6B906B81
:1013B000916B926B936B946B956B966B976B986B31
:1013C000996B9A6B9B6B9C6B9D6B9E6B9F6BA06BE1
:1013D000A16BA26BA36BA46BA56BA66BA76BA86B91
:1013E000A96BAA6BAB6BAC6BAD6BAE6BAF6BB06B41
:1013F000B16BB26BB36BB46BB56BB66BB76BB86BF1
:10140000B96BBA6BBB6BBC6BBD6BBE6BBF6BC06BA0
:10141000C16BC26BC36BC46BC56BC66BC76BC86B50
:10142000C96BCA6BCB6BCC6BCD6BCE6BCF6BD06B00
:10143000D16BD26BD36BD46BD56BD66BD76BD86BB0
:10144000D96BDA6BDB6BDC6BDD6BDE6BDF6BE06B60
:10145000E16BE26BE36BE46BE56BE66BE76BE86B10
:10146000E96BEA6BEB6BEC6BED6BEE6BEF6BF06BC0
:10147000F16BF26BF36BF46BF56BF66BF76BF86B70
:10148000F96BFA6BFB6BFC6BFD6BFE6BFF6B010189
:10149000006B016B026B036B046B056B066B076BD8
:1014A000086B096B0A6B0B6B0C6B0D6B0E6B0F6B88
:1014B000106B116B126B136B146B156B166B176B38
:1014C000186B196B1A6B1B6B1C6B1D6B1E6B1F6BE8
:1014D000206B216B226B236B246B256B266B276B98
:1014E000286B296B2A6B2B6B2C6B2D6B2E6B2F6B48
:1014F000306B316B326B336B346B356B366B376BF8
:10150000386B396B3A6B3B6B3C6B3D6B3E6B3F6BA7
:10151000406B416B426B436B446B456B466B476B57
:10152000486B496B4A6B4B6B4C6B4D6B4E6B4F6B07
:10153000506B516B526B536B546B556B566B576BB7
:10154000586B596B5A6B5B6B5C6B5D6B5E6B5F6B67
:10155000606B616B626B636B646B656B666B676B17
:10156000686B696B6A6B6B6B6C6B6D6B6E6B6F6BC7
:10157000706B716B726B736B746B756B766B776B77
:10158000786B796B7A6B7B6B7C6B7D6B7E6B7F6B27
:10159000806B816B826B836B846B856B866B876BD7
:1015A000886B896B8A6B8B6B8C6B8D6B8E6B8F6B87
:1015B000906B916B926B936B946B956B966B976B37
:1015C000986B996B9A6B9B6B9C6B9D6B9E6B9F6BE7
:1015D000A06BA16BA26BA36BA46BA56BA66BA76B97
:1015E000A86BA96BAA6BAB6BAC6BAD6BAE6BAF6B47
:1015F000B06BB16BB26BB36BB46BB56BB66BB76BF7
:10160000B86BB96BBA6BBB6BBC6BBD6BBE6BBF6BA6
:10161000C06BC16BC26BC36BC46BC56BC66BC76B56
:10162000C86BC96BCA6BCB6BCC6BCD6BCE6BCF6B06
:10163000D06BD16BD26BD36BD46BD56BD66BD76BB6
:10164000D86BD96BDA6BDB6BDC6BDD6BDE6BDF6B66
:10165000E06BE16BE26BE36BE46BE56BE66BE76B16
:10166000E86BE96BEA6BEB6BEC6BED6BEE6BEF6BC6
:10167000F06BF16BF26BF36BF46BF56BF66BF76B76
:10168000F86BF96BFA6BFB6BFC6BFD6BFE6BFF6B26
:101690000201006B016B026B036B046B056B066B45
:1016A000076B086B096B0A6B0B6B0C6B0D6B0E6B8E
:1016B0000F6B106B116B126B136B146B156B166B3E
:1016C000176B186B196B1A6B1B6B1C6B1D6B1E6BEE
:1016D0001F6B206B216B226B236B246B256B266B9E
:1016E000276B286B296B2A6B2B6B2C6B2D6B2E6B4E
:1016F0002F6B306B316B326B336B346B356B366BFE
:10170000376B386B396B3A6B3B6B3C6B3D6B3E6BAD
:101710003F6B406B416B426B436B446B456B466B5D
:10172000476B486B496B4A6B4B6B4C6B4D6B4E6B0D
:101730004F6B506B516B526B536B546B556B566BBD
:10174000576B586B596B5A6B5B6B5C6B5D6B5E6B6D
:101750005F6B606B616B626B636B646B656B666B1D
:10176000676B686B696B6A6B6B6B6C6B6D6B6E6BCD
:101770006F6B706B716B726B736B746B756B766B7D
:10178000776B786B796B7A6B7B6B7C6B7D6B7E6B2D
:101790007F6B806B816B826B836B846B856B866BDD
:1017A000876B886B896B8A6B8B6B8C6B8D6B8E6B8D
:1017B0008F6B906B916B926B936B946B956B966B3D
:1017C000976B986B996B9A6B9B6B9C6B9D6B9E6BED
:1017D0009F6BA06BA16BA26BA36BA46BA56BA66B9D
:1017E000A76BA86BA96BAA6BAB6BAC6BAD6BAE6B4D
:1017F000AF6BB06BB16BB26BB36BB46BB56BB66BFD
:10180000B76BB86BB96BBA6BBB6BBC6BBD6BBE6BAC
:10181000BF6BC06BC16BC26BC36BC46BC56BC66B5C
:10182000C76BC86BC96BCA6BCB6BCC6BCD6BCE6B0C
:10183000CF6BD06BD16BD26BD36BD46BD56BD66BBC
:10184000D76BD86BD96BDA6BDB6BDC6BDD6BDE6B6C
:10185000DF6BE06BE16BE26BE36BE46BE56BE66B1C
:10186000E76BE86BE96BEA6BEB6BEC6BED6BEE6BCC
:10187000EF6BF06BF16BF26BF36BF46BF56BF66B7C
:10188000F76BF86BF96BFA6BFB6BFC6BFD6BFE6B2C
:10189000FF6B0301006B016B026B036B046B056B49
:1018A000066B076B086B096B0A6B0B6B0C6B0D6B94
:1018B0000E6B0F6B106B116B126B136B146B156B44
:1018C000166B176B186B196B1A6B1B6B1C6B1D6BF4
:1018D0001E6B1F6B206B216B226B236B246B256BA4
:1018E000266B276B286B296B2A6B2B6B2C6B2D6B54
:1018F0002E6B2F6B306B316B326B336B346B356B04
:10190000366B376B386B396B3A6B3B6B3C6B3D6BB3
:101910003E6B3F6B406B416B426B436B446B456B63
:10192000466B476B486B496B4A6B4B6B4C6B4D6B13
:101930004E6B4F6B506B516B526B536B546B556BC3
:10194000566B576B586B596B5A6B5B6B5C6B5D6B73
:101950005E6B5F6B606B616B626B636B646B656B23
:10196000666B676B686B696B6A6B6B6B6C6B6D6BD3
:101970006E6B6F6B706B716B726B736B746B756B83
:10198000766B776B786B796B7A6B7B6B7C6B7D6B33
:101990007E6B7F6B806B816B826B836B846B856BE3
:1019A000866B876B886B896B8A6B8B6B8C6B8D6B93
:1019B0008E6B8F6B906B916B926B936B946B956B43
:1019C000966B976B986B996B9A6B9B6B9C6B9D6BF3
:1019D0009E6B9F6BA06BA16BA26BA36BA46BA56BA3
:1019E000A66BA76BA86BA96BAA6BAB6BAC6BAD6B53
:1019F000AE6BAF6BB06BB16BB26BB36BB46BB56B03
:101A0000B66BB76BB86BB96BBA6BBB6BBC6BBD6BB2
:101A1000BE6BBF6BC06BC16BC26BC36BC46BC56B62
:101A2000C66BC76BC86BC96BCA6BCB6BCC6BCD6B12
:101A3000CE6BCF6BD06BD16BD26BD36BD46BD56BC2
:101A4000D66BD76BD86BD96BDA6BDB6BDC6BDD6B72
:101A5000DE6BDF6BE06BE16BE26BE36BE46BE56B22
:101A6000E66BE76BE86BE96BEA6BEB6BEC6BED6BD2
:101A7000EE6BEF6BF06BF16BF26BF36BF46BF56B82
:101A8000F66BF76BF86BF96BFA6BFB6BFC6BFD6B32
:101A9000FE6BFF6B0401006B016B026B036B046B4D
:101AA000056B066B076B086B096B0A6B0B6B0C6B9A
:101AB0000D6B0E6B0F6B106B116B126B136B146B4A
:101AC000156B166B176B186B196B1A6B1B6B1C6BFA
:101AD0001D6B1E6B1F6B206B216B226B236B246BAA
:101AE000256B266B276B286B296B2A6B2B6B2C6B5A
:101AF0002D6B2E6B2F6B306B316B326B336B346B0A
:101B0000356B366B376B386B396B3A6B3B6B3C6BB9
:101B10003D6B3E6B3F6B406B416B426B436B446B69
:101B2000456B466B476B486B496B4A6B4B6B4C6B19
:101B30004D6B4E6B4F6B506B516B526B536B546BC9
:101B4000556B566B576B586B596B5A6B5B6B5C6B79
:101B50005D6B5E6B5F6B606B616B626B636B646B29
:101B6000656B666B676B686B696B6A6B6B6B6C6BD9
:101B70006D6B6E6B6F6B706B716B726B736B746B89
:101B8000756B766B776B786B796B7A6B7B6B7C6B39
:101B90007D6B7E6B7F6B806B816B826B836B846BE9
:101BA000856B866B876B886B896B8A6B8B6B8C6B99
:101BB0008D6B8E6B8F6B906B916B926B936B946B49
:101BC000956B966B976B986B996B9A6B9B6B9C6BF9
:101BD0009D6B9E6B9F6BA06BA16BA26BA36BA46BA9
:101BE000A56BA66BA76BA86BA96BAA6BAB6BAC6B59
:101BF000AD6BAE6BAF6BB06BB16BB26BB36BB46B09
:101C0000B56BB66BB76BB86BB96BBA6BBB6BBC6BB8
:101C1000BD6BBE6BBF6BC06BC16BC26BC36BC46B68
:101C2000C56BC66BC76BC86BC96BCA6BCB6BCC6B18
:101C3000CD6BCE6BCF6BD06BD16BD26BD36BD46BC8
:101C4000D56BD66BD76BD86BD96BDA6BDB6BDC6B78
:101C5000DD6BDE6BDF6BE06BE16BE26BE36BE46B28
:101C6000E56BE66BE76BE86BE96BEA6BEB6BEC6BD8
:101C7000ED6BEE6BEF6BF06BF16BF26BF36BF46B88
:101C8000F56BF66BF76BF86BF96BFA6BFB6BFC6B38
:101C9000FD6BFE6BFF6B0501006B016B026B036B51
:101CA000046B056B066B076B086B096B0A6B0B6BA0
:101CB0000C6B0D6B0E6B0F6B106B116B126B136B50
:101CC000146B156B166B176B186B196B1A6B1B6B00
:101CD0001C6B1D6B1E6B1F6B206B216B226B236BB0
:101CE000246B256B266B276B286B296B2A6B2B6B60
:101CF0002C6B2D6B2E6B2F6B306B316B326B336B10
:101D0000346B356B366B376B386B396B3A6B3B6BBF
:101D10003C6B3D6B3E6B3F6B406B416B426B436B6F
:101D2000446B456B466B476B486B496B4A6B4B6B1F
:101D30004C6B4D6B4E6B4F6B506B516B526B536BCF
:101D4000546B556B566B576B586B596B5A6B5B6B7F
:101D50005C6B5D6B5E6B5F6B606B616B626B636B2F
:101D6000646B656B666B676B686B696B6A6B6B6BDF
:101D70006C6B6D6B6E6B6F6B706B716B726B736B8F
:101D8000746B756B766B776B786B796B7A6B7B6B3F
:101D90007C6B7D6B7E6B7F6B806B816B826B836BEF
:101DA000846B856B866B876B886B896B8A6B8B6B9F
:101DB0008C6B8D6B8E6B8F6B906B916B926B936B4F
:101DC000946B956B966B976B986B996B9A6B9B6BFF
:101DD0009C6B9D6B9E6B9F6BA06BA16BA26BA36BAF
:101DE000A46BA56BA66BA76BA86BA96BAA6BAB6B5F
:101DF000AC6BAD6BAE6BAF6BB06BB16BB26BB36B0F
:101E0000B46BB56BB66BB76BB86BB96BBA6BBB6BBE
:101E1000BC6BBD6BBE6BBF6BC06BC16BC26BC36B6E
:101E2000C46BC56BC66BC76BC86BC96BCA6BCB6B1E
:101E3000CC6BCD6BCE6BCF6BD06BD16BD26BD36BCE
:101E4000D46BD56BD66BD76BD86BD96BDA6BDB6B7E
:101E5000DC6BDD6BDE6BDF6BE06BE16BE26BE36B2E
:101E6000E46BE56BE66BE76BE86BE96BEA6BEB6BDE
:101E7000EC6BED6BEE6BEF6BF06BF16BF26BF36B8E
:101E8000F46BF56BF66BF76BF86BF96BFA6BFB6B3E
:101E9000FC6BFD6BFE6BFF6B0F0E926E0001FDEF96
:101EA00007F09D8AC00EF212D80EF66E0E0EF76E77
:101EB0007DEC08F0010E06010C6F0D6F00013CEC8B
:101EC00008F0DA0EF66E0E0EF76E7DEC08F0010EDD
:101ED00006010C6F020E0D6F00013CEC08F0E00EE5
:101EE000F66E0E0EF76E7DEC08F0040E0601026F22
:101EF000FA0E0C6F00018FEC07F00601022FF8D7E5
:101F000094948B94969C0C0EBD6EB76AB66A000EC4
:101F10000409CA6EFF0ECB6E929A899A1852D8A401
:101F2000B1D0010E186E1F6A1E6A1F501D5CD8A02A
:101F30007AD003E11E501C5C76E39380000093820C
:101F400000008A90939000008A929392A20E036FF1
:101F500000018DEC08F019C003F68DEC08F022C0EA
:101F600003F68DEC08F01FC003F01E50F2CF02F60E
:101F7000F29E1FC0F7FF5AEC00F0060102BFF28E7E
:101F8000026F036F00018DEC08F0939000009382C4
:101F900081A2FED7000000D0000093800000030E55
:101FA00006010C6F00018FEC07F0235203E1225071
:101FB000FE0804E2192AFF0E236E226EEC0EF66E66
:101FC0000E0EF76E7DEC08F0010E06010C6F0D6F22
:101FD00000013CEC08F0EE0EF66E0E0EF76E070EEA
:101FE0000601026F0001B6EF08F0100EE96E1FC087
:101FF00003F61EC002F6CBEC08F0200E06010B6FB4
:1020000000014FEC08F0100EE96E23C003F622C069
:1020100002F6CBEC08F0222AD8B4232A1E2AD8B420
:102020001F2A060182D7FE0EF66E0E0EF76E000115
:102030007DEC08F0010E06010C6F0D6F00013CEC09
:1020400008F0000EF66E0F0EF76E7DEC08F0010E34
:1020500006010C6F020E0D6F00013CEC08F00E0E35
:10206000F66E0F0EF76E7DEC08F0040E0601026F9F
:10207000FA0E0C6F00018FEC07F00601022FF8D763
:08208000236A226A49D703001C
:020000040030CA
:0E00000027CC191E008581000FC00FE00F40B5
:00000001FF
;PIC18F4550
;CRC=6C3F  CREATED="13-nov-15 02:19"
