:0400000001EF19F003
:08000800046ED8CF05F0E0CF33
:1000100006F00001E9CF0CF0EACF07F0E1CF08F0DD
:10002000E2CF09F0D9CF0AF0DACF0BF0F3CF12F01C
:10003000F4CF13F0FACF14F000C00EF001C00FF0AF
:1000400002C010F003C011F09DAA2AEF00F09EBA82
:10005000B3EF16F00EC000F00FC001F010C002F0B8
:1000600011C003F00CC0E9FF07C0EAFF078E08C00B
:10007000E1FF09C0E2FF0AC0D9FF0BC0DAFF12C0DE
:10008000F3FF13C0F4FF14C0FAFF045006C0E0FFF2
:1000900005C0D8FF1000F2CF0DF0F29EF76AB00F46
:1000A000F66E000EF7220900F5500DBEF28E12001A
:1000B000280C0106F2CF0DF0F29ECC0FF66E000E6A
:1000C000F7220900F5500DBEF28E12007F7F7E7F71
:1000D0007F7F7F7F7E7F7E7E7E7D7E7E7D7E7F803A
:1000E0008180818182828382818181807F7F7D7C0A
:1000F0007B7A7A79797878787879797B7B7D7E7F5D
:100100008082838486868788898A8A8C8C8B8C8C73
:100110008D8C8C8A88878584817E797674726F6DE8
:100120006A696968686868696B6D6F717275787AF9
:100130007D818386878A8C8E9091929293939392FD
:1001400092918F8F8D8C8A888683827F7D7A777457
:1001500072716F6E6D6D6D6E6F70727476797C7F7B
:1001600081838588898B8B8C8D8D8D8D8C8C8C8AF1
:1001700088898787858483807F7C7B787674706F9D
:100180006D6C6B69696A6B6C6D6F70727476787B7D
:100190007D7F81848687898A8C8D8F8F90909290C5
:1001A00090908F8E8E8D8C89878783827F7C7977E4
:1001B0007473716F6F6E6E6E6F717174767A7B7E11
:1001C000818486888B8B8D8D8D8E8C8B8C8A898893
:1001D000878584838281807F7C7B79797674727055
:1001E0006F6E6D6C6D6D6E6F707272757678797CF6
:1001F0007D7F808284858688888A8A8B8C8D8C8D91
:100200008D8E8D8D8D8D8C8B8A89878584817F7D68
:100210007A79767574727271717271737576787B92
:100220007D7F818385868989898A898A8A89888769
:100230008584838382807F7D7D7C7B7B7B797878DE
:100240007775757574737373737474747677777860
:100250007A7A7B7D7E7F808182838384858786878F
:100260008888898A8A8B8C8C8B8B8A8A89888785F7
:100270008583817F7D7B79787675747373727273F1
:10028000747577787A7D7E8083848586878888896F
:10029000898988888785848382807E7D7C7B7B7B3F
:1002A000797979797A797A797B7B7B7A7B7B7B7AAE
:1002B0007B7B7A7A7A7A7B7A7A7A7A7A7B7B7B7C96
:1002C0007C7E7F7F80818382848686878A898B8AF1
:1002D0008B8B8B8B8B8B8988878783827F7C7D78C8
:1002E0007877787674757376757777787A7B7E7E93
:1002F0007F8183848489848A8687848C888A86A186
:10030000877C7B847F726D6867686468676E736ED4
:10031000777D867E888E938D9496968E93918B852D
:10032000847F7E7A757671736B7070767375777F64
:1003300079827D82847D8684847A877E7A7C7C77CC
:100340007F77797E857C8289828E8E878B98848E5A
:100350009C788F8D79808883729E81789A8C888B27
:10036000958090837985746F6B646057594F5D4AAF
:100370004F59545D616C67787C7B8D899398979811
:100380009D9E98A3959C9F959597958B928B89821E
:100390007D7C7E72737371696D6F6A6F6D6F7B7830
:1003A0007B848881878F8E92989197969190928581
:1003B000858D8986858C8585858185807A7D797214
:1003C0006D6C656359575953535357595A60626C52
:1003D00071787F84888D94959799A19EA2A0A1A100
:1003E0009D9B9A92908B86807D76746C6B6A6A6214
:1003F00071636F7172797C7F858A87948D959499EA
:1004000090998F9B999F969D9F99999E94928B828C
:1004100083756E6860554F4846403E413F45494EA2
:1004200058606473797E898F95999DA1A7A5AEA91F
:10043000ABABABA3A599958A867B786A6D665D6048
:100440005C5B615C686871747D888C8C9B9D93A7F4
:10045000969D9C979FAE9DA8ADA9A8AA9FA6978C94
:100460008A836D6C5C574A403D392D3231363A40B3
:100470004A575A6B777E879399A0A1A6ABAAA7B0DB
:10048000ACABABA8A39C958C8679756C6862625DF9
:100490005F5C63616B6B727B7A868A8E9197989CA6
:1004A0009A98A0A0ACA9A8B1B1ABAAABA49C90901B
:1004B000816E6D5A52433C3730292D2F3137454ECE
:1004C000596376808B949FA7A9ABB1ACABACA9A5BF
:1004D000A1A099918C857E746F6965615F615F6190
:1004E0006469696E757B7F878A91939B9DA09C9FB1
:1004F000A1AEB3ADB1BEB3AEB1A5A18F89836D601E
:100500005B4D3D39302F25252E343B4658616E7AA0
:100510008D989EA6B2AFADADAAA19F9A94918A88FC
:10052000837D7B77726B6B6B68676B676B6B6C75CE
:1005300074788082898B9295959D9E9BA3B0B1B86B
:10054000BABEC3B7B7B4A6989082716253483B2E27
:100550002B2923282E363D485564707D8D989DA704
:10056000ACADACAAA4A098968E8A86817F7A75736A
:100570006F6D6E69696C6B6A6C6C6F7175787E8378
:100580008B8B94979C9DA0A2ACBCBDC4B9C9C1AFD4
:10059000BAA49B887F6F634E45402D2E2A2B292FAE
:1005A00039434C586B7682909EA3A7AAABA8A39E12
:1005B00096928C8985827F7F7D787775716F6E6961
:1005C0006966666766696B6F757A7E888B989AA094
:1005D000A8ABAEBCC6BCCAC7C7BFBFB2A498857F14
:1005E000665C4B43352E2B2528283238434C5E69F8
:1005F0007685909B9FA7A8A8A3A19D94918F8A8898
:100600008A878589847F7C74706C666362605F61B1
:1006100062666A6F757C858D989CA5AEAFB2B6C3D5
:10062000C1C8BFC9BFB0ADA2947D79655C49463FE2
:1006300036323238333E414D525D687179818A8E4F
:100640009294999998999D9B989D9D9C9C9A96911E
:10065000877F7569615C56535655595D65686F783B
:100660007A878D9098A2A6A9ADAFBFC3C7C7CDCCDE
:10067000BEBBAEA68C81706251444036312D313004
:10068000323940474D58626C757D898E959CA4A87F
:10069000AAAEAEAEA6AAA5A09A948D80786C655B32
:1006A00052535355555D60666C6F777C81868C9094
:1006B000959FA1A8A9B7C7CED0CBDACABFB4A998D5
:1006C0007F76675B49424038342F333232353942C6
:1006D000464F5B66737E8C99A3ADB1B9B9B7B0AE26
:1006E000A79D9C948D868079716A615E5A575A5B8A
:1006F0005F62666C6D73797D7E888E8F949CA4A9F1
:10070000AEB9CACED4CECDC9BBAF9E94816F645C66
:100710005243403F38362E2D2F32363C48535B6BC8
:100720007A8A959EA8B1B6B5B2B0AAA49996948CCF
:100730008883827D756C66625C5C5D6063676D72E8
:10074000767B7E8385878D9295999B9CA1A3A9B882
:10075000C8C7B5B5BAB19F8E887E746D6259524FC5
:100760004B423F3F3D3D3D42484F5A636C77838D3E
:1007700092989DA3A4A29F9C9A97918F8D8D8A8514
:1007800082807B77757271727576777878767475FA
:100790007674757678797C7F8083898D939FA9B0F4
:1007A000B0AFB2B5B3B1B1B0A8A0988F81756F6387
:1007B000554A43403C3A3B3B3C40454B50565E65B6
:1007C0006C737A80878C92999EA3A6AAABADAEAECD
:1007D000ACAAA6A39F99928A80776E665E58535002
:1007E000515053575D646A737C838C96A1ABB3BA46
:1007F000BFC2C7CBC8C5C0B9ACA19789796A5C4FE5
:10080000443D38322E2E3032353B40464D566068DE
:10081000717A838B939BA3A9ADB2B5B9BABBBAB7B2
:10082000B3AEA89F968D83786C635B534D4A47485F
:100830004B4E545C646C7781899099A5AFB7BBBF70
:10084000C5C9CAC6C7C1B8ADA497897A6C5E4E4403
:100850003E38312D2E2F30353B40474F57606A735D
:100860007B838C9399A0A7ABAFB3B6B8B9B9B6B236
:10087000AEA79F968C83786E635B554E4A494A4D6E
:1008800051575E666F78818A929AA1ACB5B8BABFAB
:10089000C4C2C0C0BEB4ABA59B8C7F7466564C4628
:1008A0003D3632313131363A3F454D555E666F77D0
:1008B00080868E969CA1A4AAAEB2B4B6B7B6B3B0E9
:1008C000ABA49D948A80766B635A54504C4B4D5028
:1008D000555A626B727B838C9299A2AAAEB5B9BB52
:1008E000BDBFBFBCB8B3ABA2988F8272655A4E43EE
:1008F0003D37312D2E2F31363D434B546068717B8F
:10090000838991999FA3A7ABB0B3B6B6B6B7B5B27A
:10091000AFA9A0978E84786D635A524C4A47484AD3
:100920004F555C676F78828B9399A0A9B0B6B8BC1D
:10093000BFC2C0BEBDBAB2A9A197897B6F62534640
:1009400040362F2B2A2A2A2F353D434F5A636D7884
:10095000818891989EA1A5A9ABADB0B0B0B1B1AF5F
:10096000ACA8A39D968D847A6E665E554F4C49491E
:100970004C50555D656F77818A939AA1A9AFB6B83F
:10098000B9BCBEBDB9B6B3ABA49C95897E746A5D93
:10099000524A433B3433312F3036393F46515B6442
:1009A0006F7A828B969DA3A7ACAFB1B2B3B2AFAF53
:1009B000ADA9A5A29C968F8A8279706A615B565414
:1009C000504F5153595E646D757E8790979DA3A9D2
:1009D000ADB2B4B4B3B5B3B0ACA8A39C948D867CCF
:1009E00072685F565049443E3C3B3B3A3C3F43486B
:1009F000515A626B757D878F989FA4A9AEAFB2B331
:100A0000B3B1ADACA9A49F9A958E89837D76706AA7
:100A100066605D5B5957585B5E61676D7279808770
:100A20008B92989C9EA2A4A4A4A5A2A09C9B9894FF
:100A3000918E8984807C76706C66615A5855504FCF
:100A40005050515257595D62696F757B82878D9303
:100A5000989B9FA2A4A5A4A4A3A09D9A9793908CD1
:100A60008884817D7B777573706E6D6B6A6867694A
:100A7000686A6C6E7173787C7F83878B8E91949695
:100A8000989898979694928F8D8B8783817F7C7BA3
:100A90007B7977767575737272706E6C6C6C6A6A3E
:100AA0006A6B6B6C6F717276797C7F828586898BBD
:100AB0008C8E8F8E8E8D8E8D8C8A8888878685838E
:100AC000828180807F7F7F7F7F7E7E7F7F807F7F30
:100AD000818080807F7E7D7E7C7D7B7A7A7B7A7C44
:100AE0007B7A7B7C7C7D7D807F827E8A8C777F7F1A
:100AF00082808181828385858582868486838482C3
:100B0000807F7E7E7D7B78787775747C6F706E7168
:100B1000727473727675787A7B7E80808184878820
:100B2000888887898A8B89898B8A8A8A8787878739
:100B3000868281807E7E7E7B7D7C7D7B7B7A7B8BCB
:100B40007C78787C78797D7A7D7C81817E837E83D8
:100B500080868C8679757E89726F6E76787E7670E7
:100B60007B8180797F7F7D7B878484907F88908361
:100B70007E7F867A817E80848285828488868E8C40
:100B80008A8D8D8A8582867C7B7676706B706E6AA4
:100B90006D6E6F6E7377787A7980818184838484B7
:100BA000848282888F8C89898C8A8583807D7B79F9
:100BB000767074736D6F7171727477797C7C8085D7
:100BC0008385868B8E8E8F8C8A95AEBAA4A7B9BA90
:100BD000AA97998B796E5D544B4A4038444A4D51DF
:100BE00060727784898B9496948A88867D756E70FE
:100BF0006A6C74727E8B9C9EA5AFABA9A298897615
:100C00006F645A565450515E6266717A818B959525
:100C10009397A09F969493A2BECCBFB8D2D1B8A010
:100C20009B906F59463A34291E21364143577184AF
:100C30008C98A4A6A39C93877E6E605B58504F59F6
:100C4000686F7C909DB0B9BEBCBFB9A08D806E5757
:100C50004C4746474A52606C787B8D97959A9C9F8B
:100C60009A97918C9EC6BCA5C2D5C3A8ABA38A781F
:100C70006253453D2D25373736445C6E788A97A3FD
:100C8000A69E99988F75686A63524E5661666E7C0F
:100C9000909DA7B4BFC4BFB3AA9F896F5E534C4455
:100CA000434B535761727D828A969A969895959395
:100CB0008A7C90B2B9BEB3DDDCB9AFADA26C635231
:100CC00043321E2126322A3E5F707F8FA6B1B2AC1E
:100CD000A9A48F7A6D645646464C5259667B8F9C08
:100CE000A7BECAC6C6C2B59D8C756251443F3F437C
:100CF00048535E6B79838C96999D9F9492938E7CDA
:100D000087A3AFC4B1CEE2D0C2AEB78970584B3D15
:100D10001E1C15251B2A405B6E789BAAB5B2B6B582
:100D2000A3907E7762504748494956677B8A9CAFBB
:100D3000C3C7CCD2C4B8A49176634D403E3C3B457A
:100D400051596A78828B979D9CA29D9496957E8A34
:100D5000A6B9B4A9D8D1C0B3B7A984735C5A3D2A47
:100D60002229241B3043525C798FA1A6A9B7B3A6D0
:100D70009693846E6158544D4C52646B76889FAE46
:100D8000B5C5C7C3BCAD9D8A7460564A404044494E
:100D9000505E6777818D969AA5A49FA09B8F9BA894
:100DA000BAB3A4CBBFB0A8AC99847960624E3D3091
:100DB000382B1E2A363E485E70869396A6B0ACA4A9
:100DC000A39D8C83796F6B645F646C707889989F46
:100DD000A7ACADAAA093897D706765626A6B7174D8
:100DE0007E8489919497999B99948F8A85817C7947
:100DF000737371707373717577787A8386868A8E50
:100E0000908F91928F8D8D8A85807B777066635EDF
:100E1000585454535257575C61686E777F858D9252
:100E2000979D9FA0A1A3A2A1A19F9E9C9A989692F4
:100E30008E8A86817E7B746D6863605B57585657D7
:100E40005A5D62686F757D848A9297999D9EA1A470
:100E5000A2A1A0A1A09D9C9B9796948F88847D744D
:100E60006D655F58524D4844444343484E555D6755
:100E70006E7781898F969B9FA5A8A9AAACABA8A7DE
:100E8000A3A09D9995918D88847E7A76716C69670F
:100E900062605D5B5B5A5B5D60646A6E767D8187D4
:100EA0008F94979BA0A2A5ABADA8AAAFAEA8A9A608
:100EB000A29D9A938880786D62574E46403B3836A3
:100EC00036383D4048515A646E79848C949BA2A771
:100ED000ABADAEB0AFAFAEABA9A6A3A09B96928BC5
:100EE000837A736B645C57514C4C4D4E51555C6228
:100EF0006B737C848C92989EA2AAB3B6B6BCC2C017
:100F0000BFBFBDB6B1AB9D9185776557493E342DC6
:100F10002928292B30373E44505C656F7B838C92A7
:100F2000999EA3A7AAACAEB0B2B3B1B1B0ABA5A025
:100F3000988E847A6D635B534C464546484C525AB2
:100F4000636D77808790979DA6B0B4B7BEC5C5C5C1
:100F5000C6C5BFB9B3A6988A7D6A594B3F342B26C4
:100F6000242323282F363E4B57616C77838C93992B
:100F7000A1A6AAADB3B7B8B8BABBB8B5B0A8A0948B
:100F8000887C7064584E4743414043474E565F6AE1
:100F9000767E869099A7B0B5BCC4CDCCCFD0CAC45C
:100FA000BFB8A8998C7B68584A3C3128241E1F2161
:100FB000252D37404C58646F7C858E969DA2AAAE35
:100FC000B1B6BAB9BBBCBAB7B1ABA194897C7061F8
:100FD0005E5548464545464C515B646B717C87992C
:100FE000A5A7B4C4C8CBCDD0C8C7BDB2A79B8A7AC9
:100FF0006B5B4E433A302E2D292B33363B47535CE7
:101000006A77818E969EA9AEB3B8BEBDBDBDB9B09C
:10101000ADA2938A7E6F645B514B44424244464C7E
:10102000545B646D74808C9CB4B0C6D8CDDCE6D8BB
:10103000CED8C2B0AC978272625241352F271E21A2
:10104000232127343C445662707E8B98A0A8B4B705
:10105000BDC8C3C4C8BFB7B5A6978F806D645B4CCD
:1010600044413B393D3F404C545A67777D92B1A98A
:10107000C2D9CEE1ECDFDCE0CDC0B9A2927F6A5EDE
:10108000493A32261E201C19222A2F3B4B566474E3
:10109000828E9CA8B1B5C6C9C8D0CBC6C5BDACA40C
:1010A000968478695B4F443F373636363C454A581C
:1010B0006470809DA0B0CEC4D7E9DEDEE5DACBC592
:1010C000B4A28E7E6C52473C2B22211B1921232B6C
:1010D00035424E5A6D788493A0A6B5BEC0CACBC81F
:1010E000C9C4B9B2A7978A7D6E61554B433F3D3C59
:1010F0003C444B515C68768D96A4BEBBCBDCD7DA02
:10110000E0D9CDC7BDAA978A78605447362D2921EA
:101110001D1F2325303B4250616B7A88949DABB7ED
:10112000B8C4C8C7C9C6BCB7AD9D938774695C4FC6
:1011300049403D3C3940464B5A64768F90B1BCBD26
:10114000D7DDD9E2E5D8D2CABCAA978B745F5641E5
:10115000332D251C191E1D222F3740505F697B86B9
:1011600096A0B0B8BFC8CACCCDC6BFB9AB9F90835C
:101170007265594E43403C3A3E4245525E6B84880C
:10118000A2B3B5D0D7D5DFE2DAD4D0C1B1A0937E77
:10119000675E493B312B211B1E1D212A333B4958D9
:1011A0006473828E9BABB3BDC4C9CCCDC7C2BCAE89
:1011B000A4958778685D5147413F3D3D4244505971
:1011C0006A8183A0AFB2CCD3D6DDE2DBD4D1C4B385
:1011D000A296806B604C3D312B211C1F1D212933B1
:1011E0003C47586270818D99A8B1B9C3C7CBCDC8AF
:1011F000C3BDB0A799887B695D5247423F393C40E7
:10120000454B56677D80A0ADAED0D1D4DEE2DCD4B4
:10121000D4C4B4A698816E634D3F342C221D1F1C8C
:101220002028303A4756626F7F8E96A6B2B8C4C85F
:10123000CACDC9C4BFB6A69B8D7D6D625649453FD8
:101240003D3C3F43495460787E93AEA9C5D2D2DC81
:10125000E1DED4D5CAB9AB9D8972665341372E25DC
:101260001C1F1D1C262F3542535E6A7C8893A2B139
:10127000B5BFC7C7CDCBC6BEB8AD9E928374645B05
:101280005043423E3B41414853586D8180A1AEAE30
:10129000CCCED4DBE0DAD2D1C3B3A696816F5F4E59
:1012A00040342C231F1F202129333A485861728370
:1012B0008C9BA6B4BAC2C8C8CACBC2B9B5A7978C12
:1012C0007F6D61584A42403B3B404147525D6681D9
:1012D0008A94B8B2C6D8D6DDE0E1D5D0C7BAA49911
:1012E000886B61503C312E1F1A1B191E2332394462
:1012F00057647284909AA8B4BABFCACAC9CAC7BB95
:10130000B6AC9C8F8275625A4F45403E3A3B404294
:101310004C54636E7A9B9AA9CCBFD3E5D8DCE4D653
:10132000CBC8B7A59584705A4F402D252217161C9F
:101330001D242F3D48566A798595A4A8B4BEC1C81E
:10134000C6CAC9BFBCB7A59B9483736A5C4E4940AB
:101350003D3A3B3F414954596C75808EADAEB5DB8B
:10136000CBD5E6E0D2DCD1BFB9AA968174624A3E01
:1013700033271A1B19131B252B3649586579879477
:10138000A1AEBABAC1C5C7C8C1C4BBB1ABA28F8830
:101390007E6C5F594D44413F3E3F42474E58636E1D
:1013A0007985929AB2C3B6D7DFCBDEE8CEC6D3B585
:1013B000A4A18A72665843362A231B151B1E1F28B8
:1013C0003D414E65757F91A1A9B3BBBFC0C2BFBFF0
:1013D000BFB4B0AC9E93937F736E6353504B444045
:1013E0004345474A525E64707F87909DA4ACC8C64F
:1013F000C0E0DBCBD4DFBDB8B9A08B84735C5040B8
:10140000332C211A1D1E1C27353B495B6B788797AF
:10141000A1ACB2B9BEBCBCBAB5AEABA9A097948D15
:10142000817B716A605955524F4F53575A636A71A5
:1014300079828A91999FA4A7A7A8A5AEB2A6A6A7CC
:10144000A59D9A938C897F776E6B6059564E4A4A58
:1014500049474A4E53585F656D757D82898D9295D7
:10146000979A999A9B9A99979694918E8F8D89873E
:10147000837F7D7C78767473717372727374767601
:10148000797B7E7F8283868788888989888685851F
:1014900083868886858586858788858484848181FE
:1014A0007D7C7A777472716F6E6C6B6C6C6B6C6D2B
:1014B0006F71717577797C7F818587898B8D8F8F2F
:1014C00091919191908F8E8D8A8A888484827F7E7B
:1014D0007D7C7B797978767675747474747475759F
:1014E00078797A7C7E7F81838586878888888987DA
:1014F000888B898988898888898887858482817F83
:101500007C7A7674726F6E6B6B6A6B6B6B6C6E70E1
:10151000727577797C7E81838586888B8B8C8D8DA7
:101520008E8E8D8C8B8B898786848281807F7F7D58
:101530007D7B7C7B7B7B7C7B7C7C7C7D7D7D7D7EE9
:101540007E7D7D7E7F7F7F7E7F7F7F7F7F807F80B0
:1015500080807F808081808180818181818282837F
:1015600082828282848381828181807E7E7C7B797B
:1015700078777774747474747675757677797A7B06
:101580007C7D7F808082838585878788888888881E
:101590008788878786868585848281807F807F7E15
:1015A0007D7C7D7B7B7B7C7C7C7B7D7E7F7F7F806D
:1015B0007F807F7F7F7E7D7C7C7B7B7A7B797A7965
:1015C00083787A7B7D7D7F7F80818283838483841F
:1015D0008584848483838383838281817F7F7E7DEE
:1015E0007E7C7D7E7C7D7C7D7F7E7E7E7E897C7B1D
:1015F0007C7C7A7B7A7B7C7B7B7B7C7C7E7E7E7E2C
:101600007F807F81818180818283828282818382C7
:10161000848282858482868D80808081847C7677B6
:101620007A79767473777A7D7A7C7B7F8184838004
:10163000868888868D898481817F79757075777FAA
:101640007B7376797D7A756E767E7F7C7A7D838AF0
:10165000888583878D8D8881868A8B888688898511
:1016600083827F7F7E7C7A78797D79767B80868D98
:101670008C898C908D858079726F6E655E5E5F64FB
:1016800066696C737B8082868B8C8F8D8A88868559
:10169000817E7C797C7D808286898D9193959597DA
:1016A0009592928A827C77726C6A6666686C6F70BB
:1016B000757A7D80838181827F80808284898B8915
:1016C0008E91918F8E8D8A888782807D7A75767BC8
:1016D00085909E9C9C9A988F847864564E4A44408C
:1016E000424752606E77808C949B9D9A938E89823C
:1016F0007C756F6D6E73777C838B92989E9E9B9B9F
:1017000095918A837B767472737579808893999AA0
:1017100099948A82796D635E5D5D636A6E757C8182
:101720008485878888888988878685858386888D4B
:1017300090919390908B8B86817E77756E696E7D8C
:101740008A90908A827E7E7B6F604F4A4E565C5EA6
:10175000626874838F94938F8C8E8E8C857D767364
:10176000767C7F7F80838891979895918D8C8A85F0
:101770007F7A77787B81848587888B8D8E8C888330
:101780007F7E89919087786C676C6E696661636B08
:10179000797F7F7D78777C82827F7D7C7E858C8F50
:1017A0009292929393958F8C88817E7B7A767675D0
:1017B00074737373727173727684959DA39B8C7D21
:1017C00076726A6258504D5766738087898B8E9502
:1017D00095948C7E736D6E707377797D8490979BF2
:1017E0009E99948E8B8885827C7876797D8084869C
:1017F0008789898A8986807C7774737477787A7D03
:101800008B959A978B796C6B6A6B6D6B6869707846
:10181000808686817C7B7B7D8486868587888A8E90
:101820008F8C8784838387888784827E797A79798D
:101830007876787877787978767676777677797F2C
:10184000939CA1A295897A766C69665F5D5A626FF6
:101850007B8B90918E8A888586827B75706D70797E
:1018600081878D8F8F8F929493918A827B77767701
:101870007A7B7B7E7F82878B8B8A86837C7A787863
:1018800076777677797D818B9799988F8170676667
:1018900065696D6C6E737A7F868985807A76757AD4
:1018A0007E80828283868D919395918A85848484BB
:1018B00085837F7A7776787C7D7C7C7977797B7E6F
:1018C0007E7E7A75727475797C7D7C7D8087959F2C
:1018D000A5A09585756E67686867645F62667381A9
:1018E0008C93928F88858382827F787472737881DB
:1018F0008A929493908D8B8B8987827D7773737591
:101900007A7F8385858484838385827F7B777475E2
:10191000767D888D908D867B716F6C6D7171727222
:10192000767980858585807B7776797C82878889C2
:10193000898B8C8E8F8D8A86827F80828282807D49
:101940007A777776797A7C7D7D7D7C7B7C7B7B77F3
:1019500077747374767B7C7F83868F959B9D99903B
:10196000847A6F696664666566666D76808A92952C
:1019700093908A85827F7E7C7A7877787C81888D47
:101980008F908E8C8A878583827D79767575777C3A
:101990007F8283848483838382827F7D7A8085882B
:1019A0008B877E736B66656C72777B7A79797D7EC7
:1019B000828684817F7E7F83878B8E8C89878786D2
:1019C000888A898784807D7B7E7F807F7C7A797915
:1019D0007A7C7D7C7A7877787A7B7D7C7A79787866
:1019E0007A7D7F808084868B8F918F8A827A7370D4
:1019F0006E707273757577797D81838483807C7A4C
:101A00007B7B7F838589888A8A8C8B8B8A88868377
:101A1000807E7E7F7F7F817F7F7E7C7D7E7E7E7DE0
:101A20007C7B7B7E83878A8C8B86807B74737271D0
:101A3000747476777777787A7979787776797C7F26
:101A400084878A8D8C8E8D8E8E8E8C8B89858381FA
:101A5000807E7D7D7C7A7A797876777876777778EC
:101A6000797A7D7D7D7E7D7D7E8081807F7E7D7D9E
:101A70007D7E7E807F7E7F7F808181817F7D7C7B7C
:101A80007B7C7E7F7F80807E7E7E7E7F7E7F7F7F71
:101A9000808083848485848585848584858382820F
:101AA000818080808080807F7F7D7C7D7F8081833E
:101AB00083807F7C7B7B7C7D7E7E7C7B7775757471
:101AC00075767777797B7C7D81838484848486872F
:101AD00088898A8B8A8989888685827F7E7B7A7AC3
:101AE000797B7A7A7D7C7C7C7A79797A7C7D807F3F
:101AF0007F7E7D7E7E7F7F807F7D7B7C7C7B7C7D0F
:101B00007D7C7B7C7C7D7F807F7F7D7C7C7E8082FA
:101B100083858383818080818283848383828181A2
:101B200082828283828281828181807F7F7E7E7EAB
:101B30007F80807E7D7C7A7978787B7A7D7D7D7EE2
:101B40007C7D7C7C7E7F808182828483848383838E
:101B5000838283828381818180807F7F7E7E7D7C82
:101B60007D7D7D7D7C7C7C7B7B7C7D7E7F7F7F7FA4
:101B70007D7D7C7C7D7E7F7F827E807E7E7E7D8083
:101B80007D7F7C7F7E7F80808181827F7E7E7E7F65
:101B90008082828282817F7F7E7F8080807F807F43
:101BA00080808080807E7E7E7E7E7E7E7F7F7F8046
:101BB00081818181817F7F7E7E807F818080807E28
:101BC0007D7D7D7E7E7E7E7F807F807F7F7F807F2C
:101BD00080807F7F7E7F7F7F7F807F7F7F7F7F7E14
:101BE0007E7E7E7F7F7F807F807F807F7F7F7F8004
:101BF000807F7F7F7F7F7E7E7F7F7F7E7E7F7F7EF9
:101C00007F7F7E7F7F7F7F7F7F7F7E7E7F7E7F7EE9
:101C10007F7F7F7E7E80817F7E7E80807E7E7E80D5
:101C2000817F7E7F8180807F8181807E7E7F7F80BB
:101C30007F7D7D7F7E7F7D7D7F807E7E7E81817FBB
:101C40007C7D807F7E7E80807F7F7E817F807D7EA9
:101C50007D817F7E7E7F81807D7F8081807E7E8092
:101C600080807F7F8181807C8080807B7F7E7D7F84
:101C70007D7E81817E7F8282807F807D82807D7B70
:101C8000817F7D7E7D7F7F827B8180827C857E7E61
:101C900080817B827E7C807D7A7B817C817F857B5D
:101CA000817B817B857A837D847D7D837B837B863D
:101CB00078867A807D857E82797D7D827B807E8339
:101CC0007C837E8281837F7E857E7A7D817B827C20
:101CD000817D8678857A8476877683768076887B20
:101CE00085798C7D867B7E807F7E7C7C7F807C80FE
:101CF0007C85778977877D8A7889798772837683EF
:101D000079837C7D838183827D80847685728377ED
:101D100088738775877685778A7E837E837C8179D1
:101D200084758377827E827F7F837E83798C7A85B8
:101D30007C7F7B82797F7A80788379837D827C83C4
:101D40008380838175867B85718E768A7389728A9A
:101D50007184768483817D7B857E83758579828598
:101D60007B7E827E807E768A777E7C80857783808C
:101D70008687817A817C837884738E728B6E8A7970
:101D800081757E7D81807C807C837E7F7C83837C6B
:101D90008379897888718A73847E7B857E877B8549
:101DA0007A877489778280807F7E877A8273827C4B
:101DB000827A8277817A847E837F7D7D7B88778932
:101DC0007690728F6F90768B78827B85787F7C7D22
:101DD0007D7D7F7C857B7F7D8280837F7F807B7E16
:101DE0008477857E7C857F7E84748881827E7880FE
:101DF0007F7B827D7F7F7E81807D807C817E7980FC
:101E000077837D7E7C838287817F7E847D7D837FD7
:101E10007D7F7D78847C807C847F827C7E7F827FD6
:101E20007C8279827E7F7D857D817D807C83797CCB
:101E30007D857A7F847C847F7F7C80847B847782AD
:101E4000797F7E7F87778579857B827B817D887AA4
:101E50008576837E84748579837B847C80817B8294
:101E60007F847F7C7A84798576837D84797E838084
:101E70007E87797F7D7E807F807E8481777F807F73
:101E8000827C7D7E838276887B887C83817F7D7E59
:101E90007F807F817A847D7E7E807E7E7F7E7B8256
:101EA0007F827B8080817A8081818078847D7B8243
:101EB0007B7F7B847D7E817C847D817C877D838329
:101EC000827A817D7C7F81778479837D8579847C2A
:101ED0007E807C837E7E7D80817A7F8182817E820E
:101EE0008082807A837D817A82778379847688780C
:101EF00086768B74897A827D867F7E807C7E7B81EC
:101F00007F807E807F81788476837F7F78877983E6
:101F10007B8879827C817F83817A827C8275877ECF
:101F20007D837E7D7E80807B83817D7E7F807F88B8
:101F300076847E7F817C817E857889798C6F8A76B4
:101F40008079857D7F8279808078847A84787F83A8
:101F500078847B857C8479847C837C867C8A768487
:101F600073916C8D748B788A75877984788778847F
:101F70007D7C81818676817A89798476897C827B71
:101F80007A8974847A837C7C7B897A82748479836D
:101F90007C7A8E74857A81808377868081798C784B
:101FA0008778857F847E827A8573887B8079837742
:101FB000827D837E7E81778974817A877784798434
:101FC0007D8179837F7B7F7D827C7A847C89788226
:101FD0008184797F7E857A847588798379887A810E
:101FE00079827C85827F837D827C827A857C7D7B01
:101FF0008579887886758379837B7F7B88758E6CFD
:102000008E76897587708F73877C8775887D857FCD
:10201000807D7E807D7D857F7D837782807D798ACE
:1020200079877A827F81817D807D7E7C817B817FC3
:102030007C79877A85807D7E807E7E837785798CAA
:10204000718D718E728A768A7D84738A7A8478849F
:10205000788574867A8477897B8777817B827C8296
:102060007C867D7F7E7C837D837B7F7D8574887687
:102070008E738D72867A8478847382787E807E8473
:10208000817E837E868182847985718A767E7C8258
:1020900078887C8481847A858376867D7B8179804B
:1020A000798677818178857D817F86787C847F7C45
:1020B0008380837687778B7A7F7C86797C8579822B
:1020C0007F7B877E7A837E7E7B817D7E7B7D818028
:1020D0007A838279867A8477837D857F7E7A897A0E
:1020E0008180807E81827F7E7E7C7F8179818082FB
:1020F0007781817F7E7F7D81778B80787C817F78FF
:102100008A7A867F7D807D7F798B788281837A88C9
:10211000798777877C7C817B81788472887D787CE5
:10212000867A8381817B817F827E84798875847CB5
:102130007D8075837A84738C7580798E72887E82B7
:102140007F847D827F7C7F8281798E77837F817996
:1021500087788375897386788080838180837E8386
:102160007A80877D7A887E7E847A837E7B7C867582
:102170007A7F807287797D827F7C8778837F827780
:102180007F8E6A91758C76927387817D887D7A7F48
:102190008975837E87768B7582807A7C83787B7E57
:1021A0007E737E7A7F7C7D81798E71907988808A3A
:1021B000758F787F8474807D787788707F7D7F725B
:1021C000867D877A848083827E867C82857F887FF5
:1021D0008784857C8A857A897F807C857C7E7E7CED
:1021E0007C7C737A786D74766C77706D7B736D839D
:1021F0007076857A7A8D7D8A8C818E987D949C8785
:102200009790929C9B8CA5938E9B94858C837D76D6
:102210006F686957565D51505755575D5F6C7274C2
:10222000838A8D92989B9A9795968486827A767403
:102230006C716E6C69727081768A82858F9193ABB6
:10224000A299C2AFA7BFB5A9B59EA4978281795DB7
:102250005E584541423A3F3B3F4C4A4C5F66697A83
:10226000858F909FA7A8A8ACA9A19C9A8C837C7508
:102270006B6564645F64646669737677848586A839
:10228000A497C1BAAAD1BCB3C4A9AEA58A918267EA
:10229000685E4C4840393A3135403A4055575E7097
:1022A000788D9398B1B0ABBDB9A9ABA3988D817B64
:1022B0007260635C54595C5C5E666E6F7A7E95A753
:1022C0008FB3CEA3C4D5B7C8BFB6BD979A9A706D69
:1022D0006C5247413D342D2E3635344A4E53667389
:1022E0007A8B9A9FABB8B7BBBDB4B1A69D908678E8
:1022F0006E645A58544E5054575D626A727394A576
:102300008BB9C9A3D1D1B5D0BAB7BF95A397707C0B
:102310006C5350454338333738353A4C4B54686E1C
:102320007B8497A19FB9BAB1BDB7ADAA9D958978B5
:10233000756A5C5C574F515457575E686F6F909A3F
:1023400085BBBCA0D5C6BBD7B6C4BF97AF957481BB
:1023500068594E444432333A36373B4F4B536B6BDC
:102360007B8492A995B6C4A8BAC1A8AAA4988D7C6A
:102370007971575D5E4B4C5353525A666B6B869D19
:102380007DA9C79CCBD2B5DDBAC0CB96AFA374866E
:10239000715B544445373137323533454C47616AB8
:1023A0006F7E87A3A1A4C8B9B2C9B8A9B1A2928609
:1023B0007D77625A5E504752544A55605D64758B12
:1023C0009984BDBF9FD7CFBDD3C0C8BE9DB49779F8
:1023D000846D5B4C48412F34372E313647424A6674
:1023E000656E83909AA0A9C0B6B3C8BBA6B2A78DEC
:1023F00089837061605A4D4B54504D5B5F616C72C4
:10240000889B8AACC89EC6DEB5D0CBBFC4A3B3A39D
:102410007C87765C514D462F31372C2731443A4129
:102420006061687B8D929CB0AFB7BEBDBFB4B0B0E9
:1024300098928B776D655E544F544D4D54585A6841
:102440006D72829B9596C8B1AEDDC3BFD2BEC0B4DB
:10245000A3A98E7C796A534C4A332F31272A28331B
:102460003E3A516166738A9597ABBAB3BFCABFBF94
:10247000BFB3A69D8E84716662504A4E4B464F5440
:102480005A606B72797E8EAB94A9D1A9BFDFBEC4AE
:10249000CDBFB9A8A79A857770614549452A2D32E5
:1024A0002828303D3E465A656F7C8C979CAAB3B96C
:1024B000B8C0C3B8B5B8A7979687736C6457515323
:1024C00053504E585B5B6A6F727C828A90A4A79EC1
:1024D000C2BBABCEC4B5BFB9AFA29E938075685ED8
:1024E0004C41433230332F303A424853626E7A8740
:1024F000909BA3A8ADB0B2B4B3B1ADAA9F9891859B
:102500007A736A625D5C575958575F5E65706F7A7F
:1025100080878E959798A8B19CB4BFA0B9BCA5AA96
:10252000ACA0909284737160575044404039393F59
:1025300042424F585F6C7881888F9B9D9FA6A7A2CF
:10254000A4A69F9C9C988D8C8D827A7E786F6F71EB
:1025500068676C6C656E7371767C7F80878A899101
:102560008F9193909B9F929BA296969E978C918C15
:102570007F7B7A6E66655C595351515152575F614A
:102580006773787B858B888D93919092938E8E8FD5
:102590008B888C8B86898A85848580807F7D7A7AFA
:1025A0007A78797B79797C7A7A7C7E7D7F8080826B
:1025B00082838284838A868891898A928F8A8D9188
:1025C00088858A817A7A776B6A6B646066666368ED
:1025D0006E6C6E7677777A807F81848685878A8A2B
:1025E0008A8C8C8D8C8D8D8D8B8C8B898585837F52
:1025F0007E7D7A7778767474747375747678777B69
:102600007C808182858587888989898B898A898769
:10261000868585848181827F7D7F7F7B7B7D7978C4
:102620007A767475767374767575777777797B7A41
:102630007B7D7D7E7F7E808181828383848485848F
:102640008485848485848383838281818180818160
:10265000808080807F80807F80807E7E7F7E7E7F86
:102660007E7D7E7F7E7E80807F8182818281808070
:102670007F7F7D7E7C7C7B7C7A7A7C7B7C7D7E7D93
:102680007E7F7F7F80808180808181818181818147
:10269000808080807F7F7E7D7C7C7B7C7B7B7A7A68
:1026A0007B7B7C7B7B7C7D7D7F7F80808283828344
:1026B00083848384838484858384838282818180EC
:1026C00080807E7E7E7D7D7C7D7D7C7C7E7D7D7E32
:1026D0007E7E7E7D7E7E7E7E7F807E7F7F7F807E13
:1026E0007F7F7F7F7F7F7F7E7E7F7F807F7E7F7FFC
:1026F0007F7F7F7F7F7E7F7E7D7E817F7F807F7FEC
:102700007F7F7F807E7F7F817E7E817F7E7F807ED8
:102710007F7F7E7E7E7F7E7F7E807E7F807E8184C7
:102720007B7D827F7C8081807E817F807E817F7FB8
:10273000817F7F827E7C807F7B7E7F7E7D807F7EAF
:102740007F7F80807F7F7F7F7E817E807E807F7F96
:10275000807F817F80807E807F7C807D7F7E807D8A
:102760007E7E827C80817F7F7E807D807F7D807F7A
:10277000807E807F837F817C827D7F7A7D7B7C7C75
:102780007D7E7E7F85818083848182838281817F3B
:10279000807E7E7B7E7D7F7F827F7E7F80807F804C
:1027A0007E807C7F7F7F7D7E7F7D7D817F80817F3E
:1027B00080817E7F7D7D7E7C7C7B7B7B797D7B8049
:1027C0007E7F7F828583848684828282807F7E80F2
:1027D0007E7E7F7D8183808282827E80817E7C81FD
:1027E0007C7A7C807E7C82908A829192857F877FB2
:1027F0006D6A6E69606164676770747B81878C93B2
:10280000938F918D89868380827D7B81817F828772
:10281000857E7F837D7D7D7B7B7A77777778777DFB
:102820007F7F8488878A8B878C8D85888C8680873C
:10283000857E83848580868287909EA4A7939E90C0
:102840007E665C5540403D424655616E7F88909063
:10285000928A857E74706E6B6C73787F8892989D77
:10286000A19C99918A827D78777C80818BA0ABA98D
:102870009B99907D68625D585E67727A84878782D3
:102880007F7C7675777F80868A8D8D8F908B89850A
:10289000858380808185888F897E7F8B9FBFAC8E6A
:1028A0009697784F42443C323A4C637581868E93BA
:1028B0008A776866615E626B7B88939EA4A29B9117
:1028C0008580797371777C8590999EA099948D8489
:1028D00077727477797F8991919FA79F87786F64CA
:1028E0005C59626B798489868782746C6A6D7178B1
:1028F0007B7F87898B8A87888D8E9193949A988C19
:102900007E7B7A71717B878277727478778AB29EC8
:102910007A7A7D67494B575A6D7C7F86938E7B739D
:10292000706963636C7889969898989081756D69E1
:102930006C788288929A9E9A91877D807E7D7C8435
:102940008E92908A877F797778777E8583878A874A
:102950008E9C8F7264666462686F7C8A8B807878E4
:102960006F64616A737C858A8B8E93908B84838C71
:1029700092908E8E8D877E7A778087877C79808013
:10298000756D6E6B707C8D9BA5A68C72645C5351CB
:102990005A6A7A8D938A8581766561676F7B8A939F
:1029A00096968F85777172747D868E9496958D81BB
:1029B0007B767679828C9195938B837C7571717A15
:1029C00082878A8B88837B777273788097A99C81B2
:1029D00074675958616F819595867A70635A6475EA
:1029E000818B908F8C867E767B879293959D97883E
:1029F0007C777A7E8182868983767073737277752D
:102A000074787B797E96A4A0876F656366676C7C1B
:102A10008F938A7D736D68686A73838E918C857CD1
:102A200075726F737D8A9193918C867F7D7E81868E
:102A30008C8F8D8A86807D7B7B7D81858584817D61
:102A40007A77787A7E8286858681869492876F658A
:102A5000646D73787E878A817267646A737D838709
:102A600089867D777B8287898E92929089817E8309
:102A7000888C86828284807C797676777673767885
:102A80007A7979777F8F968F867E76727372767D6C
:102A90008382837D76737170727B808381817B7981
:102AA00078797C81878C8C8C888382807F808588F4
:102AB0008A898684807F7B7D7D80828482827F7FFD
:102AC0007D7E80808383867E807D7E7FA3AC7F5ADF
:102AD00058616B787A7F91947A6560636C7B7F86AE
:102AE00092907F747477808F929396948B81777B8A
:102AF000888D8889878480786E727E827E79797AE3
:102B00007A7471777D7F7B787C81898A8889867BDE
:102B1000737272787F8283827F78736F6E73797E2F
:102B20008080807F7D7C7E82858787898888858577
:102B300084848385848584838383807D7E7E818273
:102B40008382838281807E7E7E7F8080807F859B62
:102B50009B836962646D73777F8A8B7A6A65686F1D
:102B6000777C818B8A7D78777C848B8B8E9591871F
:102B700082838288857F868D898384817E7B716F45
:102B80007A7F7E8386807F776D6F797C7D817A778F
:102B90007A77727C838A8A837C7A7A76777D808260
:102BA000827C7877747476797C818381808280815D
:102BB000848486898D8B89878686858384848383B4
:102BC00082807F7F7E7D7F7F8081807F81807F7F0D
:102BD000808F93887D7875747470757E7D79777237
:102BE00070716F747C8182817F7A7F808082868D14
:102BF0009290888686817B7D7F8686888586847D87
:102C00007E7D7B7D817B7D8788837B7574787776FD
:102C10007A7D7F7A7875737273787D817E83848400
:102C200083807E7C7D7E807F7F7F7F7C7C7A7879CD
:102C30007B7D7E8181807F82848585868889888668
:102C400086848383828283818180807F81817F7F6C
:102C500082828485898683817E7C7A797A7B797881
:102C6000767777737373767879797B7D7E828282CB
:102C700082848587878687878586878484827D810D
:102C8000858784827F7D817F7D7D7F7E8084867E37
:102C90007776787A747680847D7673757776777AAE
:102CA0008080817D77777A7C7F80848C8A837C7C2E
:102CB0007F81807E8183807E7D7F7F7E7B7D808320
:102CC00083818083828282838688878585848585C7
:102CD000817F818382807D7D7F7E7C7C7B7C7D7E0D
:102CE0007B787A7A7B7B7C7D7E7D7C7D7C7B7D7C2A
:102CF0007E82837F828080858482848584888782A7
:102D000083828084857F7D7F81827D77787B7878E0
:102D1000787A7F7F7A7979797C7D7A797F808283EE
:102D20007E7F817D79797C7E807E7E807F7C7978D4
:102D30007D7F7F7F828382817E8086878684828278
:102D40008281818384858482807E7C7D7D7E828277
:102D50008181807D7E7E7E808181817E7C7D7D7D86
:102D60007F7E7E7F7E7E9EAAFED7AECF23F0929A94
:102D7000898A2350400816E123C024F01E6A010E00
:102D80001D6E1E520FE11D5064080CE39EAAFED773
:102D9000AECF23F02350230801E104D01D2AD8B47C
:102DA0001E2AEFD79E9A2AEF00F00C004155544F8F
:102DB00052004A41494D45204449415A00000C0007
:102DC0006E756D65726F3D256C6420256C64000026
:102DD0000C004C4953544F204441544F204F4B005A
:102DE000475541524441444F20454550524F4D00B4
:102DF0000C004441544F67203D256C64202575002C
:102E00000C004C4953544F00454550524F4D000063
:102E1000EA6A2F0EE96EEF500DE0060E016E006AB1
:102E2000002EFED7012EFBD77B0E006E002EFED7A4
:102E3000EF2EF3D7000C3638F00B006E0F0E8C140B
:102E400000108C6E00008C80030E006E002EFED7EA
:102E50008C90000C8350006E00380F0B016E000C3C
:102E60000F0E9514F009956E8C8400008C80000084
:102E7000F1DF01C036F08C9000008C8000D000D0D3
:102E80000000E8DF01C035F08C900F0E9514956EB0
:102E90003638006EF00E001600503510016E53EFFC
:102EA00017F08C92DDD701C035F001BEFBD78C92B4
:102EB00033B08C8200008C9400008C903438356ED6
:102EC0000F0E351635C036F0B6DF34500F0B356EA9
:102ED000366EB1DF000C0F0E9514956E959095929D
:102EE00095948C928C948C900F0E2F6E91DF010E26
:102EF000256E2550030808E3030E366E9CDF050E91
:102F00002F6E86DF252AF5D7020E366E94DF256AEE
:102F1000255003080FE3036A2550F2CF26F0F29EF6
:102F20004BEC00F026BEF28E266E336A346EB9DFAB
:102F3000252AEED728EF19F0302C01D003D0400E0F
:102F4000316E01D0316A010E2F5C3126315080097B
:102F5000326E336A346EA5DF000C2E500C0A05E089
:102F6000060A0BE0020A0FE013D0336A010E346E3A
:102F700098DF020E2F6E4CDF11D0010E2F6E020E65
:102F8000306EDADF0BD0336A100E346E8ADF06D073
:102F9000010E336E2EC034F084DF00D0000C090027
:102FA000F5520CE0F6CF25F0F7CF26F0F5CF2EF056
:102FB000D4DF25C0F6FF26C0F7FFF1D7000C030EC3
:102FC000265E09E3EA6A260EE96EEF5004E001D0BE
:102FD00000D0EF2EFDD76CEF19F0080E016E000047
:102FE0008A929392000026368A90D8B09380D8A017
:102FF0009390938281A2FED7012EF1D700008A928E
:1030000093920000938000000000938281A2FED77B
:10301000016A000081B001808A9293928A90939015
:10302000000C0900F6CF26F0F7CF27F0F5CF2EF0F1
:1030300094DF26C0F6FF27C0F7FF252EF2D7000C3D
:10304000EACF2DF0E9CF2CF026AE08D02C8E2CA89C
:103050002C2A251E261E252AD8B4262A2638F00911
:10306000286E2826E20F296E320F2B6E26500F0B8A
:10307000292629262B26E90F2A6E2A262A262538D4
:103080000F0B2A262B262A362B362B1E2B362550A5
:103090000F0B2B262836070E276E0A0E2A062B2624
:1030A000FDE329062A26FDE328062926FDE3270657
:1030B0002826FDE3EA6A270EE96E070E2C142C9CE5
:1030C000E9062C1407E12CB8E92A2CB803D0200E0D
:1030D000006E1CD0E9262B0EE95CD8B42C8CEF5086
:1030E000006E08E12CBC06D02CB81BD02CB602D048
:1030F000200E0BD02CAE06D02D0E006EED502C9C69
:103100002C9E04D02C862C98300E0026EACF26F078
:10311000E9CF25F000C02EF020DF26C0EAFF25C051
:10312000E9FFEE502CACD7D7000C080E266E00C07D
:1031300027F093800000938281A2FED781B0D880CF
:1031400081A0D8900136000093928A92262EF1D762
:10315000938000008A902750D8A493900000938217
:1031600081A2FED700008A92939200008A909390E9
:1031700028EF1AF02850016A275C03E227C000F00C
:103180000CD0006A080E296E273600362850005CE5
:10319000D8B0006E0136292EF7D7000C015025C09B
:1031A00027F0640E286EE6DF00C025F00150300ED7
:1031B00007E126A20CD026B60AD026B8200E03D0EE
:1031C000269626982680012601C02EF0C6DE25C050
:1031D00027F00A0E286ECEDF00C025F00150300E19
:1031E00006E126B608D026A006D026B8200E012675
:1031F00001C02EF0B2DE300E252625C02EF0ADDE49
:10320000000CF86AD09E078EEA6AE96AB886080E52
:10321000AF6E020EB06EA60EAC6E900EAB6E166A5E
:10322000176A186A196A1A6A100E1C6E360E1B6E1F
:103230001E6A180E1D6E206A1F6E226A216EC15012
:10324000C00B0F09C16E070EB46E0F0E926E43D6FF
:103250009D8AC00EF212AA0EF66E2D0EF76E9FDE3C
:10326000010E2F6E306E68DEAC0EF66E2D0EF76E10
:1032700096DE010E2F6E020E306E5EDEB20EF66E20
:103280002D0EF76E8CDE040E256EFA0E2F6EC0DD4D
:10329000252EFBD7929A899A1852D8A4ACD0010E49
:1032A000186E1E6A1D6A1E501C5C1CE303E11D5053
:1032B0001B5C18E31EC003F01D50F2CF25F0F29EF8
:1032C0001EC0F7FF5AEC00F025BEF28EBE6E020E55
:1032D000256E950E266E73D6252EFBD71D2AD8B4E3
:1032E0001E2AE1D71E6A1D6A1E501C5C63E303E1BF
:1032F0001D501B5C5FE393800000938200008A9066
:10330000939000008A929392A00E266E66DE19C0FA
:1033100026F063DE21C026F060DE1EC003F01D50E3
:10332000F2CF25F0F29E1EC0F7FF5AEC00F025BE4A
:10333000F28E256E266E51DE93900000938281A25C
:10334000FED7000000D0000093800000050E2F6E15
:103350005FDD225203E12150FE0804E2192AFF0E2C
:10336000226E216EBE0EF66E2D0EF76E18DE010E69
:103370002F6E306EE1DDC00EF66E2D0EF76E070E6D
:10338000256E4FDE100EE96E1EC026F01DC025F022
:1033900057DE200E2E6EE1DD100EE96E22C026F003
:1033A00021C025F04DDE212AD8B4222A1D2AD8B406
:1033B0001E2A9AD7D00EF66E2D0EF76EF0DD010E96
:1033C0002F6E306EB9DDD20EF66E2D0EF76EE7DD84
:1033D000010E2F6E020E306EAFDDE00EF66E2D0E7A
:1033E000F76EDDDD040E256EFA0E2F6E11DD252E33
:1033F000FBD7226A216A1E6A1D6A1E501C5CD8A077
:103400007DD004E11D501B5CD8A078D093800000D3
:10341000938200008A90939000008A929392A00E6B
:10342000266EDBDD1AC026F0D8DD1FC026F0D5DD04
:10343000938000009382000081A2FED78A9093902F
:1034400000008A929392A10E266EC7DD006A6DD6A7
:1034500001C017F093900000938281A2FED7000074
:1034600000D0000093800000050E2F6ED1DC17C045
:10347000BEFF205203E11F50FE0804E21A2AFF0E8D
:10348000206E1F6EF00EF66E2D0EF76E88DD010EAB
:103490002F6E306E51DDF20EF66E2D0EF76E070EAA
:1034A000256EBFDD100EE96E1EC026F01DC025F092
:1034B000C7DD200E2E6E51DD16C025F01B0E266EC8
:1034C0006DDE010E2F6E020E306E36DD17C025F058
:1034D0001B0E266E63DE1F2AD8B4202A1E5203E17B
:1034E0001D50FE0807E2040E256EFA0E2F6E90DCCA
:1034F000252EFBD71D2AD8B41E2A7FD71A6A206A28
:10350000180E1F6EC7D6000EF66E2E0EF76E47DD34
:10351000010E2F6E306E10DD020EF66E2E0EF76E5F
:103520003EDD010E2F6E020E306E06DD080EF66EC9
:103530002E0EF76E34DD040E256EFA0E2F6E68DC4B
:06354000252EFBD703005D
:020000040030CA
:0E00000027CC191E008581000FC00FE00F40B5
:00000001FF
;PIC18F4550
;CRC=DB40  CREATED="13-nov-15 02:13"
